Archive member included to satisfy reference by file (symbol)

d:/rt-threadstudio/repo/extract/toolchain_support_packages/arm/gnu_tools_for_arm_embedded_processors/5.4.1/bin/../lib/gcc/arm-none-eabi/5.4.1/../../../../arm-none-eabi/lib/armv7e-m/fpu\libstdc++_nano.a(eh_personality.o)
                              ./rt-thread/components/cplusplus/cxx_Mutex.o (__gxx_personality_v0)
d:/rt-threadstudio/repo/extract/toolchain_support_packages/arm/gnu_tools_for_arm_embedded_processors/5.4.1/bin/../lib/gcc/arm-none-eabi/5.4.1/../../../../arm-none-eabi/lib/armv7e-m/fpu\libstdc++_nano.a(eh_terminate.o)
                              d:/rt-threadstudio/repo/extract/toolchain_support_packages/arm/gnu_tools_for_arm_embedded_processors/5.4.1/bin/../lib/gcc/arm-none-eabi/5.4.1/../../../../arm-none-eabi/lib/armv7e-m/fpu\libstdc++_nano.a(eh_personality.o) (std::terminate())
d:/rt-threadstudio/repo/extract/toolchain_support_packages/arm/gnu_tools_for_arm_embedded_processors/5.4.1/bin/../lib/gcc/arm-none-eabi/5.4.1/../../../../arm-none-eabi/lib/armv7e-m/fpu\libstdc++_nano.a(eh_arm.o)
                              d:/rt-threadstudio/repo/extract/toolchain_support_packages/arm/gnu_tools_for_arm_embedded_processors/5.4.1/bin/../lib/gcc/arm-none-eabi/5.4.1/../../../../arm-none-eabi/lib/armv7e-m/fpu\libstdc++_nano.a(eh_personality.o) (__cxa_type_match)
d:/rt-threadstudio/repo/extract/toolchain_support_packages/arm/gnu_tools_for_arm_embedded_processors/5.4.1/bin/../lib/gcc/arm-none-eabi/5.4.1/../../../../arm-none-eabi/lib/armv7e-m/fpu\libstdc++_nano.a(class_type_info.o)
                              ./rt-thread/components/cplusplus/cxx_Thread.o (vtable for __cxxabiv1::__class_type_info)
d:/rt-threadstudio/repo/extract/toolchain_support_packages/arm/gnu_tools_for_arm_embedded_processors/5.4.1/bin/../lib/gcc/arm-none-eabi/5.4.1/../../../../arm-none-eabi/lib/armv7e-m/fpu\libstdc++_nano.a(eh_call.o)
                              d:/rt-threadstudio/repo/extract/toolchain_support_packages/arm/gnu_tools_for_arm_embedded_processors/5.4.1/bin/../lib/gcc/arm-none-eabi/5.4.1/../../../../arm-none-eabi/lib/armv7e-m/fpu\libstdc++_nano.a(eh_personality.o) (__cxa_call_terminate)
d:/rt-threadstudio/repo/extract/toolchain_support_packages/arm/gnu_tools_for_arm_embedded_processors/5.4.1/bin/../lib/gcc/arm-none-eabi/5.4.1/../../../../arm-none-eabi/lib/armv7e-m/fpu\libstdc++_nano.a(eh_catch.o)
                              d:/rt-threadstudio/repo/extract/toolchain_support_packages/arm/gnu_tools_for_arm_embedded_processors/5.4.1/bin/../lib/gcc/arm-none-eabi/5.4.1/../../../../arm-none-eabi/lib/armv7e-m/fpu\libstdc++_nano.a(eh_call.o) (__cxa_begin_catch)
d:/rt-threadstudio/repo/extract/toolchain_support_packages/arm/gnu_tools_for_arm_embedded_processors/5.4.1/bin/../lib/gcc/arm-none-eabi/5.4.1/../../../../arm-none-eabi/lib/armv7e-m/fpu\libstdc++_nano.a(eh_term_handler.o)
                              d:/rt-threadstudio/repo/extract/toolchain_support_packages/arm/gnu_tools_for_arm_embedded_processors/5.4.1/bin/../lib/gcc/arm-none-eabi/5.4.1/../../../../arm-none-eabi/lib/armv7e-m/fpu\libstdc++_nano.a(eh_terminate.o) (__cxxabiv1::__terminate_handler)
d:/rt-threadstudio/repo/extract/toolchain_support_packages/arm/gnu_tools_for_arm_embedded_processors/5.4.1/bin/../lib/gcc/arm-none-eabi/5.4.1/../../../../arm-none-eabi/lib/armv7e-m/fpu\libstdc++_nano.a(si_class_type_info.o)
                              d:/rt-threadstudio/repo/extract/toolchain_support_packages/arm/gnu_tools_for_arm_embedded_processors/5.4.1/bin/../lib/gcc/arm-none-eabi/5.4.1/../../../../arm-none-eabi/lib/armv7e-m/fpu\libstdc++_nano.a(class_type_info.o) (vtable for __cxxabiv1::__si_class_type_info)
d:/rt-threadstudio/repo/extract/toolchain_support_packages/arm/gnu_tools_for_arm_embedded_processors/5.4.1/bin/../lib/gcc/arm-none-eabi/5.4.1/../../../../arm-none-eabi/lib/armv7e-m/fpu\libstdc++_nano.a(eh_unex_handler.o)
                              d:/rt-threadstudio/repo/extract/toolchain_support_packages/arm/gnu_tools_for_arm_embedded_processors/5.4.1/bin/../lib/gcc/arm-none-eabi/5.4.1/../../../../arm-none-eabi/lib/armv7e-m/fpu\libstdc++_nano.a(eh_terminate.o) (__cxxabiv1::__unexpected_handler)
d:/rt-threadstudio/repo/extract/toolchain_support_packages/arm/gnu_tools_for_arm_embedded_processors/5.4.1/bin/../lib/gcc/arm-none-eabi/5.4.1/../../../../arm-none-eabi/lib/armv7e-m/fpu\libstdc++_nano.a(eh_globals.o)
                              d:/rt-threadstudio/repo/extract/toolchain_support_packages/arm/gnu_tools_for_arm_embedded_processors/5.4.1/bin/../lib/gcc/arm-none-eabi/5.4.1/../../../../arm-none-eabi/lib/armv7e-m/fpu\libstdc++_nano.a(eh_catch.o) (__cxa_get_globals_fast)
d:/rt-threadstudio/repo/extract/toolchain_support_packages/arm/gnu_tools_for_arm_embedded_processors/5.4.1/bin/../lib/gcc/arm-none-eabi/5.4.1/../../../../arm-none-eabi/lib/armv7e-m/fpu\libstdc++_nano.a(eh_exception.o)
                              d:/rt-threadstudio/repo/extract/toolchain_support_packages/arm/gnu_tools_for_arm_embedded_processors/5.4.1/bin/../lib/gcc/arm-none-eabi/5.4.1/../../../../arm-none-eabi/lib/armv7e-m/fpu\libstdc++_nano.a(eh_arm.o) (typeinfo for __cxxabiv1::__forced_unwind)
d:/rt-threadstudio/repo/extract/toolchain_support_packages/arm/gnu_tools_for_arm_embedded_processors/5.4.1/bin/../lib/gcc/arm-none-eabi/5.4.1/../../../../arm-none-eabi/lib/armv7e-m/fpu\libstdc++_nano.a(tinfo.o)
                              d:/rt-threadstudio/repo/extract/toolchain_support_packages/arm/gnu_tools_for_arm_embedded_processors/5.4.1/bin/../lib/gcc/arm-none-eabi/5.4.1/../../../../arm-none-eabi/lib/armv7e-m/fpu\libstdc++_nano.a(class_type_info.o) (std::type_info::~type_info())
d:/rt-threadstudio/repo/extract/toolchain_support_packages/arm/gnu_tools_for_arm_embedded_processors/5.4.1/bin/../lib/gcc/arm-none-eabi/5.4.1/../../../../arm-none-eabi/lib/armv7e-m/fpu\libc_nano.a(lib_a-abort.o)
                              d:/rt-threadstudio/repo/extract/toolchain_support_packages/arm/gnu_tools_for_arm_embedded_processors/5.4.1/bin/../lib/gcc/arm-none-eabi/5.4.1/../../../../arm-none-eabi/lib/armv7e-m/fpu\libstdc++_nano.a(eh_personality.o) (abort)
d:/rt-threadstudio/repo/extract/toolchain_support_packages/arm/gnu_tools_for_arm_embedded_processors/5.4.1/bin/../lib/gcc/arm-none-eabi/5.4.1/../../../../arm-none-eabi/lib/armv7e-m/fpu\libc_nano.a(lib_a-atoi.o)
                              ./rt-thread/components/finsh/msh_file.o (atoi)
d:/rt-threadstudio/repo/extract/toolchain_support_packages/arm/gnu_tools_for_arm_embedded_processors/5.4.1/bin/../lib/gcc/arm-none-eabi/5.4.1/../../../../arm-none-eabi/lib/armv7e-m/fpu\libc_nano.a(lib_a-exit.o)
                              d:/rt-threadstudio/repo/extract/toolchain_support_packages/arm/gnu_tools_for_arm_embedded_processors/5.4.1/bin/../lib/gcc/arm-none-eabi/5.4.1/../../../../arm-none-eabi/lib/armv7e-m/fpu/crt0.o (exit)
d:/rt-threadstudio/repo/extract/toolchain_support_packages/arm/gnu_tools_for_arm_embedded_processors/5.4.1/bin/../lib/gcc/arm-none-eabi/5.4.1/../../../../arm-none-eabi/lib/armv7e-m/fpu\libc_nano.a(lib_a-fclose.o)
                              ./rt-thread/components/libc/compilers/gcc/newlib/stdio.o (fclose)
d:/rt-threadstudio/repo/extract/toolchain_support_packages/arm/gnu_tools_for_arm_embedded_processors/5.4.1/bin/../lib/gcc/arm-none-eabi/5.4.1/../../../../arm-none-eabi/lib/armv7e-m/fpu\libc_nano.a(lib_a-fflush.o)
                              d:/rt-threadstudio/repo/extract/toolchain_support_packages/arm/gnu_tools_for_arm_embedded_processors/5.4.1/bin/../lib/gcc/arm-none-eabi/5.4.1/../../../../arm-none-eabi/lib/armv7e-m/fpu\libc_nano.a(lib_a-fclose.o) (__sflush_r)
d:/rt-threadstudio/repo/extract/toolchain_support_packages/arm/gnu_tools_for_arm_embedded_processors/5.4.1/bin/../lib/gcc/arm-none-eabi/5.4.1/../../../../arm-none-eabi/lib/armv7e-m/fpu\libc_nano.a(lib_a-fileno.o)
                              ./rt-thread/components/libc/compilers/gcc/newlib/stdio.o (fileno)
d:/rt-threadstudio/repo/extract/toolchain_support_packages/arm/gnu_tools_for_arm_embedded_processors/5.4.1/bin/../lib/gcc/arm-none-eabi/5.4.1/../../../../arm-none-eabi/lib/armv7e-m/fpu\libc_nano.a(lib_a-findfp.o)
                              d:/rt-threadstudio/repo/extract/toolchain_support_packages/arm/gnu_tools_for_arm_embedded_processors/5.4.1/bin/../lib/gcc/arm-none-eabi/5.4.1/../../../../arm-none-eabi/lib/armv7e-m/fpu\libc_nano.a(lib_a-fclose.o) (__sinit)
d:/rt-threadstudio/repo/extract/toolchain_support_packages/arm/gnu_tools_for_arm_embedded_processors/5.4.1/bin/../lib/gcc/arm-none-eabi/5.4.1/../../../../arm-none-eabi/lib/armv7e-m/fpu\libc_nano.a(lib_a-fopen.o)
                              ./rt-thread/components/libc/compilers/gcc/newlib/stdio.o (fopen)
d:/rt-threadstudio/repo/extract/toolchain_support_packages/arm/gnu_tools_for_arm_embedded_processors/5.4.1/bin/../lib/gcc/arm-none-eabi/5.4.1/../../../../arm-none-eabi/lib/armv7e-m/fpu\libc_nano.a(lib_a-fseek.o)
                              d:/rt-threadstudio/repo/extract/toolchain_support_packages/arm/gnu_tools_for_arm_embedded_processors/5.4.1/bin/../lib/gcc/arm-none-eabi/5.4.1/../../../../arm-none-eabi/lib/armv7e-m/fpu\libc_nano.a(lib_a-fopen.o) (_fseek_r)
d:/rt-threadstudio/repo/extract/toolchain_support_packages/arm/gnu_tools_for_arm_embedded_processors/5.4.1/bin/../lib/gcc/arm-none-eabi/5.4.1/../../../../arm-none-eabi/lib/armv7e-m/fpu\libc_nano.a(lib_a-fseeko.o)
                              d:/rt-threadstudio/repo/extract/toolchain_support_packages/arm/gnu_tools_for_arm_embedded_processors/5.4.1/bin/../lib/gcc/arm-none-eabi/5.4.1/../../../../arm-none-eabi/lib/armv7e-m/fpu\libc_nano.a(lib_a-fseek.o) (_fseeko_r)
d:/rt-threadstudio/repo/extract/toolchain_support_packages/arm/gnu_tools_for_arm_embedded_processors/5.4.1/bin/../lib/gcc/arm-none-eabi/5.4.1/../../../../arm-none-eabi/lib/armv7e-m/fpu\libc_nano.a(lib_a-fwalk.o)
                              d:/rt-threadstudio/repo/extract/toolchain_support_packages/arm/gnu_tools_for_arm_embedded_processors/5.4.1/bin/../lib/gcc/arm-none-eabi/5.4.1/../../../../arm-none-eabi/lib/armv7e-m/fpu\libc_nano.a(lib_a-findfp.o) (_fwalk)
d:/rt-threadstudio/repo/extract/toolchain_support_packages/arm/gnu_tools_for_arm_embedded_processors/5.4.1/bin/../lib/gcc/arm-none-eabi/5.4.1/../../../../arm-none-eabi/lib/armv7e-m/fpu\libc_nano.a(lib_a-getc.o)
                              ./rt-thread/components/drivers/serial/serial.o (getc)
d:/rt-threadstudio/repo/extract/toolchain_support_packages/arm/gnu_tools_for_arm_embedded_processors/5.4.1/bin/../lib/gcc/arm-none-eabi/5.4.1/../../../../arm-none-eabi/lib/armv7e-m/fpu\libc_nano.a(lib_a-impure.o)
                              ./rt-thread/components/libc/compilers/gcc/newlib/stdio.o (_global_impure_ptr)
d:/rt-threadstudio/repo/extract/toolchain_support_packages/arm/gnu_tools_for_arm_embedded_processors/5.4.1/bin/../lib/gcc/arm-none-eabi/5.4.1/../../../../arm-none-eabi/lib/armv7e-m/fpu\libc_nano.a(lib_a-makebuf.o)
                              d:/rt-threadstudio/repo/extract/toolchain_support_packages/arm/gnu_tools_for_arm_embedded_processors/5.4.1/bin/../lib/gcc/arm-none-eabi/5.4.1/../../../../arm-none-eabi/lib/armv7e-m/fpu\libc_nano.a(lib_a-fseeko.o) (__smakebuf_r)
d:/rt-threadstudio/repo/extract/toolchain_support_packages/arm/gnu_tools_for_arm_embedded_processors/5.4.1/bin/../lib/gcc/arm-none-eabi/5.4.1/../../../../arm-none-eabi/lib/armv7e-m/fpu\libc_nano.a(lib_a-memcmp.o)
                              ./rt-thread/components/finsh/shell.o (memcmp)
d:/rt-threadstudio/repo/extract/toolchain_support_packages/arm/gnu_tools_for_arm_embedded_processors/5.4.1/bin/../lib/gcc/arm-none-eabi/5.4.1/../../../../arm-none-eabi/lib/armv7e-m/fpu\libc_nano.a(lib_a-memcpy-stub.o)
                              ./rt-thread/components/finsh/msh.o (memcpy)
d:/rt-threadstudio/repo/extract/toolchain_support_packages/arm/gnu_tools_for_arm_embedded_processors/5.4.1/bin/../lib/gcc/arm-none-eabi/5.4.1/../../../../arm-none-eabi/lib/armv7e-m/fpu\libc_nano.a(lib_a-memset.o)
                              d:/rt-threadstudio/repo/extract/toolchain_support_packages/arm/gnu_tools_for_arm_embedded_processors/5.4.1/bin/../lib/gcc/arm-none-eabi/5.4.1/../../../../arm-none-eabi/lib/armv7e-m/fpu/crt0.o (memset)
d:/rt-threadstudio/repo/extract/toolchain_support_packages/arm/gnu_tools_for_arm_embedded_processors/5.4.1/bin/../lib/gcc/arm-none-eabi/5.4.1/../../../../arm-none-eabi/lib/armv7e-m/fpu\libc_nano.a(lib_a-putenv.o)
                              ./rt-thread/components/libc/compilers/gcc/newlib/libc.o (putenv)
d:/rt-threadstudio/repo/extract/toolchain_support_packages/arm/gnu_tools_for_arm_embedded_processors/5.4.1/bin/../lib/gcc/arm-none-eabi/5.4.1/../../../../arm-none-eabi/lib/armv7e-m/fpu\libc_nano.a(lib_a-putenv_r.o)
                              d:/rt-threadstudio/repo/extract/toolchain_support_packages/arm/gnu_tools_for_arm_embedded_processors/5.4.1/bin/../lib/gcc/arm-none-eabi/5.4.1/../../../../arm-none-eabi/lib/armv7e-m/fpu\libc_nano.a(lib_a-putenv.o) (_putenv_r)
d:/rt-threadstudio/repo/extract/toolchain_support_packages/arm/gnu_tools_for_arm_embedded_processors/5.4.1/bin/../lib/gcc/arm-none-eabi/5.4.1/../../../../arm-none-eabi/lib/armv7e-m/fpu\libc_nano.a(lib_a-rget.o)
                              ./rt-thread/components/finsh/shell.o (__srget_r)
d:/rt-threadstudio/repo/extract/toolchain_support_packages/arm/gnu_tools_for_arm_embedded_processors/5.4.1/bin/../lib/gcc/arm-none-eabi/5.4.1/../../../../arm-none-eabi/lib/armv7e-m/fpu\libc_nano.a(lib_a-setenv_r.o)
                              d:/rt-threadstudio/repo/extract/toolchain_support_packages/arm/gnu_tools_for_arm_embedded_processors/5.4.1/bin/../lib/gcc/arm-none-eabi/5.4.1/../../../../arm-none-eabi/lib/armv7e-m/fpu\libc_nano.a(lib_a-putenv_r.o) (_setenv_r)
d:/rt-threadstudio/repo/extract/toolchain_support_packages/arm/gnu_tools_for_arm_embedded_processors/5.4.1/bin/../lib/gcc/arm-none-eabi/5.4.1/../../../../arm-none-eabi/lib/armv7e-m/fpu\libc_nano.a(lib_a-setvbuf.o)
                              ./rt-thread/components/libc/compilers/gcc/newlib/stdio.o (setvbuf)
d:/rt-threadstudio/repo/extract/toolchain_support_packages/arm/gnu_tools_for_arm_embedded_processors/5.4.1/bin/../lib/gcc/arm-none-eabi/5.4.1/../../../../arm-none-eabi/lib/armv7e-m/fpu\libc_nano.a(lib_a-signal.o)
                              d:/rt-threadstudio/repo/extract/toolchain_support_packages/arm/gnu_tools_for_arm_embedded_processors/5.4.1/bin/../lib/gcc/arm-none-eabi/5.4.1/../../../../arm-none-eabi/lib/armv7e-m/fpu\libc_nano.a(lib_a-abort.o) (raise)
d:/rt-threadstudio/repo/extract/toolchain_support_packages/arm/gnu_tools_for_arm_embedded_processors/5.4.1/bin/../lib/gcc/arm-none-eabi/5.4.1/../../../../arm-none-eabi/lib/armv7e-m/fpu\libc_nano.a(lib_a-snprintf.o)
                              ./rt-thread/components/libc/compilers/gcc/newlib/stdio.o (snprintf)
d:/rt-threadstudio/repo/extract/toolchain_support_packages/arm/gnu_tools_for_arm_embedded_processors/5.4.1/bin/../lib/gcc/arm-none-eabi/5.4.1/../../../../arm-none-eabi/lib/armv7e-m/fpu\libc_nano.a(lib_a-stdio.o)
                              d:/rt-threadstudio/repo/extract/toolchain_support_packages/arm/gnu_tools_for_arm_embedded_processors/5.4.1/bin/../lib/gcc/arm-none-eabi/5.4.1/../../../../arm-none-eabi/lib/armv7e-m/fpu\libc_nano.a(lib_a-findfp.o) (__sread)
d:/rt-threadstudio/repo/extract/toolchain_support_packages/arm/gnu_tools_for_arm_embedded_processors/5.4.1/bin/../lib/gcc/arm-none-eabi/5.4.1/../../../../arm-none-eabi/lib/armv7e-m/fpu\libc_nano.a(lib_a-strcat.o)
                              ./rt-thread/components/drivers/sensors/sensor.o (strcat)
d:/rt-threadstudio/repo/extract/toolchain_support_packages/arm/gnu_tools_for_arm_embedded_processors/5.4.1/bin/../lib/gcc/arm-none-eabi/5.4.1/../../../../arm-none-eabi/lib/armv7e-m/fpu\libc_nano.a(lib_a-strchr.o)
                              d:/rt-threadstudio/repo/extract/toolchain_support_packages/arm/gnu_tools_for_arm_embedded_processors/5.4.1/bin/../lib/gcc/arm-none-eabi/5.4.1/../../../../arm-none-eabi/lib/armv7e-m/fpu\libc_nano.a(lib_a-putenv_r.o) (strchr)
d:/rt-threadstudio/repo/extract/toolchain_support_packages/arm/gnu_tools_for_arm_embedded_processors/5.4.1/bin/../lib/gcc/arm-none-eabi/5.4.1/../../../../arm-none-eabi/lib/armv7e-m/fpu\libc_nano.a(lib_a-strcmp.o)
                              ./rt-thread/components/net/at/src/at_cli.o (strcmp)
d:/rt-threadstudio/repo/extract/toolchain_support_packages/arm/gnu_tools_for_arm_embedded_processors/5.4.1/bin/../lib/gcc/arm-none-eabi/5.4.1/../../../../arm-none-eabi/lib/armv7e-m/fpu\libc_nano.a(lib_a-strcpy.o)
                              ./rt-thread/components/finsh/msh.o (strcpy)
d:/rt-threadstudio/repo/extract/toolchain_support_packages/arm/gnu_tools_for_arm_embedded_processors/5.4.1/bin/../lib/gcc/arm-none-eabi/5.4.1/../../../../arm-none-eabi/lib/armv7e-m/fpu\libc_nano.a(lib_a-strdup_r.o)
                              d:/rt-threadstudio/repo/extract/toolchain_support_packages/arm/gnu_tools_for_arm_embedded_processors/5.4.1/bin/../lib/gcc/arm-none-eabi/5.4.1/../../../../arm-none-eabi/lib/armv7e-m/fpu\libc_nano.a(lib_a-putenv_r.o) (_strdup_r)
d:/rt-threadstudio/repo/extract/toolchain_support_packages/arm/gnu_tools_for_arm_embedded_processors/5.4.1/bin/../lib/gcc/arm-none-eabi/5.4.1/../../../../arm-none-eabi/lib/armv7e-m/fpu\libc_nano.a(lib_a-strlen.o)
                              ./rt-thread/components/net/at/src/at_client.o (strlen)
d:/rt-threadstudio/repo/extract/toolchain_support_packages/arm/gnu_tools_for_arm_embedded_processors/5.4.1/bin/../lib/gcc/arm-none-eabi/5.4.1/../../../../arm-none-eabi/lib/armv7e-m/fpu\libc_nano.a(lib_a-strncmp.o)
                              ./rt-thread/components/finsh/cmd.o (strncmp)
d:/rt-threadstudio/repo/extract/toolchain_support_packages/arm/gnu_tools_for_arm_embedded_processors/5.4.1/bin/../lib/gcc/arm-none-eabi/5.4.1/../../../../arm-none-eabi/lib/armv7e-m/fpu\libc_nano.a(lib_a-strncpy.o)
                              ./rt-thread/components/finsh/shell.o (strncpy)
d:/rt-threadstudio/repo/extract/toolchain_support_packages/arm/gnu_tools_for_arm_embedded_processors/5.4.1/bin/../lib/gcc/arm-none-eabi/5.4.1/../../../../arm-none-eabi/lib/armv7e-m/fpu\libc_nano.a(lib_a-strrchr.o)
                              ./rt-thread/components/dfs/src/dfs_file.o (strrchr)
d:/rt-threadstudio/repo/extract/toolchain_support_packages/arm/gnu_tools_for_arm_embedded_processors/5.4.1/bin/../lib/gcc/arm-none-eabi/5.4.1/../../../../arm-none-eabi/lib/armv7e-m/fpu\libc_nano.a(lib_a-strstr.o)
                              ./rt-thread/components/net/at/src/at_client.o (strstr)
d:/rt-threadstudio/repo/extract/toolchain_support_packages/arm/gnu_tools_for_arm_embedded_processors/5.4.1/bin/../lib/gcc/arm-none-eabi/5.4.1/../../../../arm-none-eabi/lib/armv7e-m/fpu\libc_nano.a(lib_a-strtol.o)
                              d:/rt-threadstudio/repo/extract/toolchain_support_packages/arm/gnu_tools_for_arm_embedded_processors/5.4.1/bin/../lib/gcc/arm-none-eabi/5.4.1/../../../../arm-none-eabi/lib/armv7e-m/fpu\libc_nano.a(lib_a-atoi.o) (_strtol_r)
d:/rt-threadstudio/repo/extract/toolchain_support_packages/arm/gnu_tools_for_arm_embedded_processors/5.4.1/bin/../lib/gcc/arm-none-eabi/5.4.1/../../../../arm-none-eabi/lib/armv7e-m/fpu\libc_nano.a(lib_a-vsnprintf.o)
                              ./rt-thread/components/net/at/src/at_utils.o (vsnprintf)
d:/rt-threadstudio/repo/extract/toolchain_support_packages/arm/gnu_tools_for_arm_embedded_processors/5.4.1/bin/../lib/gcc/arm-none-eabi/5.4.1/../../../../arm-none-eabi/lib/armv7e-m/fpu\libc_nano.a(lib_a-vsscanf.o)
                              ./rt-thread/components/net/at/src/at_client.o (vsscanf)
d:/rt-threadstudio/repo/extract/toolchain_support_packages/arm/gnu_tools_for_arm_embedded_processors/5.4.1/bin/../lib/gcc/arm-none-eabi/5.4.1/../../../../arm-none-eabi/lib/armv7e-m/fpu\libc_nano.a(lib_a-environ.o)
                              d:/rt-threadstudio/repo/extract/toolchain_support_packages/arm/gnu_tools_for_arm_embedded_processors/5.4.1/bin/../lib/gcc/arm-none-eabi/5.4.1/../../../../arm-none-eabi/lib/armv7e-m/fpu\libc_nano.a(lib_a-setenv_r.o) (environ)
d:/rt-threadstudio/repo/extract/toolchain_support_packages/arm/gnu_tools_for_arm_embedded_processors/5.4.1/bin/../lib/gcc/arm-none-eabi/5.4.1/../../../../arm-none-eabi/lib/armv7e-m/fpu\libc_nano.a(lib_a-envlock.o)
                              d:/rt-threadstudio/repo/extract/toolchain_support_packages/arm/gnu_tools_for_arm_embedded_processors/5.4.1/bin/../lib/gcc/arm-none-eabi/5.4.1/../../../../arm-none-eabi/lib/armv7e-m/fpu\libc_nano.a(lib_a-setenv_r.o) (__env_lock)
d:/rt-threadstudio/repo/extract/toolchain_support_packages/arm/gnu_tools_for_arm_embedded_processors/5.4.1/bin/../lib/gcc/arm-none-eabi/5.4.1/../../../../arm-none-eabi/lib/armv7e-m/fpu\libc_nano.a(lib_a-flags.o)
                              d:/rt-threadstudio/repo/extract/toolchain_support_packages/arm/gnu_tools_for_arm_embedded_processors/5.4.1/bin/../lib/gcc/arm-none-eabi/5.4.1/../../../../arm-none-eabi/lib/armv7e-m/fpu\libc_nano.a(lib_a-fopen.o) (__sflags)
d:/rt-threadstudio/repo/extract/toolchain_support_packages/arm/gnu_tools_for_arm_embedded_processors/5.4.1/bin/../lib/gcc/arm-none-eabi/5.4.1/../../../../arm-none-eabi/lib/armv7e-m/fpu\libc_nano.a(lib_a-getenv_r.o)
                              d:/rt-threadstudio/repo/extract/toolchain_support_packages/arm/gnu_tools_for_arm_embedded_processors/5.4.1/bin/../lib/gcc/arm-none-eabi/5.4.1/../../../../arm-none-eabi/lib/armv7e-m/fpu\libc_nano.a(lib_a-setenv_r.o) (_findenv_r)
d:/rt-threadstudio/repo/extract/toolchain_support_packages/arm/gnu_tools_for_arm_embedded_processors/5.4.1/bin/../lib/gcc/arm-none-eabi/5.4.1/../../../../arm-none-eabi/lib/armv7e-m/fpu\libc_nano.a(lib_a-locale.o)
                              d:/rt-threadstudio/repo/extract/toolchain_support_packages/arm/gnu_tools_for_arm_embedded_processors/5.4.1/bin/../lib/gcc/arm-none-eabi/5.4.1/../../../../arm-none-eabi/lib/armv7e-m/fpu\libc_nano.a(lib_a-strtol.o) (__locale_ctype_ptr_l)
d:/rt-threadstudio/repo/extract/toolchain_support_packages/arm/gnu_tools_for_arm_embedded_processors/5.4.1/bin/../lib/gcc/arm-none-eabi/5.4.1/../../../../arm-none-eabi/lib/armv7e-m/fpu\libc_nano.a(lib_a-malloc.o)
                              d:/rt-threadstudio/repo/extract/toolchain_support_packages/arm/gnu_tools_for_arm_embedded_processors/5.4.1/bin/../lib/gcc/arm-none-eabi/5.4.1/../../../../arm-none-eabi/lib/armv7e-m/fpu\libc_nano.a(lib_a-setvbuf.o) (malloc)
d:/rt-threadstudio/repo/extract/toolchain_support_packages/arm/gnu_tools_for_arm_embedded_processors/5.4.1/bin/../lib/gcc/arm-none-eabi/5.4.1/../../../../arm-none-eabi/lib/armv7e-m/fpu\libc_nano.a(lib_a-mbtowc_r.o)
                              d:/rt-threadstudio/repo/extract/toolchain_support_packages/arm/gnu_tools_for_arm_embedded_processors/5.4.1/bin/../lib/gcc/arm-none-eabi/5.4.1/../../../../arm-none-eabi/lib/armv7e-m/fpu\libc_nano.a(lib_a-locale.o) (__ascii_mbtowc)
d:/rt-threadstudio/repo/extract/toolchain_support_packages/arm/gnu_tools_for_arm_embedded_processors/5.4.1/bin/../lib/gcc/arm-none-eabi/5.4.1/../../../../arm-none-eabi/lib/armv7e-m/fpu\libc_nano.a(lib_a-nano-svfprintf.o)
                              d:/rt-threadstudio/repo/extract/toolchain_support_packages/arm/gnu_tools_for_arm_embedded_processors/5.4.1/bin/../lib/gcc/arm-none-eabi/5.4.1/../../../../arm-none-eabi/lib/armv7e-m/fpu\libc_nano.a(lib_a-snprintf.o) (_svfprintf_r)
d:/rt-threadstudio/repo/extract/toolchain_support_packages/arm/gnu_tools_for_arm_embedded_processors/5.4.1/bin/../lib/gcc/arm-none-eabi/5.4.1/../../../../arm-none-eabi/lib/armv7e-m/fpu\libc_nano.a(lib_a-nano-svfscanf.o)
                              d:/rt-threadstudio/repo/extract/toolchain_support_packages/arm/gnu_tools_for_arm_embedded_processors/5.4.1/bin/../lib/gcc/arm-none-eabi/5.4.1/../../../../arm-none-eabi/lib/armv7e-m/fpu\libc_nano.a(lib_a-vsscanf.o) (__ssvfscanf_r)
d:/rt-threadstudio/repo/extract/toolchain_support_packages/arm/gnu_tools_for_arm_embedded_processors/5.4.1/bin/../lib/gcc/arm-none-eabi/5.4.1/../../../../arm-none-eabi/lib/armv7e-m/fpu\libc_nano.a(lib_a-nano-vfprintf_i.o)
                              d:/rt-threadstudio/repo/extract/toolchain_support_packages/arm/gnu_tools_for_arm_embedded_processors/5.4.1/bin/../lib/gcc/arm-none-eabi/5.4.1/../../../../arm-none-eabi/lib/armv7e-m/fpu\libc_nano.a(lib_a-nano-svfprintf.o) (_printf_i)
d:/rt-threadstudio/repo/extract/toolchain_support_packages/arm/gnu_tools_for_arm_embedded_processors/5.4.1/bin/../lib/gcc/arm-none-eabi/5.4.1/../../../../arm-none-eabi/lib/armv7e-m/fpu\libc_nano.a(lib_a-nano-vfscanf_i.o)
                              d:/rt-threadstudio/repo/extract/toolchain_support_packages/arm/gnu_tools_for_arm_embedded_processors/5.4.1/bin/../lib/gcc/arm-none-eabi/5.4.1/../../../../arm-none-eabi/lib/armv7e-m/fpu\libc_nano.a(lib_a-nano-svfscanf.o) (_scanf_chars)
d:/rt-threadstudio/repo/extract/toolchain_support_packages/arm/gnu_tools_for_arm_embedded_processors/5.4.1/bin/../lib/gcc/arm-none-eabi/5.4.1/../../../../arm-none-eabi/lib/armv7e-m/fpu\libc_nano.a(lib_a-refill.o)
                              d:/rt-threadstudio/repo/extract/toolchain_support_packages/arm/gnu_tools_for_arm_embedded_processors/5.4.1/bin/../lib/gcc/arm-none-eabi/5.4.1/../../../../arm-none-eabi/lib/armv7e-m/fpu\libc_nano.a(lib_a-rget.o) (__srefill_r)
d:/rt-threadstudio/repo/extract/toolchain_support_packages/arm/gnu_tools_for_arm_embedded_processors/5.4.1/bin/../lib/gcc/arm-none-eabi/5.4.1/../../../../arm-none-eabi/lib/armv7e-m/fpu\libc_nano.a(lib_a-sccl.o)
                              d:/rt-threadstudio/repo/extract/toolchain_support_packages/arm/gnu_tools_for_arm_embedded_processors/5.4.1/bin/../lib/gcc/arm-none-eabi/5.4.1/../../../../arm-none-eabi/lib/armv7e-m/fpu\libc_nano.a(lib_a-nano-svfscanf.o) (__sccl)
d:/rt-threadstudio/repo/extract/toolchain_support_packages/arm/gnu_tools_for_arm_embedded_processors/5.4.1/bin/../lib/gcc/arm-none-eabi/5.4.1/../../../../arm-none-eabi/lib/armv7e-m/fpu\libc_nano.a(lib_a-strtoul.o)
                              d:/rt-threadstudio/repo/extract/toolchain_support_packages/arm/gnu_tools_for_arm_embedded_processors/5.4.1/bin/../lib/gcc/arm-none-eabi/5.4.1/../../../../arm-none-eabi/lib/armv7e-m/fpu\libc_nano.a(lib_a-nano-vfscanf_i.o) (_strtoul_r)
d:/rt-threadstudio/repo/extract/toolchain_support_packages/arm/gnu_tools_for_arm_embedded_processors/5.4.1/bin/../lib/gcc/arm-none-eabi/5.4.1/../../../../arm-none-eabi/lib/armv7e-m/fpu\libc_nano.a(lib_a-ungetc.o)
                              d:/rt-threadstudio/repo/extract/toolchain_support_packages/arm/gnu_tools_for_arm_embedded_processors/5.4.1/bin/../lib/gcc/arm-none-eabi/5.4.1/../../../../arm-none-eabi/lib/armv7e-m/fpu\libc_nano.a(lib_a-nano-svfscanf.o) (__submore)
d:/rt-threadstudio/repo/extract/toolchain_support_packages/arm/gnu_tools_for_arm_embedded_processors/5.4.1/bin/../lib/gcc/arm-none-eabi/5.4.1/../../../../arm-none-eabi/lib/armv7e-m/fpu\libc_nano.a(lib_a-wctomb_r.o)
                              d:/rt-threadstudio/repo/extract/toolchain_support_packages/arm/gnu_tools_for_arm_embedded_processors/5.4.1/bin/../lib/gcc/arm-none-eabi/5.4.1/../../../../arm-none-eabi/lib/armv7e-m/fpu\libc_nano.a(lib_a-locale.o) (__ascii_wctomb)
d:/rt-threadstudio/repo/extract/toolchain_support_packages/arm/gnu_tools_for_arm_embedded_processors/5.4.1/bin/../lib/gcc/arm-none-eabi/5.4.1/../../../../arm-none-eabi/lib/armv7e-m/fpu\libc_nano.a(lib_a-ctype_.o)
                              d:/rt-threadstudio/repo/extract/toolchain_support_packages/arm/gnu_tools_for_arm_embedded_processors/5.4.1/bin/../lib/gcc/arm-none-eabi/5.4.1/../../../../arm-none-eabi/lib/armv7e-m/fpu\libc_nano.a(lib_a-locale.o) (_ctype_)
d:/rt-threadstudio/repo/extract/toolchain_support_packages/arm/gnu_tools_for_arm_embedded_processors/5.4.1/bin/../lib/gcc/arm-none-eabi/5.4.1/../../../../arm-none-eabi/lib/armv7e-m/fpu\libc_nano.a(lib_a-memchr.o)
                              d:/rt-threadstudio/repo/extract/toolchain_support_packages/arm/gnu_tools_for_arm_embedded_processors/5.4.1/bin/../lib/gcc/arm-none-eabi/5.4.1/../../../../arm-none-eabi/lib/armv7e-m/fpu\libc_nano.a(lib_a-nano-svfprintf.o) (memchr)
d:/rt-threadstudio/repo/extract/toolchain_support_packages/arm/gnu_tools_for_arm_embedded_processors/5.4.1/bin/../lib/gcc/arm-none-eabi/5.4.1/../../../../arm-none-eabi/lib/armv7e-m/fpu\libc_nano.a(lib_a-memmove.o)
                              d:/rt-threadstudio/repo/extract/toolchain_support_packages/arm/gnu_tools_for_arm_embedded_processors/5.4.1/bin/../lib/gcc/arm-none-eabi/5.4.1/../../../../arm-none-eabi/lib/armv7e-m/fpu\libc_nano.a(lib_a-nano-svfprintf.o) (memmove)
d:/rt-threadstudio/repo/extract/toolchain_support_packages/arm/gnu_tools_for_arm_embedded_processors/5.4.1/bin/../lib/gcc/arm-none-eabi/5.4.1/armv7e-m/fpu\libgcc.a(_arm_addsubdf3.o)
                              ./rt-thread/components/drivers/misc/rt_drv_pwm.o (__aeabi_ui2d)
d:/rt-threadstudio/repo/extract/toolchain_support_packages/arm/gnu_tools_for_arm_embedded_processors/5.4.1/bin/../lib/gcc/arm-none-eabi/5.4.1/armv7e-m/fpu\libgcc.a(_arm_muldivdf3.o)
                              ./rt-thread/components/drivers/misc/rt_drv_pwm.o (__aeabi_dmul)
d:/rt-threadstudio/repo/extract/toolchain_support_packages/arm/gnu_tools_for_arm_embedded_processors/5.4.1/bin/../lib/gcc/arm-none-eabi/5.4.1/armv7e-m/fpu\libgcc.a(_arm_fixdfsi.o)
                              ./rt-thread/components/drivers/misc/rt_drv_pwm.o (__aeabi_d2iz)
d:/rt-threadstudio/repo/extract/toolchain_support_packages/arm/gnu_tools_for_arm_embedded_processors/5.4.1/bin/../lib/gcc/arm-none-eabi/5.4.1/armv7e-m/fpu\libgcc.a(_aeabi_uldivmod.o)
                              ./Libraries/rt_drivers/drv_pwm.o (__aeabi_uldivmod)
d:/rt-threadstudio/repo/extract/toolchain_support_packages/arm/gnu_tools_for_arm_embedded_processors/5.4.1/bin/../lib/gcc/arm-none-eabi/5.4.1/armv7e-m/fpu\libgcc.a(_udivmoddi4.o)
                              d:/rt-threadstudio/repo/extract/toolchain_support_packages/arm/gnu_tools_for_arm_embedded_processors/5.4.1/bin/../lib/gcc/arm-none-eabi/5.4.1/armv7e-m/fpu\libgcc.a(_aeabi_uldivmod.o) (__udivmoddi4)
d:/rt-threadstudio/repo/extract/toolchain_support_packages/arm/gnu_tools_for_arm_embedded_processors/5.4.1/bin/../lib/gcc/arm-none-eabi/5.4.1/armv7e-m/fpu\libgcc.a(unwind-arm.o)
                              ./rt-thread/components/cplusplus/cxx_crt.o (__aeabi_unwind_cpp_pr0)
d:/rt-threadstudio/repo/extract/toolchain_support_packages/arm/gnu_tools_for_arm_embedded_processors/5.4.1/bin/../lib/gcc/arm-none-eabi/5.4.1/armv7e-m/fpu\libgcc.a(libunwind.o)
                              d:/rt-threadstudio/repo/extract/toolchain_support_packages/arm/gnu_tools_for_arm_embedded_processors/5.4.1/bin/../lib/gcc/arm-none-eabi/5.4.1/armv7e-m/fpu\libgcc.a(unwind-arm.o) (restore_core_regs)
d:/rt-threadstudio/repo/extract/toolchain_support_packages/arm/gnu_tools_for_arm_embedded_processors/5.4.1/bin/../lib/gcc/arm-none-eabi/5.4.1/armv7e-m/fpu\libgcc.a(pr-support.o)
                              d:/rt-threadstudio/repo/extract/toolchain_support_packages/arm/gnu_tools_for_arm_embedded_processors/5.4.1/bin/../lib/gcc/arm-none-eabi/5.4.1/armv7e-m/fpu\libgcc.a(unwind-arm.o) (__gnu_unwind_execute)
d:/rt-threadstudio/repo/extract/toolchain_support_packages/arm/gnu_tools_for_arm_embedded_processors/5.4.1/bin/../lib/gcc/arm-none-eabi/5.4.1/armv7e-m/fpu\libgcc.a(_dvmd_tls.o)
                              d:/rt-threadstudio/repo/extract/toolchain_support_packages/arm/gnu_tools_for_arm_embedded_processors/5.4.1/bin/../lib/gcc/arm-none-eabi/5.4.1/armv7e-m/fpu\libgcc.a(_aeabi_uldivmod.o) (__aeabi_ldiv0)

Allocating common symbols
Common symbol       size              file

rt_interrupt_to_thread
                    0x4               ./rt-thread/libcpu/arm/cortex-m4/cpuport.o
RFID                0x10              ./applications/main.o
DMAPTPRxDescToGet   0x4               ./Libraries/N32_Std_Driver/n32g45x_std_periph_driver/src/n32g45x_eth.o
rt_interrupt_from_thread
                    0x4               ./rt-thread/libcpu/arm/cortex-m4/cpuport.o
shell               0x4               ./rt-thread/components/finsh/shell.o
DMARxDescToGet      0x4               ./Libraries/N32_Std_Driver/n32g45x_std_periph_driver/src/n32g45x_eth.o
rt_thread_switch_interrupt_flag
                    0x4               ./rt-thread/libcpu/arm/cortex-m4/cpuport.o
DMATxDescToSet      0x4               ./Libraries/N32_Std_Driver/n32g45x_std_periph_driver/src/n32g45x_eth.o
rt_thread_priority_table
                    0x100             ./rt-thread/src/scheduler.o
serial1             0x64              ./Libraries/rt_drivers/drv_usart.o
rt_object_put_hook  0x4               ./rt-thread/src/object.o
rt_current_priority
                    0x1               ./rt-thread/src/scheduler.o
filesystem_table    0x40              ./rt-thread/components/dfs/src/dfs.o
CT                  0x2               ./applications/main.o
rt_assert_hook      0x4               ./rt-thread/src/kservice.o
rt_object_take_hook
                    0x4               ./rt-thread/src/object.o
rt_thread_ready_priority_group
                    0x4               ./rt-thread/src/scheduler.o
SN                  0x4               ./applications/main.o
pwm_device          0x54              ./Libraries/rt_drivers/drv_pwm.o
filesystem_operation_table
                    0x10              ./rt-thread/components/dfs/src/dfs.o
rt_object_trytake_hook
                    0x4               ./rt-thread/src/object.o
DMAPTPTxDescToSet   0x4               ./Libraries/N32_Std_Driver/n32g45x_std_periph_driver/src/n32g45x_eth.o
value               0x1               ./applications/main.o

Discarded input sections

 .text          0x00000000        0x0 d:/rt-threadstudio/repo/extract/toolchain_support_packages/arm/gnu_tools_for_arm_embedded_processors/5.4.1/bin/../lib/gcc/arm-none-eabi/5.4.1/armv7e-m/fpu/crti.o
 .data          0x00000000        0x0 d:/rt-threadstudio/repo/extract/toolchain_support_packages/arm/gnu_tools_for_arm_embedded_processors/5.4.1/bin/../lib/gcc/arm-none-eabi/5.4.1/armv7e-m/fpu/crti.o
 .bss           0x00000000        0x0 d:/rt-threadstudio/repo/extract/toolchain_support_packages/arm/gnu_tools_for_arm_embedded_processors/5.4.1/bin/../lib/gcc/arm-none-eabi/5.4.1/armv7e-m/fpu/crti.o
 .data          0x00000000        0x4 d:/rt-threadstudio/repo/extract/toolchain_support_packages/arm/gnu_tools_for_arm_embedded_processors/5.4.1/bin/../lib/gcc/arm-none-eabi/5.4.1/armv7e-m/fpu/crtbegin.o
 .fini_array    0x00000000        0x4 d:/rt-threadstudio/repo/extract/toolchain_support_packages/arm/gnu_tools_for_arm_embedded_processors/5.4.1/bin/../lib/gcc/arm-none-eabi/5.4.1/armv7e-m/fpu/crtbegin.o
 .text          0x00000000       0x74 d:/rt-threadstudio/repo/extract/toolchain_support_packages/arm/gnu_tools_for_arm_embedded_processors/5.4.1/bin/../lib/gcc/arm-none-eabi/5.4.1/../../../../arm-none-eabi/lib/armv7e-m/fpu/crt0.o
 .data          0x00000000        0x0 d:/rt-threadstudio/repo/extract/toolchain_support_packages/arm/gnu_tools_for_arm_embedded_processors/5.4.1/bin/../lib/gcc/arm-none-eabi/5.4.1/../../../../arm-none-eabi/lib/armv7e-m/fpu/crt0.o
 .bss           0x00000000        0x0 d:/rt-threadstudio/repo/extract/toolchain_support_packages/arm/gnu_tools_for_arm_embedded_processors/5.4.1/bin/../lib/gcc/arm-none-eabi/5.4.1/../../../../arm-none-eabi/lib/armv7e-m/fpu/crt0.o
 .ARM.extab     0x00000000        0x0 d:/rt-threadstudio/repo/extract/toolchain_support_packages/arm/gnu_tools_for_arm_embedded_processors/5.4.1/bin/../lib/gcc/arm-none-eabi/5.4.1/../../../../arm-none-eabi/lib/armv7e-m/fpu/crt0.o
 .ARM.exidx     0x00000000        0x8 d:/rt-threadstudio/repo/extract/toolchain_support_packages/arm/gnu_tools_for_arm_embedded_processors/5.4.1/bin/../lib/gcc/arm-none-eabi/5.4.1/../../../../arm-none-eabi/lib/armv7e-m/fpu/crt0.o
 .ARM.attributes
                0x00000000       0x20 d:/rt-threadstudio/repo/extract/toolchain_support_packages/arm/gnu_tools_for_arm_embedded_processors/5.4.1/bin/../lib/gcc/arm-none-eabi/5.4.1/../../../../arm-none-eabi/lib/armv7e-m/fpu/crt0.o
 .text          0x00000000        0x0 ./rt-thread/src/clock.o
 .data          0x00000000        0x0 ./rt-thread/src/clock.o
 .bss           0x00000000        0x0 ./rt-thread/src/clock.o
 .text.rt_tick_set
                0x00000000       0x28 ./rt-thread/src/clock.o
 .text.rt_tick_get_millisecond
Memory Configuration

Name             Origin             Length             Attributes
CODE             0x08000000         0x00040000         xr
DATA             0x20000000         0x00010000         rw
*default*        0x00000000         0xffffffff

Linker script and memory map

LOAD d:/rt-threadstudio/repo/extract/toolchain_support_packages/arm/gnu_tools_for_arm_embedded_processors/5.4.1/bin/../lib/gcc/arm-none-eabi/5.4.1/armv7e-m/fpu/crti.o
LOAD d:/rt-threadstudio/repo/extract/toolchain_support_packages/arm/gnu_tools_for_arm_embedded_processors/5.4.1/bin/../lib/gcc/arm-none-eabi/5.4.1/armv7e-m/fpu/crtbegin.o
LOAD d:/rt-threadstudio/repo/extract/toolchain_support_packages/arm/gnu_tools_for_arm_embedded_processors/5.4.1/bin/../lib/gcc/arm-none-eabi/5.4.1/../../../../arm-none-eabi/lib/armv7e-m/fpu/crt0.o
LOAD ./rt-thread/src/clock.o
LOAD ./rt-thread/src/components.o
LOAD ./rt-thread/src/device.o
LOAD ./rt-thread/src/idle.o
LOAD ./rt-thread/src/ipc.o
LOAD ./rt-thread/src/irq.o
LOAD ./rt-thread/src/kservice.o
LOAD ./rt-thread/src/mem.o
LOAD ./rt-thread/src/mempool.o
LOAD ./rt-thread/src/object.o
LOAD ./rt-thread/src/scheduler.o
LOAD ./rt-thread/src/thread.o
LOAD ./rt-thread/src/timer.o
LOAD ./rt-thread/libcpu/arm/cortex-m4/context_gcc.o
LOAD ./rt-thread/libcpu/arm/cortex-m4/cpuport.o
LOAD ./rt-thread/libcpu/arm/common/backtrace.o
LOAD ./rt-thread/libcpu/arm/common/div0.o
LOAD ./rt-thread/libcpu/arm/common/showmem.o
LOAD ./rt-thread/components/net/at/src/at_cli.o
LOAD ./rt-thread/components/net/at/src/at_client.o
LOAD ./rt-thread/components/net/at/src/at_utils.o
LOAD ./rt-thread/components/libc/compilers/gcc/newlib/libc.o
LOAD ./rt-thread/components/libc/compilers/gcc/newlib/stdio.o
LOAD ./rt-thread/components/libc/compilers/gcc/newlib/syscalls.o
LOAD ./rt-thread/components/libc/compilers/common/delay.o
LOAD ./rt-thread/components/libc/compilers/common/stdlib.o
LOAD ./rt-thread/components/libc/compilers/common/time.o
LOAD ./rt-thread/components/libc/compilers/common/unistd.o
LOAD ./rt-thread/components/finsh/cmd.o
LOAD ./rt-thread/components/finsh/msh.o
LOAD ./rt-thread/components/finsh/msh_file.o
LOAD ./rt-thread/components/finsh/shell.o
LOAD ./rt-thread/components/drivers/src/completion.o
LOAD ./rt-thread/components/drivers/src/dataqueue.o
LOAD ./rt-thread/components/drivers/src/pipe.o
LOAD ./rt-thread/components/drivers/src/ringblk_buf.o
LOAD ./rt-thread/components/drivers/src/ringbuffer.o
LOAD ./rt-thread/components/drivers/src/waitqueue.o
LOAD ./rt-thread/components/drivers/src/workqueue.o
LOAD ./rt-thread/components/drivers/spi/spi_core.o
LOAD ./rt-thread/components/drivers/spi/spi_dev.o
LOAD ./rt-thread/components/drivers/serial/serial.o
LOAD ./rt-thread/components/drivers/sensors/sensor.o
LOAD ./rt-thread/components/drivers/sensors/sensor_cmd.o
LOAD ./rt-thread/components/drivers/sdio/block_dev.o
LOAD ./rt-thread/components/drivers/sdio/mmc.o
LOAD ./rt-thread/components/drivers/sdio/mmcsd_core.o
LOAD ./rt-thread/components/drivers/sdio/sd.o
LOAD ./rt-thread/components/drivers/sdio/sdio.o
LOAD ./rt-thread/components/drivers/misc/pin.o
LOAD ./rt-thread/components/drivers/misc/rt_drv_pwm.o
LOAD ./rt-thread/components/drivers/i2c/i2c-bit-ops.o
LOAD ./rt-thread/components/drivers/i2c/i2c_core.o
LOAD ./rt-thread/components/drivers/i2c/i2c_dev.o
LOAD ./rt-thread/components/dfs/src/dfs.o
LOAD ./rt-thread/components/dfs/src/dfs_file.o
LOAD ./rt-thread/components/dfs/src/dfs_fs.o
LOAD ./rt-thread/components/dfs/src/dfs_poll.o
LOAD ./rt-thread/components/dfs/src/dfs_posix.o
LOAD ./rt-thread/components/dfs/src/dfs_select.o
LOAD ./rt-thread/components/dfs/filesystems/devfs/devfs.o
LOAD ./rt-thread/components/cplusplus/cxx_Mutex.o
LOAD ./rt-thread/components/cplusplus/cxx_Semaphore.o
LOAD ./rt-thread/components/cplusplus/cxx_Thread.o
LOAD ./rt-thread/components/cplusplus/cxx_crt.o
LOAD ./rt-thread/components/cplusplus/cxx_crt_init.o
LOAD ./board/msp/n32_msp.o
LOAD ./board/board.o
LOAD ./applications/main.o
LOAD ./applications/motor.o
LOAD ./applications/oled.o
LOAD ./applications/rc522.o
LOAD ./Libraries/rt_drivers/drv_common.o
LOAD ./Libraries/rt_drivers/drv_gpio.o
LOAD ./Libraries/rt_drivers/drv_pwm.o
LOAD ./Libraries/rt_drivers/drv_soft_i2c.o
LOAD ./Libraries/rt_drivers/drv_spi.o
LOAD ./Libraries/rt_drivers/drv_usart.o
LOAD ./Libraries/N32_Std_Driver/n32g45x_std_periph_driver/src/misc.o
LOAD ./Libraries/N32_Std_Driver/n32g45x_std_periph_driver/src/n32g45x_adc.o
LOAD ./Libraries/N32_Std_Driver/n32g45x_std_periph_driver/src/n32g45x_bkp.o
LOAD ./Libraries/N32_Std_Driver/n32g45x_std_periph_driver/src/n32g45x_can.o
LOAD ./Libraries/N32_Std_Driver/n32g45x_std_periph_driver/src/n32g45x_comp.o
LOAD ./Libraries/N32_Std_Driver/n32g45x_std_periph_driver/src/n32g45x_crc.o
LOAD ./Libraries/N32_Std_Driver/n32g45x_std_periph_driver/src/n32g45x_dac.o
LOAD ./Libraries/N32_Std_Driver/n32g45x_std_periph_driver/src/n32g45x_dbg.o
LOAD ./Libraries/N32_Std_Driver/n32g45x_std_periph_driver/src/n32g45x_dma.o
LOAD ./Libraries/N32_Std_Driver/n32g45x_std_periph_driver/src/n32g45x_dvp.o
LOAD ./Libraries/N32_Std_Driver/n32g45x_std_periph_driver/src/n32g45x_eth.o
LOAD ./Libraries/N32_Std_Driver/n32g45x_std_periph_driver/src/n32g45x_exti.o
LOAD ./Libraries/N32_Std_Driver/n32g45x_std_periph_driver/src/n32g45x_flash.o
LOAD ./Libraries/N32_Std_Driver/n32g45x_std_periph_driver/src/n32g45x_gpio.o
LOAD ./Libraries/N32_Std_Driver/n32g45x_std_periph_driver/src/n32g45x_i2c.o
LOAD ./Libraries/N32_Std_Driver/n32g45x_std_periph_driver/src/n32g45x_iwdg.o
LOAD ./Libraries/N32_Std_Driver/n32g45x_std_periph_driver/src/n32g45x_opamp.o
LOAD ./Libraries/N32_Std_Driver/n32g45x_std_periph_driver/src/n32g45x_pwr.o
LOAD ./Libraries/N32_Std_Driver/n32g45x_std_periph_driver/src/n32g45x_qspi.o
LOAD ./Libraries/N32_Std_Driver/n32g45x_std_periph_driver/src/n32g45x_rcc.o
LOAD ./Libraries/N32_Std_Driver/n32g45x_std_periph_driver/src/n32g45x_rtc.o
LOAD ./Libraries/N32_Std_Driver/n32g45x_std_periph_driver/src/n32g45x_sdio.o
LOAD ./Libraries/N32_Std_Driver/n32g45x_std_periph_driver/src/n32g45x_spi.o
LOAD ./Libraries/N32_Std_Driver/n32g45x_std_periph_driver/src/n32g45x_tim.o
LOAD ./Libraries/N32_Std_Driver/n32g45x_std_periph_driver/src/n32g45x_tsc.o
LOAD ./Libraries/N32_Std_Driver/n32g45x_std_periph_driver/src/n32g45x_usart.o
LOAD ./Libraries/N32_Std_Driver/n32g45x_std_periph_driver/src/n32g45x_wwdg.o
LOAD ./Libraries/N32_Std_Driver/n32g45x_std_periph_driver/src/n32g45x_xfmc.o
LOAD ./Libraries/N32_Std_Driver/CMSIS/device/startup/startup_n32g45x_gcc.o
LOAD ./Libraries/N32_Std_Driver/CMSIS/device/system_n32g45x.o
LOAD d:/rt-threadstudio/repo/extract/toolchain_support_packages/arm/gnu_tools_for_arm_embedded_processors/5.4.1/bin/../lib/gcc/arm-none-eabi/5.4.1/../../../../arm-none-eabi/lib/armv7e-m/fpu\libstdc++_nano.a
LOAD d:/rt-threadstudio/repo/extract/toolchain_support_packages/arm/gnu_tools_for_arm_embedded_processors/5.4.1/bin/../lib/gcc/arm-none-eabi/5.4.1/../../../../arm-none-eabi/lib/armv7e-m/fpu\libm.a
LOAD d:/rt-threadstudio/repo/extract/toolchain_support_packages/arm/gnu_tools_for_arm_embedded_processors/5.4.1/bin/../lib/gcc/arm-none-eabi/5.4.1/../../../../arm-none-eabi/lib/armv7e-m/fpu\libc_nano.a
START GROUP
LOAD d:/rt-threadstudio/repo/extract/toolchain_support_packages/arm/gnu_tools_for_arm_embedded_processors/5.4.1/bin/../lib/gcc/arm-none-eabi/5.4.1/armv7e-m/fpu\libgcc.a
LOAD d:/rt-threadstudio/repo/extract/toolchain_support_packages/arm/gnu_tools_for_arm_embedded_processors/5.4.1/bin/../lib/gcc/arm-none-eabi/5.4.1/../../../../arm-none-eabi/lib/armv7e-m/fpu\libc_nano.a
END GROUP
START GROUP
LOAD d:/rt-threadstudio/repo/extract/toolchain_support_packages/arm/gnu_tools_for_arm_embedded_processors/5.4.1/bin/../lib/gcc/arm-none-eabi/5.4.1/armv7e-m/fpu\libgcc.a
LOAD d:/rt-threadstudio/repo/extract/toolchain_support_packages/arm/gnu_tools_for_arm_embedded_processors/5.4.1/bin/../lib/gcc/arm-none-eabi/5.4.1/../../../../arm-none-eabi/lib/armv7e-m/fpu\libc_nano.a
END GROUP
LOAD d:/rt-threadstudio/repo/extract/toolchain_support_packages/arm/gnu_tools_for_arm_embedded_processors/5.4.1/bin/../lib/gcc/arm-none-eabi/5.4.1/armv7e-m/fpu/crtend.o
LOAD d:/rt-threadstudio/repo/extract/toolchain_support_packages/arm/gnu_tools_for_arm_embedded_processors/5.4.1/bin/../lib/gcc/arm-none-eabi/5.4.1/armv7e-m/fpu/crtn.o
                0x00000200                _system_stack_size = 0x200

.text           0x08000000    0x21ad8
                0x08000000                . = ALIGN (0x4)
                0x08000000                _stext = .
 *(.isr_vector)
 .isr_vector    0x08000000      0x188 ./Libraries/N32_Std_Driver/CMSIS/device/startup/startup_n32g45x_gcc.o
                0x08000000                g_pfnVectors
                0x08000188                . = ALIGN (0x4)
 *(.text)
 .text          0x08000188       0x5c d:/rt-threadstudio/repo/extract/toolchain_support_packages/arm/gnu_tools_for_arm_embedded_processors/5.4.1/bin/../lib/gcc/arm-none-eabi/5.4.1/armv7e-m/fpu/crtbegin.o
 .text          0x080001e4      0x13c ./rt-thread/libcpu/arm/cortex-m4/context_gcc.o
                0x080001e4                rt_hw_interrupt_disable
                0x080001ec                rt_hw_interrupt_enable
                0x080001f2                rt_hw_context_switch_interrupt
                0x080001f2                rt_hw_context_switch
                0x08000212                PendSV_Handler
                0x0800027e                rt_hw_context_switch_to
                0x080002c4                rt_hw_interrupt_thread_switch
                0x080002c8                HardFault_Handler
 .text          0x08000320       0x14 d:/rt-threadstudio/repo/extract/toolchain_support_packages/arm/gnu_tools_for_arm_embedded_processors/5.4.1/bin/../lib/gcc/arm-none-eabi/5.4.1/../../../../arm-none-eabi/lib/armv7e-m/fpu\libc_nano.a(lib_a-strcmp.o)
                0x08000320                strcmp
 .text          0x08000334       0x10 d:/rt-threadstudio/repo/extract/toolchain_support_packages/arm/gnu_tools_for_arm_embedded_processors/5.4.1/bin/../lib/gcc/arm-none-eabi/5.4.1/../../../../arm-none-eabi/lib/armv7e-m/fpu\libc_nano.a(lib_a-strlen.o)
                0x08000334                strlen
 *fill*         0x08000344        0xc 00000000
 .text          0x08000350       0xa0 d:/rt-threadstudio/repo/extract/toolchain_support_packages/arm/gnu_tools_for_arm_embedded_processors/5.4.1/bin/../lib/gcc/arm-none-eabi/5.4.1/../../../../arm-none-eabi/lib/armv7e-m/fpu\libc_nano.a(lib_a-memchr.o)
                0x08000350                memchr
 .text          0x080003f0      0x370 d:/rt-threadstudio/repo/extract/toolchain_support_packages/arm/gnu_tools_for_arm_embedded_processors/5.4.1/bin/../lib/gcc/arm-none-eabi/5.4.1/armv7e-m/fpu\libgcc.a(_arm_addsubdf3.o)
                0x080003f0                __aeabi_drsub
                0x080003f8                __aeabi_dsub
                0x080003f8                __subdf3
                0x080003fc                __aeabi_dadd
                0x080003fc                __adddf3
                0x08000674                __floatunsidf
                0x08000674                __aeabi_ui2d
                0x08000694                __floatsidf
                0x08000694                __aeabi_i2d
                0x080006b8                __aeabi_f2d
                0x080006b8                __extendsfdf2
                0x080006f4                __floatundidf
                0x080006f4                __aeabi_ul2d
                0x08000704                __floatdidf
                0x08000704                __aeabi_l2d
 .text          0x08000760      0x424 d:/rt-threadstudio/repo/extract/toolchain_support_packages/arm/gnu_tools_for_arm_embedded_processors/5.4.1/bin/../lib/gcc/arm-none-eabi/5.4.1/armv7e-m/fpu\libgcc.a(_arm_muldivdf3.o)
                0x08000760                __aeabi_dmul
                0x08000760                __muldf3
                0x080009b4                __divdf3
                0x080009b4                __aeabi_ddiv
 .text          0x08000b84       0x50 d:/rt-threadstudio/repo/extract/toolchain_support_packages/arm/gnu_tools_for_arm_embedded_processors/5.4.1/bin/../lib/gcc/arm-none-eabi/5.4.1/armv7e-m/fpu\libgcc.a(_arm_fixdfsi.o)
                0x08000b84                __aeabi_d2iz
                0x08000b84                __fixdfsi
 .text          0x08000bd4       0x30 d:/rt-threadstudio/repo/extract/toolchain_support_packages/arm/gnu_tools_for_arm_embedded_processors/5.4.1/bin/../lib/gcc/arm-none-eabi/5.4.1/armv7e-m/fpu\libgcc.a(_aeabi_uldivmod.o)
                0x08000bd4                __aeabi_uldivmod
 .text          0x08000c04      0x2e4 d:/rt-threadstudio/repo/extract/toolchain_support_packages/arm/gnu_tools_for_arm_embedded_processors/5.4.1/bin/../lib/gcc/arm-none-eabi/5.4.1/armv7e-m/fpu\libgcc.a(_udivmoddi4.o)
                0x08000c04                __udivmoddi4
 .text          0x08000ee8        0x4 d:/rt-threadstudio/repo/extract/toolchain_support_packages/arm/gnu_tools_for_arm_embedded_processors/5.4.1/bin/../lib/gcc/arm-none-eabi/5.4.1/armv7e-m/fpu\libgcc.a(_dvmd_tls.o)
                0x08000ee8                __aeabi_idiv0
                0x08000ee8                __aeabi_ldiv0
 *(.text.*)
 .text.rt_tick_get
                0x08000eec       0x18 ./rt-thread/src/clock.o
                0x08000eec                rt_tick_get
 .text.rt_tick_increase
                0x08000f04       0x6c ./rt-thread/src/clock.o
                0x08000f04                rt_tick_increase
 .text.rt_tick_from_millisecond
                0x08000f70       0x74 ./rt-thread/src/clock.o
                0x08000f70                rt_tick_from_millisecond
 .text.rti_start
                0x08000fe4       0x10 ./rt-thread/src/components.o
 .text.rti_board_start
                0x08000ff4       0x10 ./rt-thread/src/components.o
 .text.rti_board_end
                0x08001004       0x10 ./rt-thread/src/components.o
 .text.rti_end  0x08001014       0x10 ./rt-thread/src/components.o
 .text.rt_components_board_init
                0x08001024       0x30 ./rt-thread/src/components.o
                0x08001024                rt_components_board_init
 .text.rt_components_init
                0x08001054       0x30 ./rt-thread/src/components.o
                0x08001054                rt_components_init
 .text.entry    0x08001084       0x10 ./rt-thread/src/components.o
                0x08001084                entry
 .text.main_thread_entry
                0x08001094       0x18 ./rt-thread/src/components.o
                0x08001094                main_thread_entry
 .text.rt_application_init
                0x080010ac       0x4c ./rt-thread/src/components.o
                0x080010ac                rt_application_init
 .text.rtthread_startup
                0x080010f8       0x30 ./rt-thread/src/components.o
                0x080010f8                rtthread_startup
 .text.rt_list_init
                0x08001128       0x24 ./rt-thread/src/device.o
 .text.rt_wqueue_init
                0x0800114c       0x38 ./rt-thread/src/device.o
 .text.rt_device_register
                0x08001184       0x64 ./rt-thread/src/device.o
                0x08001184                rt_device_register
 .text.rt_device_unregister
                0x080011e8       0x6c ./rt-thread/src/device.o
                0x080011e8                rt_device_unregister
 .text.rt_device_find
                0x08001254       0x1c ./rt-thread/src/device.o
                0x08001254                rt_device_find
 .text.rt_device_open
                0x08001270      0x118 ./rt-thread/src/device.o
                0x08001270                rt_device_open
 .text.rt_device_close
                0x08001388       0x9c ./rt-thread/src/device.o
                0x08001388                rt_device_close
 .text.rt_device_read
                0x08001424       0x88 ./rt-thread/src/device.o
                0x08001424                rt_device_read
 .text.rt_device_write
                0x080014ac       0x88 ./rt-thread/src/device.o
                0x080014ac                rt_device_write
 .text.rt_device_control
                0x08001534       0x68 ./rt-thread/src/device.o
                0x08001534                rt_device_control
 .text.rt_device_set_rx_indicate
                0x0800159c       0x54 ./rt-thread/src/device.o
                0x0800159c                rt_device_set_rx_indicate
 .text.rt_list_insert_after
                0x080015f0       0x34 ./rt-thread/src/idle.o
 .text.rt_list_remove
                0x08001624       0x38 ./rt-thread/src/idle.o
 .text.rt_thread_defunct_enqueue
                0x0800165c       0x20 ./rt-thread/src/idle.o
                0x0800165c                rt_thread_defunct_enqueue
 .text.rt_thread_defunct_dequeue
                0x0800167c       0x38 ./rt-thread/src/idle.o
                0x0800167c                rt_thread_defunct_dequeue
 .text.rt_defunct_execute
                0x080016b4       0xac ./rt-thread/src/idle.o
 .text.rt_thread_idle_entry
                0x08001760       0x38 ./rt-thread/src/idle.o
 .text.rt_thread_idle_init
                0x08001798       0x74 ./rt-thread/src/idle.o
                0x08001798                rt_thread_idle_init
 .text.rt_list_init
                0x0800180c       0x24 ./rt-thread/src/ipc.o
 .text.rt_list_insert_before
                0x08001830       0x34 ./rt-thread/src/ipc.o
 .text.rt_list_isempty
                0x08001864       0x24 ./rt-thread/src/ipc.o
 .text._ipc_object_init
                0x08001888       0x1c ./rt-thread/src/ipc.o
 .text._ipc_list_suspend
                0x080018a4       0xa4 ./rt-thread/src/ipc.o
 .text._ipc_list_resume
                0x08001948       0x20 ./rt-thread/src/ipc.o
 .text._ipc_list_resume_all
                0x08001968       0x48 ./rt-thread/src/ipc.o
 .text.rt_sem_init
                0x080019b0       0x6c ./rt-thread/src/ipc.o
                0x080019b0                rt_sem_init
 .text.rt_sem_detach
                0x08001a1c       0x7c ./rt-thread/src/ipc.o
                0x08001a1c                rt_sem_detach
 .text.rt_sem_create
                0x08001a98       0x90 ./rt-thread/src/ipc.o
                0x08001a98                rt_sem_create
 .text.rt_sem_delete
                0x08001b28       0xac ./rt-thread/src/ipc.o
                0x08001b28                rt_sem_delete
 .text.rt_sem_take
                0x08001bd4      0x160 ./rt-thread/src/ipc.o
                0x08001bd4                rt_sem_take
 .text.rt_sem_release
                0x08001d34       0xbc ./rt-thread/src/ipc.o
                0x08001d34                rt_sem_release
 .text.rt_sem_control
                0x08001df0       0x84 ./rt-thread/src/ipc.o
                0x08001df0                rt_sem_control
 .text.rt_mutex_init
                0x08001e74       0x64 ./rt-thread/src/ipc.o
                0x08001e74                rt_mutex_init
 .text.rt_mutex_take
                0x08001ed8      0x1ec ./rt-thread/src/ipc.o
                0x08001ed8                rt_mutex_take
 .text.rt_mutex_release
                0x080020c4      0x1bc ./rt-thread/src/ipc.o
                0x080020c4                rt_mutex_release
 .text.rt_mb_init
                0x08002280       0x78 ./rt-thread/src/ipc.o
                0x08002280                rt_mb_init
 .text.rt_mb_send_wait
                0x080022f8      0x224 ./rt-thread/src/ipc.o
                0x080022f8                rt_mb_send_wait
 .text.rt_mb_send
                0x0800251c       0x20 ./rt-thread/src/ipc.o
                0x0800251c                rt_mb_send
 .text.rt_mb_recv
                0x0800253c      0x23c ./rt-thread/src/ipc.o
                0x0800253c                rt_mb_recv
 .text.rt_interrupt_enter
                0x08002778       0x40 ./rt-thread/src/irq.o
                0x08002778                rt_interrupt_enter
 .text.rt_interrupt_leave
                0x080027b8       0x40 ./rt-thread/src/irq.o
                0x080027b8                rt_interrupt_leave
 .text.rt_interrupt_get_nest
                0x080027f8       0x28 ./rt-thread/src/irq.o
                0x080027f8                rt_interrupt_get_nest
 .text.rt_set_errno
                0x08002820       0x40 ./rt-thread/src/kservice.o
                0x08002820                rt_set_errno
 .text._rt_errno
                0x08002860       0x34 ./rt-thread/src/kservice.o
                0x08002860                _rt_errno
 .text.rt_memset
                0x08002894       0xb8 ./rt-thread/src/kservice.o
                0x08002894                rt_memset
 .text.rt_memcpy
                0x0800294c       0xd4 ./rt-thread/src/kservice.o
                0x0800294c                rt_memcpy
 .text.rt_memmove
                0x08002a20       0x84 ./rt-thread/src/kservice.o
                0x08002a20                rt_memmove
 .text.rt_strncpy
                0x08002aa4       0x64 ./rt-thread/src/kservice.o
                0x08002aa4                rt_strncpy
 .text.rt_strncmp
                0x08002b08       0x4c ./rt-thread/src/kservice.o
                0x08002b08                rt_strncmp
 .text.rt_strcmp
                0x08002b54       0x44 ./rt-thread/src/kservice.o
                0x08002b54                rt_strcmp
 .text.rt_strlen
                0x08002b98       0x30 ./rt-thread/src/kservice.o
                0x08002b98                rt_strlen
 .text.rt_strdup
                0x08002bc8       0x3c ./rt-thread/src/kservice.o
                0x08002bc8                rt_strdup
 .text.rt_show_version
                0x08002c04       0x4c ./rt-thread/src/kservice.o
                0x08002c04                rt_show_version
 .text.divide   0x08002c50       0x68 ./rt-thread/src/kservice.o
 .text.skip_atoi
                0x08002cb8       0x40 ./rt-thread/src/kservice.o
 .text.print_number
                0x08002cf8      0x1dc ./rt-thread/src/kservice.o
 .text.rt_vsnprintf
                0x08002ed4      0x560 ./rt-thread/src/kservice.o
                0x08002ed4                rt_vsnprintf
 .text.rt_snprintf
                0x08003434       0x30 ./rt-thread/src/kservice.o
                0x08003434                rt_snprintf
 .text.rt_vsprintf
                0x08003464       0x24 ./rt-thread/src/kservice.o
                0x08003464                rt_vsprintf
 .text.rt_sprintf
                0x08003488       0x2c ./rt-thread/src/kservice.o
                0x08003488                rt_sprintf
 .text.rt_console_get_device
                0x080034b4       0x18 ./rt-thread/src/kservice.o
                0x080034b4                rt_console_get_device
 .text.rt_console_set_device
                0x080034cc       0x58 ./rt-thread/src/kservice.o
                0x080034cc                rt_console_set_device
 .text.rt_hw_console_output
                0x08003524       0x14 ./rt-thread/src/kservice.o
                0x08003524                rt_hw_console_output
 .text.rt_kprintf
                0x08003538       0x5c ./rt-thread/src/kservice.o
                0x08003538                rt_kprintf
 .text.__rt_ffs
                0x08003594       0x70 ./rt-thread/src/kservice.o
                0x08003594                __rt_ffs
 .text.rt_assert_handler
                0x08003604       0x4c ./rt-thread/src/kservice.o
                0x08003604                rt_assert_handler
 .text.plug_holes
                0x08003650      0x100 ./rt-thread/src/mem.o
 .text.rt_system_heap_init
                0x08003750      0x118 ./rt-thread/src/mem.o
                0x08003750                rt_system_heap_init
 .text.rt_malloc
                0x08003868      0x294 ./rt-thread/src/mem.o
                0x08003868                rt_malloc
 .text.rt_realloc
                0x08003afc      0x1ac ./rt-thread/src/mem.o
                0x08003afc                rt_realloc
 .text.rt_calloc
                0x08003ca8       0x3c ./rt-thread/src/mem.o
                0x08003ca8                rt_calloc
 .text.rt_free  0x08003ce4      0x188 ./rt-thread/src/mem.o
                0x08003ce4                rt_free
 .text.list_mem
                0x08003e6c       0x44 ./rt-thread/src/mem.o
                0x08003e6c                list_mem
 .text.rt_list_insert_after
                0x08003eb0       0x34 ./rt-thread/src/object.o
 .text.rt_list_remove
                0x08003ee4       0x38 ./rt-thread/src/object.o
 .text.rt_object_get_information
                0x08003f1c       0x48 ./rt-thread/src/object.o
                0x08003f1c                rt_object_get_information
 .text.rt_object_init
                0x08003f64       0xcc ./rt-thread/src/object.o
                0x08003f64                rt_object_init
 .text.rt_object_detach
                0x08004030       0x5c ./rt-thread/src/object.o
                0x08004030                rt_object_detach
 .text.rt_object_allocate
                0x0800408c       0xd8 ./rt-thread/src/object.o
                0x0800408c                rt_object_allocate
 .text.rt_object_delete
                0x08004164       0x7c ./rt-thread/src/object.o
                0x08004164                rt_object_delete
 .text.rt_object_is_systemobject
                0x080041e0       0x3c ./rt-thread/src/object.o
                0x080041e0                rt_object_is_systemobject
 .text.rt_object_get_type
                0x0800421c       0x34 ./rt-thread/src/object.o
                0x0800421c                rt_object_get_type
 .text.rt_object_find
                0x08004250       0xb4 ./rt-thread/src/object.o
                0x08004250                rt_object_find
 .text.rt_list_init
                0x08004304       0x24 ./rt-thread/src/scheduler.o
 .text.rt_list_insert_before
                0x08004328       0x34 ./rt-thread/src/scheduler.o
 .text.rt_list_remove
                0x0800435c       0x38 ./rt-thread/src/scheduler.o
 .text.rt_list_isempty
                0x08004394       0x24 ./rt-thread/src/scheduler.o
 .text._rt_scheduler_stack_check
                0x080043b8       0x94 ./rt-thread/src/scheduler.o
 .text._scheduler_get_highest_priority_thread
                0x0800444c       0x38 ./rt-thread/src/scheduler.o
 .text.rt_system_scheduler_init
                0x08004484       0x38 ./rt-thread/src/scheduler.o
                0x08004484                rt_system_scheduler_init
 .text.rt_system_scheduler_start
                0x080044bc       0x38 ./rt-thread/src/scheduler.o
                0x080044bc                rt_system_scheduler_start
 .text.rt_schedule
                0x080044f4      0x19c ./rt-thread/src/scheduler.o
                0x080044f4                rt_schedule
 .text.rt_schedule_insert_thread
                0x08004690       0xac ./rt-thread/src/scheduler.o
                0x08004690                rt_schedule_insert_thread
 .text.rt_schedule_remove_thread
                0x0800473c       0x70 ./rt-thread/src/scheduler.o
                0x0800473c                rt_schedule_remove_thread
 .text.rt_enter_critical
                0x080047ac       0x2c ./rt-thread/src/scheduler.o
                0x080047ac                rt_enter_critical
 .text.rt_exit_critical
                0x080047d8       0x54 ./rt-thread/src/scheduler.o
                0x080047d8                rt_exit_critical
 .text.rt_list_init
                0x0800482c       0x24 ./rt-thread/src/thread.o
 .text.rt_list_remove
                0x08004850       0x38 ./rt-thread/src/thread.o
 .text._thread_cleanup_execute
                0x08004888       0x2c ./rt-thread/src/thread.o
 .text._thread_exit
                0x080048b4       0x5c ./rt-thread/src/thread.o
 .text._thread_init
                0x08004910       0xf8 ./rt-thread/src/thread.o
 .text.rt_thread_init
                0x08004a08       0x70 ./rt-thread/src/thread.o
                0x08004a08                rt_thread_init
 .text.rt_thread_self
                0x08004a78       0x18 ./rt-thread/src/thread.o
                0x08004a78                rt_thread_self
 .text.rt_thread_startup
                0x08004a90       0xa0 ./rt-thread/src/thread.o
                0x08004a90                rt_thread_startup
 .text.rt_thread_detach
                0x08004b30       0xc8 ./rt-thread/src/thread.o
                0x08004b30                rt_thread_detach
 .text.rt_thread_create
                0x08004bf8       0x64 ./rt-thread/src/thread.o
                0x08004bf8                rt_thread_create
 .text.rt_thread_delete
                0x08004c5c       0xb4 ./rt-thread/src/thread.o
                0x08004c5c                rt_thread_delete
 .text.rt_thread_sleep
                0x08004d10       0x8c ./rt-thread/src/thread.o
                0x08004d10                rt_thread_sleep
 .text.rt_thread_delay
                0x08004d9c       0x18 ./rt-thread/src/thread.o
                0x08004d9c                rt_thread_delay
 .text.rt_thread_mdelay
                0x08004db4       0x20 ./rt-thread/src/thread.o
                0x08004db4                rt_thread_mdelay
 .text.rt_thread_udelay
                0x08004dd4       0x24 ./rt-thread/src/thread.o
                0x08004dd4                rt_thread_udelay
 .text.rt_thread_control
                0x08004df8       0xf0 ./rt-thread/src/thread.o
                0x08004df8                rt_thread_control
 .text.rt_thread_suspend
                0x08004ee8       0xcc ./rt-thread/src/thread.o
                0x08004ee8                rt_thread_suspend
 .text.rt_thread_resume
                0x08004fb4       0x98 ./rt-thread/src/thread.o
                0x08004fb4                rt_thread_resume
 .text.rt_thread_timeout
                0x0800504c       0x90 ./rt-thread/src/thread.o
                0x0800504c                rt_thread_timeout
 .text.rt_thread_find
                0x080050dc       0x1c ./rt-thread/src/thread.o
                0x080050dc                rt_thread_find
 .text.rt_list_init
                0x080050f8       0x24 ./rt-thread/src/timer.o
 .text.rt_list_insert_after
                0x0800511c       0x34 ./rt-thread/src/timer.o
 .text.rt_list_remove
                0x08005150       0x38 ./rt-thread/src/timer.o
 .text.rt_list_isempty
                0x08005188       0x24 ./rt-thread/src/timer.o
 .text._timer_init
                0x080051ac       0x68 ./rt-thread/src/timer.o
 .text._timer_list_next_timeout
                0x08005214       0x40 ./rt-thread/src/timer.o
 .text._timer_remove
                0x08005254       0x34 ./rt-thread/src/timer.o
 .text.rt_timer_init
                0x08005288       0x4c ./rt-thread/src/timer.o
                0x08005288                rt_timer_init
 .text.rt_timer_detach
                0x080052d4       0x90 ./rt-thread/src/timer.o
                0x080052d4                rt_timer_detach
 .text.rt_timer_start
                0x08005364      0x244 ./rt-thread/src/timer.o
                0x08005364                rt_timer_start
 .text.rt_timer_stop
                0x080055a8       0x94 ./rt-thread/src/timer.o
                0x080055a8                rt_timer_stop
 .text.rt_timer_control
                0x0800563c       0xd0 ./rt-thread/src/timer.o
                0x0800563c                rt_timer_control
 .text.rt_timer_check
                0x0800570c      0x108 ./rt-thread/src/timer.o
                0x0800570c                rt_timer_check
 .text.rt_soft_timer_check
                0x08005814      0x120 ./rt-thread/src/timer.o
                0x08005814                rt_soft_timer_check
 .text._timer_thread_entry
                0x08005934       0x58 ./rt-thread/src/timer.o
 .text.rt_system_timer_init
                0x0800598c       0x34 ./rt-thread/src/timer.o
                0x0800598c                rt_system_timer_init
 .text.rt_system_timer_thread_init
                0x080059c0       0x68 ./rt-thread/src/timer.o
                0x080059c0                rt_system_timer_thread_init
 .text.rt_hw_stack_init
                0x08005a28       0x90 ./rt-thread/libcpu/arm/cortex-m4/cpuport.o
                0x08005a28                rt_hw_stack_init
 .text.usage_fault_track
                0x08005ab8       0xc4 ./rt-thread/libcpu/arm/cortex-m4/cpuport.o
 .text.bus_fault_track
                0x08005b7c       0xcc ./rt-thread/libcpu/arm/cortex-m4/cpuport.o
 .text.mem_manage_fault_track
                0x08005c48       0xb4 ./rt-thread/libcpu/arm/cortex-m4/cpuport.o
 .text.hard_fault_track
                0x08005cfc       0x78 ./rt-thread/libcpu/arm/cortex-m4/cpuport.o
 .text.rt_hw_hard_fault_exception
                0x08005d74      0x184 ./rt-thread/libcpu/arm/cortex-m4/cpuport.o
                0x08005d74                rt_hw_hard_fault_exception
 .text.rt_hw_cpu_reset
                0x08005ef8       0x1c ./rt-thread/libcpu/arm/cortex-m4/cpuport.o
                0x08005ef8                rt_hw_cpu_reset
 .text.console_getchar
                0x08005f14       0x30 ./rt-thread/components/net/at/src/at_cli.o
 .text.console_getchar_rx_ind
                0x08005f44       0x5c ./rt-thread/components/net/at/src/at_cli.o
 .text.at_cli_init
                0x08005fa0       0x80 ./rt-thread/components/net/at/src/at_cli.o
                0x08005fa0                at_cli_init
 .text.at_cli_deinit
                0x08006020       0x58 ./rt-thread/components/net/at/src/at_cli.o
                0x08006020                at_cli_deinit
 .text.client_getchar
                0x08006078       0x30 ./rt-thread/components/net/at/src/at_cli.o
 .text.at_client_entry
                0x080060a8       0x20 ./rt-thread/components/net/at/src/at_cli.o
 .text.client_getchar_rx_ind
                0x080060c8       0x5c ./rt-thread/components/net/at/src/at_cli.o
 .text.client_cli_parser
                0x08006124      0x1d0 ./rt-thread/components/net/at/src/at_cli.o
 .text.at       0x080062f4       0xc0 ./rt-thread/components/net/at/src/at_cli.o
 .text.at_obj_exec_cmd
                0x080063b4      0x174 ./rt-thread/components/net/at/src/at_client.o
                0x080063b4                at_obj_exec_cmd
 .text.at_client_get
                0x08006528       0x70 ./rt-thread/components/net/at/src/at_client.o
                0x08006528                at_client_get
 .text.at_client_get_first
                0x08006598       0x20 ./rt-thread/components/net/at/src/at_client.o
                0x08006598                at_client_get_first
 .text.at_get_last_cmd
                0x080065b8       0x28 ./rt-thread/components/net/at/src/at_utils.o
                0x080065b8                at_get_last_cmd
 .text.at_utils_send
                0x080065e0       0x24 ./rt-thread/components/net/at/src/at_utils.o
                0x080065e0                at_utils_send
 .text.at_vprintfln
                0x08006604       0x6c ./rt-thread/components/net/at/src/at_utils.o
                0x08006604                at_vprintfln
 .text.libc_system_init
                0x08006670       0x3c ./rt-thread/components/libc/compilers/gcc/newlib/libc.o
                0x08006670                libc_system_init
 .text.libc_stdio_set_console
                0x080066ac      0x100 ./rt-thread/components/libc/compilers/gcc/newlib/stdio.o
                0x080066ac                libc_stdio_set_console
 .text.libc_stdio_get_console
                0x080067ac       0x28 ./rt-thread/components/libc/compilers/gcc/newlib/stdio.o
                0x080067ac                libc_stdio_get_console
 .text._malloc_r
                0x080067d4       0x28 ./rt-thread/components/libc/compilers/gcc/newlib/syscalls.o
                0x080067d4                _malloc_r
 .text._realloc_r
                0x080067fc       0x2c ./rt-thread/components/libc/compilers/gcc/newlib/syscalls.o
                0x080067fc                _realloc_r
 .text._free_r  0x08006828       0x18 ./rt-thread/components/libc/compilers/gcc/newlib/syscalls.o
                0x08006828                _free_r
 .text.__errno  0x08006840       0x10 ./rt-thread/components/libc/compilers/gcc/newlib/syscalls.o
                0x08006840                __errno
 .text._close_r
                0x08006850       0x1c ./rt-thread/components/libc/compilers/gcc/newlib/syscalls.o
                0x08006850                _close_r
 .text._fstat_r
                0x0800686c       0x24 ./rt-thread/components/libc/compilers/gcc/newlib/syscalls.o
                0x0800686c                _fstat_r
 .text._isatty_r
                0x08006890       0x28 ./rt-thread/components/libc/compilers/gcc/newlib/syscalls.o
                0x08006890                _isatty_r
 .text._lseek_r
                0x080068b8       0x24 ./rt-thread/components/libc/compilers/gcc/newlib/syscalls.o
                0x080068b8                _lseek_r
 .text._open_r  0x080068dc       0x24 ./rt-thread/components/libc/compilers/gcc/newlib/syscalls.o
                0x080068dc                _open_r
 .text._read_r  0x08006900       0x58 ./rt-thread/components/libc/compilers/gcc/newlib/syscalls.o
                0x08006900                _read_r
 .text._write_r
                0x08006958       0x58 ./rt-thread/components/libc/compilers/gcc/newlib/syscalls.o
                0x08006958                _write_r
 .text.rt_list_isempty
                0x080069b0       0x24 ./rt-thread/components/finsh/cmd.o
 .text.rt_list_len
                0x080069d4       0x38 ./rt-thread/components/finsh/cmd.o
 .text.hello    0x08006a0c       0x14 ./rt-thread/components/finsh/cmd.o
                0x08006a0c                hello
 .text.clear    0x08006a20       0x14 ./rt-thread/components/finsh/cmd.o
 .text.version  0x08006a34       0x10 ./rt-thread/components/finsh/cmd.o
                0x08006a34                version
 .text.object_split
                0x08006a44       0x28 ./rt-thread/components/finsh/cmd.o
 .text.list_find_init
                0x08006a6c       0x48 ./rt-thread/components/finsh/cmd.o
 .text.list_get_next
                0x08006ab4       0xc8 ./rt-thread/components/finsh/cmd.o
 .text.list_thread
                0x08006b7c      0x208 ./rt-thread/components/finsh/cmd.o
                0x08006b7c                list_thread
 .text.show_wait_queue
                0x08006d84       0x50 ./rt-thread/components/finsh/cmd.o
 .text.list_sem
                0x08006dd4      0x12c ./rt-thread/components/finsh/cmd.o
                0x08006dd4                list_sem
 .text.list_event
                0x08006f00      0x118 ./rt-thread/components/finsh/cmd.o
                0x08006f00                list_event
 .text.list_mutex
                0x08007018       0xe8 ./rt-thread/components/finsh/cmd.o
                0x08007018                list_mutex
 .text.list_mailbox
                0x08007100      0x13c ./rt-thread/components/finsh/cmd.o
                0x08007100                list_mailbox
 .text.list_msgqueue
                0x0800723c      0x12c ./rt-thread/components/finsh/cmd.o
                0x0800723c                list_msgqueue
 .text.list_mempool
                0x08007368      0x144 ./rt-thread/components/finsh/cmd.o
                0x08007368                list_mempool
 .text.list_timer
                0x080074ac      0x108 ./rt-thread/components/finsh/cmd.o
                0x080074ac                list_timer
 .text.list_device
                0x080075b4       0xf0 ./rt-thread/components/finsh/cmd.o
                0x080075b4                list_device
 .text.list     0x080076a4       0x6c ./rt-thread/components/finsh/cmd.o
                0x080076a4                list
 .text.msh_help
                0x08007710       0x5c ./rt-thread/components/finsh/msh.o
                0x08007710                msh_help
 .text.cmd_ps   0x0800776c       0x18 ./rt-thread/components/finsh/msh.o
                0x0800776c                cmd_ps
 .text.cmd_free
                0x08007784       0x18 ./rt-thread/components/finsh/msh.o
                0x08007784                cmd_free
 .text.msh_split
                0x0800779c      0x170 ./rt-thread/components/finsh/msh.o
 .text.msh_get_cmd
                0x0800790c       0x64 ./rt-thread/components/finsh/msh.o
 .text._msh_exec_cmd
                0x08007970       0xd4 ./rt-thread/components/finsh/msh.o
 .text.msh_exec
                0x08007a44       0xa0 ./rt-thread/components/finsh/msh.o
                0x08007a44                msh_exec
 .text.str_common
                0x08007ae4       0x4c ./rt-thread/components/finsh/msh.o
 .text.msh_auto_complete_path
                0x08007b30      0x228 ./rt-thread/components/finsh/msh.o
                0x08007b30                msh_auto_complete_path
 .text.msh_auto_complete
                0x08007d58       0xe4 ./rt-thread/components/finsh/msh.o
                0x08007d58                msh_auto_complete
 .text.msh_readline
                0x08007e3c       0xa4 ./rt-thread/components/finsh/msh_file.o
 .text.msh_exec_script
                0x08007ee0      0x17c ./rt-thread/components/finsh/msh_file.o
                0x08007ee0                msh_exec_script
 .text.cmd_ls   0x0800805c       0x34 ./rt-thread/components/finsh/msh_file.o
 .text.cmd_cp   0x08008090       0x44 ./rt-thread/components/finsh/msh_file.o
 .text.cmd_mv   0x080080d4      0x138 ./rt-thread/components/finsh/msh_file.o
 .text.cmd_cat  0x0800820c       0x58 ./rt-thread/components/finsh/msh_file.o
 .text.directory_delete_for_msh
                0x08008264      0x13c ./rt-thread/components/finsh/msh_file.o
 .text.cmd_rm   0x080083a0      0x1c4 ./rt-thread/components/finsh/msh_file.o
 .text.cmd_cd   0x08008564       0x58 ./rt-thread/components/finsh/msh_file.o
 .text.cmd_pwd  0x080085bc       0x24 ./rt-thread/components/finsh/msh_file.o
 .text.cmd_mkdir
                0x080085e0       0x40 ./rt-thread/components/finsh/msh_file.o
 .text.cmd_mkfs
                0x08008620       0x90 ./rt-thread/components/finsh/msh_file.o
 .text.cmd_mount
                0x080086b0       0xe0 ./rt-thread/components/finsh/msh_file.o
 .text.cmd_umount
                0x08008790       0x64 ./rt-thread/components/finsh/msh_file.o
 .text.cmd_df   0x080087f4       0x70 ./rt-thread/components/finsh/msh_file.o
 .text.cmd_echo
                0x08008864       0x94 ./rt-thread/components/finsh/msh_file.o
 .text.cmd_tail
                0x080088f8      0x1b0 ./rt-thread/components/finsh/msh_file.o
 .text.finsh_get_prompt
                0x08008aa8       0x9c ./rt-thread/components/finsh/shell.o
                0x08008aa8                finsh_get_prompt
 .text.finsh_set_prompt_mode
                0x08008b44       0x48 ./rt-thread/components/finsh/shell.o
                0x08008b44                finsh_set_prompt_mode
 .text.finsh_getchar
                0x08008b8c       0x44 ./rt-thread/components/finsh/shell.o
                0x08008b8c                finsh_getchar
 .text.shell_auto_complete
                0x08008bd0       0x34 ./rt-thread/components/finsh/shell.o
 .text.shell_handle_history
                0x08008c04       0x34 ./rt-thread/components/finsh/shell.o
 .text.shell_push_history
                0x08008c38      0x160 ./rt-thread/components/finsh/shell.o
 .text.finsh_thread_entry
                0x08008d98      0x5b0 ./rt-thread/components/finsh/shell.o
                0x08008d98                finsh_thread_entry
 .text.finsh_system_function_init
                0x08009348       0x2c ./rt-thread/components/finsh/shell.o
                0x08009348                finsh_system_function_init
 .text.finsh_system_init
                0x08009374       0x9c ./rt-thread/components/finsh/shell.o
                0x08009374                finsh_system_init
 .text.rt_list_init
                0x08009410       0x24 ./rt-thread/components/drivers/src/completion.o
 .text.rt_list_insert_before
                0x08009434       0x34 ./rt-thread/components/drivers/src/completion.o
 .text.rt_list_isempty
                0x08009468       0x24 ./rt-thread/components/drivers/src/completion.o
 .text.rt_completion_init
                0x0800948c       0x44 ./rt-thread/components/drivers/src/completion.o
                0x0800948c                rt_completion_init
 .text.rt_completion_wait
                0x080094d0       0xfc ./rt-thread/components/drivers/src/completion.o
                0x080094d0                rt_completion_wait
 .text.rt_completion_done
                0x080095cc       0x70 ./rt-thread/components/drivers/src/completion.o
                0x080095cc                rt_completion_done
 .text.rt_list_init
                0x0800963c       0x24 ./rt-thread/components/drivers/src/dataqueue.o
 .text.rt_list_insert_before
                0x08009660       0x34 ./rt-thread/components/drivers/src/dataqueue.o
 .text.rt_list_isempty
                0x08009694       0x24 ./rt-thread/components/drivers/src/dataqueue.o
 .text.rt_data_queue_init
                0x080096b8       0xc0 ./rt-thread/components/drivers/src/dataqueue.o
                0x080096b8                rt_data_queue_init
 .text.rt_data_queue_push
                0x08009778      0x1ec ./rt-thread/components/drivers/src/dataqueue.o
                0x08009778                rt_data_queue_push
 .text.rt_data_queue_pop
                0x08009964      0x248 ./rt-thread/components/drivers/src/dataqueue.o
                0x08009964                rt_data_queue_pop
 .text.rt_data_queue_peek
                0x08009bac       0xa4 ./rt-thread/components/drivers/src/dataqueue.o
                0x08009bac                rt_data_queue_peek
 .text.rt_data_queue_reset
                0x08009c50       0xfc ./rt-thread/components/drivers/src/dataqueue.o
                0x08009c50                rt_data_queue_reset
 .text.rt_data_queue_deinit
                0x08009d4c       0x70 ./rt-thread/components/drivers/src/dataqueue.o
                0x08009d4c                rt_data_queue_deinit
 .text.rt_data_queue_len
                0x08009dbc       0xc8 ./rt-thread/components/drivers/src/dataqueue.o
                0x08009dbc                rt_data_queue_len
 .text.rt_ringbuffer_status
                0x08009e84       0x50 ./rt-thread/components/drivers/src/ringbuffer.o
 .text.rt_ringbuffer_init
                0x08009ed4       0xa4 ./rt-thread/components/drivers/src/ringbuffer.o
                0x08009ed4                rt_ringbuffer_init
 .text.rt_ringbuffer_put_force
                0x08009f78      0x1ec ./rt-thread/components/drivers/src/ringbuffer.o
                0x08009f78                rt_ringbuffer_put_force
 .text.rt_ringbuffer_getchar
                0x0800a164       0xb4 ./rt-thread/components/drivers/src/ringbuffer.o
                0x0800a164                rt_ringbuffer_getchar
 .text.rt_ringbuffer_data_len
                0x0800a218       0x68 ./rt-thread/components/drivers/src/ringbuffer.o
                0x0800a218                rt_ringbuffer_data_len
 .text.rt_ringbuffer_create
                0x0800a280       0x74 ./rt-thread/components/drivers/src/ringbuffer.o
                0x0800a280                rt_ringbuffer_create
 .text.rt_ringbuffer_destroy
                0x0800a2f4       0x3c ./rt-thread/components/drivers/src/ringbuffer.o
                0x0800a2f4                rt_ringbuffer_destroy
 .text.rt_list_init
                0x0800a330       0x24 ./rt-thread/components/drivers/src/waitqueue.o
 .text.rt_list_insert_before
                0x0800a354       0x34 ./rt-thread/components/drivers/src/waitqueue.o
 .text.rt_list_remove
                0x0800a388       0x38 ./rt-thread/components/drivers/src/waitqueue.o
 .text.rt_list_isempty
                0x0800a3c0       0x24 ./rt-thread/components/drivers/src/waitqueue.o
 .text.rt_wqueue_add
                0x0800a3e4       0x30 ./rt-thread/components/drivers/src/waitqueue.o
                0x0800a3e4                rt_wqueue_add
 .text.rt_wqueue_remove
                0x0800a414       0x28 ./rt-thread/components/drivers/src/waitqueue.o
                0x0800a414                rt_wqueue_remove
 .text.__wqueue_default_wake
                0x0800a43c       0x18 ./rt-thread/components/drivers/src/waitqueue.o
                0x0800a43c                __wqueue_default_wake
 .text.rt_wqueue_wakeup
                0x0800a454       0x80 ./rt-thread/components/drivers/src/waitqueue.o
                0x0800a454                rt_wqueue_wakeup
 .text.rt_wqueue_wait
                0x0800a4d4       0xf8 ./rt-thread/components/drivers/src/waitqueue.o
                0x0800a4d4                rt_wqueue_wait
 .text.rt_spi_bus_register
                0x0800a5cc       0x4c ./rt-thread/components/drivers/spi/spi_core.o
                0x0800a5cc                rt_spi_bus_register
 .text.rt_spi_transfer
                0x0800a618      0x108 ./rt-thread/components/drivers/spi/spi_core.o
                0x0800a618                rt_spi_transfer
 .text._spi_bus_device_read
                0x0800a720       0x58 ./rt-thread/components/drivers/spi/spi_dev.o
 .text._spi_bus_device_write
                0x0800a778       0x58 ./rt-thread/components/drivers/spi/spi_dev.o
 .text._spi_bus_device_control
                0x0800a7d0       0x28 ./rt-thread/components/drivers/spi/spi_dev.o
 .text.rt_spi_bus_device_init
                0x0800a7f8       0x70 ./rt-thread/components/drivers/spi/spi_dev.o
                0x0800a7f8                rt_spi_bus_device_init
 .text.rt_poll_add
                0x0800a868       0x30 ./rt-thread/components/drivers/serial/serial.o
 .text.serial_fops_rx_ind
                0x0800a898       0x20 ./rt-thread/components/drivers/serial/serial.o
 .text.serial_fops_open
                0x0800a8b8       0xbc ./rt-thread/components/drivers/serial/serial.o
 .text.serial_fops_close
                0x0800a974       0x28 ./rt-thread/components/drivers/serial/serial.o
 .text.serial_fops_ioctl
                0x0800a99c       0x40 ./rt-thread/components/drivers/serial/serial.o
 .text.serial_fops_read
                0x0800a9dc       0x64 ./rt-thread/components/drivers/serial/serial.o
 .text.serial_fops_write
                0x0800aa40       0x2c ./rt-thread/components/drivers/serial/serial.o
 .text.serial_fops_poll
                0x0800aa6c       0x9c ./rt-thread/components/drivers/serial/serial.o
 .text._serial_poll_rx
                0x0800ab08       0x80 ./rt-thread/components/drivers/serial/serial.o
 .text._serial_poll_tx
                0x0800ab88       0x7c ./rt-thread/components/drivers/serial/serial.o
 .text._serial_int_rx
                0x0800ac04       0xd8 ./rt-thread/components/drivers/serial/serial.o
 .text._serial_int_tx
                0x0800acdc       0xc4 ./rt-thread/components/drivers/serial/serial.o
 .text._serial_check_buffer_size
                0x0800ada0       0x38 ./rt-thread/components/drivers/serial/serial.o
 .text._serial_fifo_calc_recved_len
                0x0800add8       0x88 ./rt-thread/components/drivers/serial/serial.o
 .text.rt_dma_calc_recved_len
                0x0800ae60       0x18 ./rt-thread/components/drivers/serial/serial.o
 .text.rt_dma_recv_update_get_index
                0x0800ae78       0xa4 ./rt-thread/components/drivers/serial/serial.o
 .text.rt_dma_recv_update_put_index
                0x0800af1c       0xf8 ./rt-thread/components/drivers/serial/serial.o
 .text._serial_dma_rx
                0x0800b014      0x198 ./rt-thread/components/drivers/serial/serial.o
 .text._serial_dma_tx
                0x0800b1ac       0x70 ./rt-thread/components/drivers/serial/serial.o
 .text.rt_serial_init
                0x0800b21c       0x5c ./rt-thread/components/drivers/serial/serial.o
 .text.rt_serial_open
                0x0800b278      0x36c ./rt-thread/components/drivers/serial/serial.o
 .text.rt_serial_close
                0x0800b5e4      0x1e0 ./rt-thread/components/drivers/serial/serial.o
 .text.rt_serial_read
                0x0800b7c4       0x84 ./rt-thread/components/drivers/serial/serial.o
 .text.rt_serial_write
                0x0800b848       0x84 ./rt-thread/components/drivers/serial/serial.o
 .text.rt_serial_control
                0x0800b8cc      0x308 ./rt-thread/components/drivers/serial/serial.o
 .text.rt_hw_serial_register
                0x0800bbd4       0xa4 ./rt-thread/components/drivers/serial/serial.o
                0x0800bbd4                rt_hw_serial_register
 .text.rt_hw_serial_isr
                0x0800bc78      0x264 ./rt-thread/components/drivers/serial/serial.o
                0x0800bc78                rt_hw_serial_isr
 .text.sensor_show_data
                0x0800bedc      0x368 ./rt-thread/components/drivers/sensors/sensor_cmd.o
 .text.rx_callback
                0x0800c244       0x24 ./rt-thread/components/drivers/sensors/sensor_cmd.o
 .text.sensor_fifo_rx_entry
                0x0800c268       0xb0 ./rt-thread/components/drivers/sensors/sensor_cmd.o
 .text.sensor_fifo
                0x0800c318      0x108 ./rt-thread/components/drivers/sensors/sensor_cmd.o
 .text.sensor_irq_rx_entry
                0x0800c420       0x50 ./rt-thread/components/drivers/sensors/sensor_cmd.o
 .text.sensor_int
                0x0800c470      0x108 ./rt-thread/components/drivers/sensors/sensor_cmd.o
 .text.sensor_polling
                0x0800c578      0x10c ./rt-thread/components/drivers/sensors/sensor_cmd.o
 .text.sensor   0x0800c684      0x5ec ./rt-thread/components/drivers/sensors/sensor_cmd.o
 .text.rt_list_insert_after
                0x0800cc70       0x34 ./rt-thread/components/drivers/sdio/block_dev.o
 .text.rt_list_remove
                0x0800cca4       0x38 ./rt-thread/components/drivers/sdio/block_dev.o
 .text.rt_mmcsd_req_blk
                0x0800ccdc      0x204 ./rt-thread/components/drivers/sdio/block_dev.o
 .text.rt_mmcsd_init
                0x0800cee0       0x18 ./rt-thread/components/drivers/sdio/block_dev.o
 .text.rt_mmcsd_open
                0x0800cef8       0x1c ./rt-thread/components/drivers/sdio/block_dev.o
 .text.rt_mmcsd_close
                0x0800cf14       0x18 ./rt-thread/components/drivers/sdio/block_dev.o
 .text.rt_mmcsd_control
                0x0800cf2c       0x34 ./rt-thread/components/drivers/sdio/block_dev.o
 .text.rt_mmcsd_read
                0x0800cf60       0xd4 ./rt-thread/components/drivers/sdio/block_dev.o
 .text.rt_mmcsd_write
                0x0800d034       0xd4 ./rt-thread/components/drivers/sdio/block_dev.o
 .text.mmcsd_set_blksize
                0x0800d108       0x88 ./rt-thread/components/drivers/sdio/block_dev.o
 .text.rt_mmcsd_blk_probe
                0x0800d190      0x298 ./rt-thread/components/drivers/sdio/block_dev.o
                0x0800d190                rt_mmcsd_blk_probe
 .text.rt_mmcsd_blk_remove
                0x0800d428       0x7c ./rt-thread/components/drivers/sdio/block_dev.o
                0x0800d428                rt_mmcsd_blk_remove
 .text.mmcsd_delay_ms
                0x0800d4a4       0x34 ./rt-thread/components/drivers/sdio/mmc.o
 .text.GET_BITS
                0x0800d4d8       0x9c ./rt-thread/components/drivers/sdio/mmc.o
 .text.mmcsd_parse_csd
                0x0800d574      0x244 ./rt-thread/components/drivers/sdio/mmc.o
 .text.mmc_get_ext_csd
                0x0800d7b8       0xf0 ./rt-thread/components/drivers/sdio/mmc.o
 .text.mmc_parse_ext_csd
                0x0800d8a8       0xdc ./rt-thread/components/drivers/sdio/mmc.o
 .text.mmc_switch
                0x0800d984       0x70 ./rt-thread/components/drivers/sdio/mmc.o
 .text.mmc_compare_ext_csds
                0x0800d9f4      0x210 ./rt-thread/components/drivers/sdio/mmc.o
 .text.mmc_select_bus_width
                0x0800dc04      0x194 ./rt-thread/components/drivers/sdio/mmc.o
 .text.mmc_send_op_cond
                0x0800dd98       0xc0 ./rt-thread/components/drivers/sdio/mmc.o
                0x0800dd98                mmc_send_op_cond
 .text.mmc_set_card_addr
                0x0800de58       0x4c ./rt-thread/components/drivers/sdio/mmc.o
 .text.mmcsd_mmc_init_card
                0x0800dea4      0x210 ./rt-thread/components/drivers/sdio/mmc.o
 .text.init_mmc
                0x0800e0b4       0xc8 ./rt-thread/components/drivers/sdio/mmc.o
                0x0800e0b4                init_mmc
 .text.mmcsd_delay_ms
                0x0800e17c       0x34 ./rt-thread/components/drivers/sdio/mmcsd_core.o
 .text.__rt_fls
                0x0800e1b0       0x88 ./rt-thread/components/drivers/sdio/mmcsd_core.o
 .text.mmcsd_host_lock
                0x0800e238       0x20 ./rt-thread/components/drivers/sdio/mmcsd_core.o
                0x0800e238                mmcsd_host_lock
 .text.mmcsd_host_unlock
                0x0800e258       0x1c ./rt-thread/components/drivers/sdio/mmcsd_core.o
                0x0800e258                mmcsd_host_unlock
 .text.mmcsd_send_request
                0x0800e274       0xa0 ./rt-thread/components/drivers/sdio/mmcsd_core.o
                0x0800e274                mmcsd_send_request
 .text.mmcsd_send_cmd
                0x0800e314       0x50 ./rt-thread/components/drivers/sdio/mmcsd_core.o
                0x0800e314                mmcsd_send_cmd
 .text.mmcsd_go_idle
                0x0800e364       0x78 ./rt-thread/components/drivers/sdio/mmcsd_core.o
                0x0800e364                mmcsd_go_idle
 .text.mmcsd_spi_read_ocr
                0x0800e3dc       0x54 ./rt-thread/components/drivers/sdio/mmcsd_core.o
                0x0800e3dc                mmcsd_spi_read_ocr
 .text.mmcsd_all_get_cid
                0x0800e430       0x58 ./rt-thread/components/drivers/sdio/mmcsd_core.o
                0x0800e430                mmcsd_all_get_cid
 .text.mmcsd_get_cid
                0x0800e488      0x15c ./rt-thread/components/drivers/sdio/mmcsd_core.o
                0x0800e488                mmcsd_get_cid
 .text.mmcsd_get_csd
                0x0800e5e4      0x154 ./rt-thread/components/drivers/sdio/mmcsd_core.o
                0x0800e5e4                mmcsd_get_csd
 .text._mmcsd_select_card
                0x0800e738       0x5c ./rt-thread/components/drivers/sdio/mmcsd_core.o
 .text.mmcsd_select_card
                0x0800e794       0x20 ./rt-thread/components/drivers/sdio/mmcsd_core.o
                0x0800e794                mmcsd_select_card
 .text.mmcsd_spi_use_crc
                0x0800e7b4       0x4c ./rt-thread/components/drivers/sdio/mmcsd_core.o
                0x0800e7b4                mmcsd_spi_use_crc
 .text.mmcsd_set_iocfg
                0x0800e800       0x24 ./rt-thread/components/drivers/sdio/mmcsd_core.o
 .text.mmcsd_set_chip_select
                0x0800e824       0x20 ./rt-thread/components/drivers/sdio/mmcsd_core.o
                0x0800e824                mmcsd_set_chip_select
 .text.mmcsd_set_clock
                0x0800e844       0x48 ./rt-thread/components/drivers/sdio/mmcsd_core.o
                0x0800e844                mmcsd_set_clock
 .text.mmcsd_set_bus_mode
                0x0800e88c       0x20 ./rt-thread/components/drivers/sdio/mmcsd_core.o
                0x0800e88c                mmcsd_set_bus_mode
 .text.mmcsd_set_bus_width
                0x0800e8ac       0x20 ./rt-thread/components/drivers/sdio/mmcsd_core.o
                0x0800e8ac                mmcsd_set_bus_width
 .text.mmcsd_set_data_timeout
                0x0800e8cc      0x14c ./rt-thread/components/drivers/sdio/mmcsd_core.o
                0x0800e8cc                mmcsd_set_data_timeout
 .text.mmcsd_select_voltage
                0x0800ea18       0x78 ./rt-thread/components/drivers/sdio/mmcsd_core.o
                0x0800ea18                mmcsd_select_voltage
 .text.mmcsd_power_up
                0x0800ea90       0x80 ./rt-thread/components/drivers/sdio/mmcsd_core.o
 .text.mmcsd_power_off
                0x0800eb10       0x48 ./rt-thread/components/drivers/sdio/mmcsd_core.o
 .text.mmcsd_detect
                0x0800eb58      0x184 ./rt-thread/components/drivers/sdio/mmcsd_core.o
                0x0800eb58                mmcsd_detect
 .text.rt_mmcsd_core_init
                0x0800ecdc       0xb8 ./rt-thread/components/drivers/sdio/mmcsd_core.o
                0x0800ecdc                rt_mmcsd_core_init
 .text.mmcsd_delay_ms
                0x0800ed94       0x34 ./rt-thread/components/drivers/sdio/sd.o
 .text.GET_BITS
                0x0800edc8       0x9c ./rt-thread/components/drivers/sdio/sd.o
 .text.mmcsd_parse_csd
                0x0800ee64      0x3ac ./rt-thread/components/drivers/sdio/sd.o
 .text.mmcsd_parse_scr
                0x0800f210       0x50 ./rt-thread/components/drivers/sdio/sd.o
 .text.mmcsd_switch
                0x0800f260      0x1d0 ./rt-thread/components/drivers/sdio/sd.o
 .text.mmcsd_app_cmd
                0x0800f430       0x78 ./rt-thread/components/drivers/sdio/sd.o
 .text.mmcsd_send_app_cmd
                0x0800f4a8       0xc8 ./rt-thread/components/drivers/sdio/sd.o
                0x0800f4a8                mmcsd_send_app_cmd
 .text.mmcsd_app_set_bus_width
                0x0800f570       0x64 ./rt-thread/components/drivers/sdio/sd.o
                0x0800f570                mmcsd_app_set_bus_width
 .text.mmcsd_send_app_op_cond
                0x0800f5d4       0xc8 ./rt-thread/components/drivers/sdio/sd.o
                0x0800f5d4                mmcsd_send_app_op_cond
 .text.mmcsd_send_if_cond
                0x0800f69c       0x78 ./rt-thread/components/drivers/sdio/sd.o
                0x0800f69c                mmcsd_send_if_cond
 .text.mmcsd_get_card_addr
                0x0800f714       0x50 ./rt-thread/components/drivers/sdio/sd.o
                0x0800f714                mmcsd_get_card_addr
 .text.mmcsd_get_scr
                0x0800f764      0x10c ./rt-thread/components/drivers/sdio/sd.o
                0x0800f764                mmcsd_get_scr
 .text.mmcsd_sd_init_card
                0x0800f870      0x224 ./rt-thread/components/drivers/sdio/sd.o
 .text.init_sd  0x0800fa94       0xe0 ./rt-thread/components/drivers/sdio/sd.o
                0x0800fa94                init_sd
 .text.rt_list_insert_after
                0x0800fb74       0x34 ./rt-thread/components/drivers/sdio/sdio.o
 .text.rt_list_isempty
                0x0800fba8       0x24 ./rt-thread/components/drivers/sdio/sdio.o
 .text.mmcsd_delay_ms
                0x0800fbcc       0x34 ./rt-thread/components/drivers/sdio/sdio.o
 .text.sdio_io_send_op_cond
                0x0800fc00       0xd8 ./rt-thread/components/drivers/sdio/sdio.o
                0x0800fc00                sdio_io_send_op_cond
 .text.sdio_io_rw_direct
                0x0800fcd8      0x150 ./rt-thread/components/drivers/sdio/sdio.o
                0x0800fcd8                sdio_io_rw_direct
 .text.sdio_io_readb
                0x0800fe28       0x44 ./rt-thread/components/drivers/sdio/sdio.o
                0x0800fe28                sdio_io_readb
 .text.sdio_io_writeb
                0x0800fe6c       0x34 ./rt-thread/components/drivers/sdio/sdio.o
                0x0800fe6c                sdio_io_writeb
 .text.sdio_read_cccr
                0x0800fea0      0x174 ./rt-thread/components/drivers/sdio/sdio.o
 .text.cistpl_funce_func0
                0x08010014       0x80 ./rt-thread/components/drivers/sdio/sdio.o
 .text.cistpl_funce_func
                0x08010094       0x90 ./rt-thread/components/drivers/sdio/sdio.o
 .text.sdio_read_cis
                0x08010124      0x29c ./rt-thread/components/drivers/sdio/sdio.o
 .text.sdio_free_cis
                0x080103c0       0x50 ./rt-thread/components/drivers/sdio/sdio.o
                0x080103c0                sdio_free_cis
 .text.sdio_read_fbr
                0x08010410       0x74 ./rt-thread/components/drivers/sdio/sdio.o
 .text.sdio_initialize_function
                0x08010484       0xe4 ./rt-thread/components/drivers/sdio/sdio.o
 .text.sdio_set_highspeed
                0x08010568       0x8c ./rt-thread/components/drivers/sdio/sdio.o
 .text.sdio_set_bus_wide
                0x080105f4       0x98 ./rt-thread/components/drivers/sdio/sdio.o
 .text.sdio_register_card
                0x0801068c       0xa8 ./rt-thread/components/drivers/sdio/sdio.o
 .text.sdio_init_card
                0x08010734      0x2f0 ./rt-thread/components/drivers/sdio/sdio.o
 .text.init_sdio
                0x08010a24       0xe0 ./rt-thread/components/drivers/sdio/sdio.o
                0x08010a24                init_sdio
 .text.sdio_match_card
                0x08010b04       0x74 ./rt-thread/components/drivers/sdio/sdio.o
 .text.rt_sdio_init
                0x08010b78       0x10 ./rt-thread/components/drivers/sdio/sdio.o
                0x08010b78                rt_sdio_init
 .text._pin_read
                0x08010b88       0x60 ./rt-thread/components/drivers/misc/pin.o
 .text._pin_write
                0x08010be8       0x5c ./rt-thread/components/drivers/misc/pin.o
 .text._pin_control
                0x08010c44       0x58 ./rt-thread/components/drivers/misc/pin.o
 .text.rt_device_pin_register
                0x08010c9c       0x74 ./rt-thread/components/drivers/misc/pin.o
                0x08010c9c                rt_device_pin_register
 .text.rt_pin_mode
                0x08010d10       0x40 ./rt-thread/components/drivers/misc/pin.o
                0x08010d10                rt_pin_mode
 .text.rt_pin_write
                0x08010d50       0x40 ./rt-thread/components/drivers/misc/pin.o
                0x08010d50                rt_pin_write
 .text.rt_pin_read
                0x08010d90       0x3c ./rt-thread/components/drivers/misc/pin.o
                0x08010d90                rt_pin_read
 .text._pwm_control
                0x08010dcc       0x38 ./rt-thread/components/drivers/misc/rt_drv_pwm.o
 .text._pwm_read
                0x08010e04       0x64 ./rt-thread/components/drivers/misc/rt_drv_pwm.o
 .text._pwm_write
                0x08010e68       0x80 ./rt-thread/components/drivers/misc/rt_drv_pwm.o
 .text.rt_device_pwm_register
                0x08010ee8       0x78 ./rt-thread/components/drivers/misc/rt_drv_pwm.o
                0x08010ee8                rt_device_pwm_register
 .text.rt_pwm_enable
                0x08010f60       0x5c ./rt-thread/components/drivers/misc/rt_drv_pwm.o
                0x08010f60                rt_pwm_enable
 .text.rt_pwm_disable
                0x08010fbc       0x5c ./rt-thread/components/drivers/misc/rt_drv_pwm.o
                0x08010fbc                rt_pwm_disable
 .text.rt_pwm_set
                0x08011018       0x54 ./rt-thread/components/drivers/misc/rt_drv_pwm.o
                0x08011018                rt_pwm_set
 .text.rt_pwm_get
                0x0801106c       0x34 ./rt-thread/components/drivers/misc/rt_drv_pwm.o
                0x0801106c                rt_pwm_get
 .text.pwm_enable
                0x080110a0       0x74 ./rt-thread/components/drivers/misc/rt_drv_pwm.o
 .text.pwm_disable
                0x08011114       0x74 ./rt-thread/components/drivers/misc/rt_drv_pwm.o
 .text.pwm_set  0x08011188       0x94 ./rt-thread/components/drivers/misc/rt_drv_pwm.o
 .text.pwm_get  0x0801121c      0x120 ./rt-thread/components/drivers/misc/rt_drv_pwm.o
 .text.i2c_delay
                0x0801133c       0x20 ./rt-thread/components/drivers/i2c/i2c-bit-ops.o
 .text.i2c_delay2
                0x0801135c       0x1c ./rt-thread/components/drivers/i2c/i2c-bit-ops.o
 .text.SCL_H    0x08011378       0x74 ./rt-thread/components/drivers/i2c/i2c-bit-ops.o
 .text.i2c_start
                0x080113ec       0x34 ./rt-thread/components/drivers/i2c/i2c-bit-ops.o
 .text.i2c_restart
                0x08011420       0x4c ./rt-thread/components/drivers/i2c/i2c-bit-ops.o
 .text.i2c_stop
                0x0801146c       0x44 ./rt-thread/components/drivers/i2c/i2c-bit-ops.o
 .text.i2c_waitack
                0x080114b0       0x80 ./rt-thread/components/drivers/i2c/i2c-bit-ops.o
 .text.i2c_writeb
                0x08011530       0x90 ./rt-thread/components/drivers/i2c/i2c-bit-ops.o
 .text.i2c_readb
                0x080115c0       0x8c ./rt-thread/components/drivers/i2c/i2c-bit-ops.o
 .text.i2c_send_bytes
                0x0801164c       0x98 ./rt-thread/components/drivers/i2c/i2c-bit-ops.o
 .text.i2c_send_ack_or_nack
                0x080116e4       0x74 ./rt-thread/components/drivers/i2c/i2c-bit-ops.o
 .text.i2c_recv_bytes
                0x08011758       0x7c ./rt-thread/components/drivers/i2c/i2c-bit-ops.o
 .text.i2c_send_address
                0x080117d4       0x64 ./rt-thread/components/drivers/i2c/i2c-bit-ops.o
 .text.i2c_bit_send_address
                0x08011838      0x168 ./rt-thread/components/drivers/i2c/i2c-bit-ops.o
 .text.i2c_bit_xfer
                0x080119a0      0x108 ./rt-thread/components/drivers/i2c/i2c-bit-ops.o
 .text.rt_i2c_bit_add_bus
                0x08011aa8       0x28 ./rt-thread/components/drivers/i2c/i2c-bit-ops.o
                0x08011aa8                rt_i2c_bit_add_bus
 .text.rt_i2c_bus_device_register
                0x08011ad0       0x64 ./rt-thread/components/drivers/i2c/i2c_core.o
                0x08011ad0                rt_i2c_bus_device_register
 .text.rt_i2c_transfer
                0x08011b34       0x6c ./rt-thread/components/drivers/i2c/i2c_core.o
                0x08011b34                rt_i2c_transfer
 .text.rt_i2c_control
                0x08011ba0       0x54 ./rt-thread/components/drivers/i2c/i2c_core.o
                0x08011ba0                rt_i2c_control
 .text.rt_i2c_master_send
                0x08011bf4       0x4c ./rt-thread/components/drivers/i2c/i2c_core.o
                0x08011bf4                rt_i2c_master_send
 .text.rt_i2c_master_recv
                0x08011c40       0x68 ./rt-thread/components/drivers/i2c/i2c_core.o
                0x08011c40                rt_i2c_master_recv
 .text.rt_i2c_core_init
                0x08011ca8       0x10 ./rt-thread/components/drivers/i2c/i2c_core.o
                0x08011ca8                rt_i2c_core_init
 .text.i2c_bus_device_read
                0x08011cb8       0x64 ./rt-thread/components/drivers/i2c/i2c_dev.o
 .text.i2c_bus_device_write
                0x08011d1c       0x64 ./rt-thread/components/drivers/i2c/i2c_dev.o
 .text.i2c_bus_device_control
                0x08011d80       0xd0 ./rt-thread/components/drivers/i2c/i2c_dev.o
 .text.rt_i2c_bus_device_device_init
                0x08011e50       0x78 ./rt-thread/components/drivers/i2c/i2c_dev.o
                0x08011e50                rt_i2c_bus_device_device_init
 .text.dfs_init
                0x08011ec8       0x9c ./rt-thread/components/dfs/src/dfs.o
                0x08011ec8                dfs_init
 .text.dfs_lock
                0x08011f64       0x48 ./rt-thread/components/dfs/src/dfs.o
                0x08011f64                dfs_lock
 .text.dfs_unlock
                0x08011fac       0x14 ./rt-thread/components/dfs/src/dfs.o
                0x08011fac                dfs_unlock
 .text.fd_alloc
                0x08011fc0      0x10c ./rt-thread/components/dfs/src/dfs.o
 .text.fd_new   0x080120cc       0x78 ./rt-thread/components/dfs/src/dfs.o
                0x080120cc                fd_new
 .text.fd_get   0x08012144       0x80 ./rt-thread/components/dfs/src/dfs.o
                0x08012144                fd_get
 .text.fd_put   0x080121c4       0x88 ./rt-thread/components/dfs/src/dfs.o
                0x080121c4                fd_put
 .text.fd_is_open
                0x0801224c       0xe8 ./rt-thread/components/dfs/src/dfs.o
                0x0801224c                fd_is_open
 .text.dfs_subdir
                0x08012334       0x50 ./rt-thread/components/dfs/src/dfs.o
                0x08012334                dfs_subdir
 .text.dfs_normalize_path
                0x08012384      0x208 ./rt-thread/components/dfs/src/dfs.o
                0x08012384                dfs_normalize_path
 .text.dfs_fdtable_get
                0x0801258c       0x1c ./rt-thread/components/dfs/src/dfs.o
                0x0801258c                dfs_fdtable_get
 .text.list_fd  0x080125a8      0x148 ./rt-thread/components/dfs/src/dfs.o
                0x080125a8                list_fd
 .text.dfs_file_open
                0x080126f0      0x148 ./rt-thread/components/dfs/src/dfs_file.o
                0x080126f0                dfs_file_open
 .text.dfs_file_close
                0x08012838       0x54 ./rt-thread/components/dfs/src/dfs_file.o
                0x08012838                dfs_file_close
 .text.dfs_file_read
                0x0801288c       0x58 ./rt-thread/components/dfs/src/dfs_file.o
                0x0801288c                dfs_file_read
 .text.dfs_file_getdents
                0x080128e4       0x48 ./rt-thread/components/dfs/src/dfs_file.o
                0x080128e4                dfs_file_getdents
 .text.dfs_file_unlink
                0x0801292c       0xcc ./rt-thread/components/dfs/src/dfs_file.o
                0x0801292c                dfs_file_unlink
 .text.dfs_file_write
                0x080129f8       0x40 ./rt-thread/components/dfs/src/dfs_file.o
                0x080129f8                dfs_file_write
 .text.dfs_file_lseek
                0x08012a38       0x4c ./rt-thread/components/dfs/src/dfs_file.o
                0x08012a38                dfs_file_lseek
 .text.dfs_file_stat
                0x08012a84      0x12c ./rt-thread/components/dfs/src/dfs_file.o
                0x08012a84                dfs_file_stat
 .text.dfs_file_rename
                0x08012bb0       0xdc ./rt-thread/components/dfs/src/dfs_file.o
                0x08012bb0                dfs_file_rename
 .text.ls       0x08012c8c      0x120 ./rt-thread/components/dfs/src/dfs_file.o
                0x08012c8c                ls
 .text.cat      0x08012dac       0x7c ./rt-thread/components/dfs/src/dfs_file.o
                0x08012dac                cat
 .text.copyfile
                0x08012e28       0xe0 ./rt-thread/components/dfs/src/dfs_file.o
 .text.copydir  0x08012f08      0x18c ./rt-thread/components/dfs/src/dfs_file.o
 .text._get_path_lastname
                0x08013094       0x2c ./rt-thread/components/dfs/src/dfs_file.o
 .text.copy     0x080130c0      0x15c ./rt-thread/components/dfs/src/dfs_file.o
                0x080130c0                copy
 .text.dfs_register
                0x0801321c       0xc0 ./rt-thread/components/dfs/src/dfs_fs.o
                0x0801321c                dfs_register
 .text.dfs_filesystem_lookup
                0x080132dc       0xc4 ./rt-thread/components/dfs/src/dfs_fs.o
                0x080132dc                dfs_filesystem_lookup
 .text.dfs_filesystem_get_mounted_path
                0x080133a0       0x58 ./rt-thread/components/dfs/src/dfs_fs.o
                0x080133a0                dfs_filesystem_get_mounted_path
 .text.dfs_filesystem_get_partition
                0x080133f8      0x150 ./rt-thread/components/dfs/src/dfs_fs.o
                0x080133f8                dfs_filesystem_get_partition
 .text.dfs_mount
                0x08013548      0x244 ./rt-thread/components/dfs/src/dfs_fs.o
                0x08013548                dfs_mount
 .text.dfs_unmount
                0x0801378c       0xdc ./rt-thread/components/dfs/src/dfs_fs.o
                0x0801378c                dfs_unmount
 .text.dfs_mkfs
                0x08013868      0x104 ./rt-thread/components/dfs/src/dfs_fs.o
                0x08013868                dfs_mkfs
 .text.dfs_statfs
                0x0801396c       0x40 ./rt-thread/components/dfs/src/dfs_fs.o
                0x0801396c                dfs_statfs
 .text.df       0x080139ac      0x190 ./rt-thread/components/dfs/src/dfs_fs.o
                0x080139ac                df
 .text.open     0x08013b3c       0x6c ./rt-thread/components/dfs/src/dfs_posix.o
                0x08013b3c                open
 .text.close    0x08013ba8       0x54 ./rt-thread/components/dfs/src/dfs_posix.o
                0x08013ba8                close
 .text.read     0x08013bfc       0x5c ./rt-thread/components/dfs/src/dfs_posix.o
                0x08013bfc                read
 .text.write    0x08013c58       0x5c ./rt-thread/components/dfs/src/dfs_posix.o
                0x08013c58                write
 .text.lseek    0x08013cb4       0xb4 ./rt-thread/components/dfs/src/dfs_posix.o
                0x08013cb4                lseek
 .text.rename   0x08013d68       0x30 ./rt-thread/components/dfs/src/dfs_posix.o
                0x08013d68                rename
 .text.unlink   0x08013d98       0x2c ./rt-thread/components/dfs/src/dfs_posix.o
                0x08013d98                unlink
 .text.stat     0x08013dc4       0x30 ./rt-thread/components/dfs/src/dfs_posix.o
                0x08013dc4                stat
 .text.mkdir    0x08013df4       0x78 ./rt-thread/components/dfs/src/dfs_posix.o
                0x08013df4                mkdir
 .text.opendir  0x08013e6c       0x98 ./rt-thread/components/dfs/src/dfs_posix.o
                0x08013e6c                opendir
 .text.readdir  0x08013f04       0xbc ./rt-thread/components/dfs/src/dfs_posix.o
                0x08013f04                readdir
 .text.rewinddir
                0x08013fc0       0x54 ./rt-thread/components/dfs/src/dfs_posix.o
                0x08013fc0                rewinddir
 .text.closedir
                0x08014014       0x60 ./rt-thread/components/dfs/src/dfs_posix.o
                0x08014014                closedir
 .text.chdir    0x08014074       0xac ./rt-thread/components/dfs/src/dfs_posix.o
                0x08014074                chdir
 .text.getcwd   0x08014120       0x2c ./rt-thread/components/dfs/src/dfs_posix.o
                0x08014120                getcwd
 .text.dfs_device_fs_mount
                0x0801414c       0x1c ./rt-thread/components/dfs/filesystems/devfs/devfs.o
                0x0801414c                dfs_device_fs_mount
 .text.dfs_device_fs_ioctl
                0x08014168       0x60 ./rt-thread/components/dfs/filesystems/devfs/devfs.o
                0x08014168                dfs_device_fs_ioctl
 .text.dfs_device_fs_read
                0x080141c8       0x68 ./rt-thread/components/dfs/filesystems/devfs/devfs.o
                0x080141c8                dfs_device_fs_read
 .text.dfs_device_fs_write
                0x08014230       0x68 ./rt-thread/components/dfs/filesystems/devfs/devfs.o
                0x08014230                dfs_device_fs_write
 .text.dfs_device_fs_close
                0x08014298       0x8c ./rt-thread/components/dfs/filesystems/devfs/devfs.o
                0x08014298                dfs_device_fs_close
 .text.dfs_device_fs_open
                0x08014324      0x178 ./rt-thread/components/dfs/filesystems/devfs/devfs.o
                0x08014324                dfs_device_fs_open
 .text.dfs_device_fs_stat
                0x0801449c       0xe4 ./rt-thread/components/dfs/filesystems/devfs/devfs.o
                0x0801449c                dfs_device_fs_stat
 .text.dfs_device_fs_getdents
                0x08014580       0xdc ./rt-thread/components/dfs/filesystems/devfs/devfs.o
                0x08014580                dfs_device_fs_getdents
 .text.dfs_device_fs_poll
                0x0801465c       0x1c ./rt-thread/components/dfs/filesystems/devfs/devfs.o
 .text.devfs_init
                0x08014678       0x14 ./rt-thread/components/dfs/filesystems/devfs/devfs.o
                0x08014678                devfs_init
 .text.cplusplus_system_init
                0x0801468c       0x34 ./rt-thread/components/cplusplus/cxx_crt_init.o
                0x0801468c                cplusplus_system_init
 .text.n32_msp_usart_init
                0x080146c0       0x70 ./board/msp/n32_msp.o
                0x080146c0                n32_msp_usart_init
 .text.n32_msp_spi_init
                0x08014730       0x80 ./board/msp/n32_msp.o
                0x08014730                n32_msp_spi_init
 .text.n32_msp_tim_init
                0x080147b0       0xd4 ./board/msp/n32_msp.o
                0x080147b0                n32_msp_tim_init
 .text.pwm_set_test
                0x08014884       0x4c ./board/msp/n32_msp.o
 .text.pwm_led_sample
                0x080148d0       0x64 ./board/msp/n32_msp.o
 .text.pwm_led_sample_off
                0x08014934       0x40 ./board/msp/n32_msp.o
 .text.__NVIC_SetPriority
                0x08014974       0x54 ./board/board.o
 .text.SysTick_Config
                0x080149c8       0x44 ./board/board.o
 .text.SystemClock_Config
                0x08014a0c       0x2c ./board/board.o
                0x08014a0c                SystemClock_Config
 .text.SysTick_Handler
                0x08014a38       0x14 ./board/board.o
                0x08014a38                SysTick_Handler
 .text.rt_hw_board_init
                0x08014a4c       0x38 ./board/board.o
                0x08014a4c                rt_hw_board_init
 .text.led_task
                0x08014a84       0x38 ./applications/main.o
                0x08014a84                led_task
 .text.oled_task
                0x08014abc      0x110 ./applications/main.o
                0x08014abc                oled_task
 .text.motor_task
                0x08014bcc       0x48 ./applications/main.o
                0x08014bcc                motor_task
 .text.rc522_task
                0x08014c14      0x388 ./applications/main.o
                0x08014c14                rc522_task
 .text.main     0x08014f9c       0xd8 ./applications/main.o
                0x08014f9c                main
 .text.Moto_Init
                0x08015074       0x54 ./applications/motor.o
                0x08015074                Moto_Init
 .text.Motorcw  0x080150c8       0xb0 ./applications/motor.o
                0x080150c8                Motorcw
 .text.Motorccw
                0x08015178       0xb4 ./applications/motor.o
                0x08015178                Motorccw
 *fill*         0x0801522c        0x4 00000000
 .text.Motorcw_angle
                0x08015230       0x58 ./applications/motor.o
                0x08015230                Motorcw_angle
 .text.Motorccw_angle
                0x08015288       0x58 ./applications/motor.o
                0x08015288                Motorccw_angle
 .text.IIC_Start
                0x080152e0       0x28 ./applications/oled.o
                0x080152e0                IIC_Start
 .text.IIC_Stop
                0x08015308       0x28 ./applications/oled.o
                0x08015308                IIC_Stop
 .text.IIC_Wait_Ack
                0x08015330       0x18 ./applications/oled.o
                0x08015330                IIC_Wait_Ack
 .text.Write_IIC_Byte
                0x08015348       0x6c ./applications/oled.o
                0x08015348                Write_IIC_Byte
 .text.Write_IIC_Command
                0x080153b4       0x3c ./applications/oled.o
                0x080153b4                Write_IIC_Command
 .text.Write_IIC_Data
                0x080153f0       0x3c ./applications/oled.o
                0x080153f0                Write_IIC_Data
 .text.OLED_WR_Byte
                0x0801542c       0x30 ./applications/oled.o
                0x0801542c                OLED_WR_Byte
 .text.OLED_Set_Pos
                0x0801545c       0x48 ./applications/oled.o
                0x0801545c                OLED_Set_Pos
 .text.OLED_Clear
                0x080154a4       0x58 ./applications/oled.o
                0x080154a4                OLED_Clear
 .text.OLED_ShowChar
                0x080154fc       0xfc ./applications/oled.o
                0x080154fc                OLED_ShowChar
 .text.oled_pow
                0x080155f8       0x38 ./applications/oled.o
                0x080155f8                oled_pow
 .text.OLED_ShowNum
                0x08015630       0xc8 ./applications/oled.o
                0x08015630                OLED_ShowNum
 .text.ShowID   0x080156f8      0x170 ./applications/oled.o
                0x080156f8                ShowID
 .text.OLED_ShowString
                0x08015868       0x60 ./applications/oled.o
                0x08015868                OLED_ShowString
 .text.OLED_ShowCHinese
                0x080158c8       0xa0 ./applications/oled.o
                0x080158c8                OLED_ShowCHinese
 .text.OLED_DrawBMP
                0x08015968       0x90 ./applications/oled.o
                0x08015968                OLED_DrawBMP
 .text.OLED_Init
                0x080159f8      0x100 ./applications/oled.o
                0x080159f8                OLED_Init
 .text.SPIWriteByte
                0x08015af8       0x4c ./applications/rc522.o
                0x08015af8                SPIWriteByte
 .text.SPI2_Init
                0x08015b44       0xf4 ./applications/rc522.o
                0x08015b44                SPI2_Init
 .text.InitRc522
                0x08015c38       0x24 ./applications/rc522.o
                0x08015c38                InitRc522
 .text.PcdRequest
                0x08015c5c       0x70 ./applications/rc522.o
                0x08015c5c                PcdRequest
 .text.PcdAnticoll
                0x08015ccc       0xb0 ./applications/rc522.o
                0x08015ccc                PcdAnticoll
 .text.PcdSelect
                0x08015d7c       0xa4 ./applications/rc522.o
                0x08015d7c                PcdSelect
 .text.PcdAuthState
                0x08015e20       0x84 ./applications/rc522.o
                0x08015e20                PcdAuthState
 .text.PcdRead  0x08015ea4       0x84 ./applications/rc522.o
                0x08015ea4                PcdRead
 .text.CalulateCRC
                0x08015f28       0x9c ./applications/rc522.o
                0x08015f28                CalulateCRC
 .text.PcdReset
                0x08015fc4       0x7c ./applications/rc522.o
                0x08015fc4                PcdReset
 .text.M500PcdConfigISOType
                0x08016040       0x6c ./applications/rc522.o
                0x08016040                M500PcdConfigISOType
 .text.ReadRawRC
                0x080160ac       0x50 ./applications/rc522.o
                0x080160ac                ReadRawRC
 .text.WriteRawRC
                0x080160fc       0x44 ./applications/rc522.o
                0x080160fc                WriteRawRC
 .text.SetBitMask
                0x08016140       0x3c ./applications/rc522.o
                0x08016140                SetBitMask
 .text.ClearBitMask
                0x0801617c       0x44 ./applications/rc522.o
                0x0801617c                ClearBitMask
 .text.PcdComMF522
                0x080161c0      0x1ac ./applications/rc522.o
                0x080161c0                PcdComMF522
 .text.PcdAntennaOn
                0x0801636c       0x2c ./applications/rc522.o
                0x0801636c                PcdAntennaOn
 .text.PcdAntennaOff
                0x08016398       0x10 ./applications/rc522.o
                0x08016398                PcdAntennaOff
 .text.reboot   0x080163a8       0x18 ./Libraries/rt_drivers/drv_common.o
 .text.get_pin  0x080163c0       0x48 ./Libraries/rt_drivers/drv_gpio.o
                0x080163c0                get_pin
 .text.n32_pin_write
                0x08016408       0x54 ./Libraries/rt_drivers/drv_gpio.o
                0x08016408                n32_pin_write
 .text.n32_pin_read
                0x0801645c       0x50 ./Libraries/rt_drivers/drv_gpio.o
                0x0801645c                n32_pin_read
 .text.n32_pin_mode
                0x080164ac       0x94 ./Libraries/rt_drivers/drv_gpio.o
                0x080164ac                n32_pin_mode
 .text.bit2bitno
                0x08016540       0x40 ./Libraries/rt_drivers/drv_gpio.o
 .text.get_pin_irq_map
                0x08016580       0x3c ./Libraries/rt_drivers/drv_gpio.o
 .text.n32_pin_attach_irq
                0x080165bc      0x14c ./Libraries/rt_drivers/drv_gpio.o
                0x080165bc                n32_pin_attach_irq
 .text.n32_pin_dettach_irq
                0x08016708       0xd4 ./Libraries/rt_drivers/drv_gpio.o
                0x08016708                n32_pin_dettach_irq
 .text.n32_pin_irq_enable
                0x080167dc      0x18c ./Libraries/rt_drivers/drv_gpio.o
                0x080167dc                n32_pin_irq_enable
 .text.n32_hw_pin_init
                0x08016968       0x24 ./Libraries/rt_drivers/drv_gpio.o
                0x08016968                n32_hw_pin_init
 .text.pin_irq_hdr
                0x0801698c       0x70 ./Libraries/rt_drivers/drv_gpio.o
 .text.EXTI0_IRQHandler
                0x080169fc       0x18 ./Libraries/rt_drivers/drv_gpio.o
                0x080169fc                EXTI0_IRQHandler
 .text.EXTI1_IRQHandler
                0x08016a14       0x18 ./Libraries/rt_drivers/drv_gpio.o
                0x08016a14                EXTI1_IRQHandler
 .text.EXTI2_IRQHandler
                0x08016a2c       0x18 ./Libraries/rt_drivers/drv_gpio.o
                0x08016a2c                EXTI2_IRQHandler
 .text.EXTI3_IRQHandler
                0x08016a44       0x18 ./Libraries/rt_drivers/drv_gpio.o
                0x08016a44                EXTI3_IRQHandler
 .text.EXTI4_IRQHandler
                0x08016a5c       0x18 ./Libraries/rt_drivers/drv_gpio.o
                0x08016a5c                EXTI4_IRQHandler
 .text.EXTI9_5_IRQHandler
                0x08016a74       0x70 ./Libraries/rt_drivers/drv_gpio.o
                0x08016a74                EXTI9_5_IRQHandler
 .text.EXTI15_10_IRQHandler
                0x08016ae4       0x88 ./Libraries/rt_drivers/drv_gpio.o
                0x08016ae4                EXTI15_10_IRQHandler
 .text.drv_pwm_enable
                0x08016b6c       0xb8 ./Libraries/rt_drivers/drv_pwm.o
 .text.drv_pwm_get
                0x08016c24      0x170 ./Libraries/rt_drivers/drv_pwm.o
 .text.drv_pwm_set
                0x08016d94      0x1b4 ./Libraries/rt_drivers/drv_pwm.o
 .text.drv_pwm_control
                0x08016f48       0x74 ./Libraries/rt_drivers/drv_pwm.o
 .text.rt_hw_pwm_init
                0x08016fbc       0xd8 ./Libraries/rt_drivers/drv_pwm.o
 .text.n32_i2c_gpio_init
                0x08017094       0x48 ./Libraries/rt_drivers/drv_soft_i2c.o
 .text.n32_set_sda
                0x080170dc       0x38 ./Libraries/rt_drivers/drv_soft_i2c.o
 .text.n32_set_scl
                0x08017114       0x38 ./Libraries/rt_drivers/drv_soft_i2c.o
 .text.n32_get_sda
                0x0801714c       0x20 ./Libraries/rt_drivers/drv_soft_i2c.o
 .text.n32_get_scl
                0x0801716c       0x20 ./Libraries/rt_drivers/drv_soft_i2c.o
 .text.n32_udelay
                0x0801718c       0x84 ./Libraries/rt_drivers/drv_soft_i2c.o
 .text.n32_i2c_bus_unlock
                0x08017210       0x6c ./Libraries/rt_drivers/drv_soft_i2c.o
 .text.rt_hw_i2c_init
                0x0801727c       0xdc ./Libraries/rt_drivers/drv_soft_i2c.o
                0x0801727c                rt_hw_i2c_init
 .text.configure
                0x08017358      0x1b4 ./Libraries/rt_drivers/drv_spi.o
 .text.xfer     0x0801750c      0x194 ./Libraries/rt_drivers/drv_spi.o
 .text.rt_hw_spi_init
                0x080176a0       0x40 ./Libraries/rt_drivers/drv_spi.o
                0x080176a0                rt_hw_spi_init
 .text.__NVIC_EnableIRQ
                0x080176e0       0x3c ./Libraries/rt_drivers/drv_usart.o
 .text.__NVIC_DisableIRQ
                0x0801771c       0x44 ./Libraries/rt_drivers/drv_usart.o
 .text.n32_uart_configure
                0x08017760      0x140 ./Libraries/rt_drivers/drv_usart.o
 .text.n32_uart_control
                0x080178a0       0x94 ./Libraries/rt_drivers/drv_usart.o
 .text.n32_uart_putc
                0x08017934       0xa0 ./Libraries/rt_drivers/drv_usart.o
 .text.n32_uart_getc
                0x080179d4       0x54 ./Libraries/rt_drivers/drv_usart.o
 .text.dma_uart_rx_idle_isr
                0x08017a28       0x78 ./Libraries/rt_drivers/drv_usart.o
 .text.dma_rx_done_isr
                0x08017aa0       0x5c ./Libraries/rt_drivers/drv_usart.o
 .text.uart_isr
                0x08017afc       0xe4 ./Libraries/rt_drivers/drv_usart.o
 .text.USART1_IRQHandler
                0x08017be0       0x1c ./Libraries/rt_drivers/drv_usart.o
                0x08017be0                USART1_IRQHandler
 .text.DMA1_Channel5_IRQHandler
                0x08017bfc       0x1c ./Libraries/rt_drivers/drv_usart.o
                0x08017bfc                DMA1_Channel5_IRQHandler
 .text.NVIC_Configuration
                0x08017c18       0x30 ./Libraries/rt_drivers/drv_usart.o
 .text.DMA_Configuration
                0x08017c48       0xf8 ./Libraries/rt_drivers/drv_usart.o
 .text.rt_hw_usart_init
                0x08017d40       0x64 ./Libraries/rt_drivers/drv_usart.o
                0x08017d40                rt_hw_usart_init
 .text.NVIC_Init
                0x08017da4       0xc8 ./Libraries/N32_Std_Driver/n32g45x_std_periph_driver/src/misc.o
                0x08017da4                NVIC_Init
 .text.DMA_DeInit
                0x08017e6c      0x1e0 ./Libraries/N32_Std_Driver/n32g45x_std_periph_driver/src/n32g45x_dma.o
                0x08017e6c                DMA_DeInit
 .text.DMA_Init
                0x0801804c       0x80 ./Libraries/N32_Std_Driver/n32g45x_std_periph_driver/src/n32g45x_dma.o
                0x0801804c                DMA_Init
 .text.DMA_EnableChannel
                0x080180cc       0x3c ./Libraries/N32_Std_Driver/n32g45x_std_periph_driver/src/n32g45x_dma.o
                0x080180cc                DMA_EnableChannel
 .text.DMA_ConfigInt
                0x08018108       0x3c ./Libraries/N32_Std_Driver/n32g45x_std_periph_driver/src/n32g45x_dma.o
                0x08018108                DMA_ConfigInt
 .text.DMA_GetCurrDataCounter
                0x08018144       0x1c ./Libraries/N32_Std_Driver/n32g45x_std_periph_driver/src/n32g45x_dma.o
                0x08018144                DMA_GetCurrDataCounter
 .text.DMA_ClearFlag
                0x08018160       0x1c ./Libraries/N32_Std_Driver/n32g45x_std_periph_driver/src/n32g45x_dma.o
                0x08018160                DMA_ClearFlag
 .text.EXTI_InitPeripheral
                0x0801817c       0xe4 ./Libraries/N32_Std_Driver/n32g45x_std_periph_driver/src/n32g45x_exti.o
                0x0801817c                EXTI_InitPeripheral
 .text.EXTI_GetITStatus
                0x08018260       0x48 ./Libraries/N32_Std_Driver/n32g45x_std_periph_driver/src/n32g45x_exti.o
                0x08018260                EXTI_GetITStatus
 .text.EXTI_ClrITPendBit
                0x080182a8       0x20 ./Libraries/N32_Std_Driver/n32g45x_std_periph_driver/src/n32g45x_exti.o
                0x080182a8                EXTI_ClrITPendBit
 .text.GPIO_InitPeripheral
                0x080182c8      0x17c ./Libraries/N32_Std_Driver/n32g45x_std_periph_driver/src/n32g45x_gpio.o
                0x080182c8                GPIO_InitPeripheral
 .text.GPIO_InitStruct
                0x08018444       0x28 ./Libraries/N32_Std_Driver/n32g45x_std_periph_driver/src/n32g45x_gpio.o
                0x08018444                GPIO_InitStruct
 .text.GPIO_ReadInputDataBit
                0x0801846c       0x34 ./Libraries/N32_Std_Driver/n32g45x_std_periph_driver/src/n32g45x_gpio.o
                0x0801846c                GPIO_ReadInputDataBit
 .text.GPIO_SetBits
                0x080184a0       0x20 ./Libraries/N32_Std_Driver/n32g45x_std_periph_driver/src/n32g45x_gpio.o
                0x080184a0                GPIO_SetBits
 .text.GPIO_ResetBits
                0x080184c0       0x20 ./Libraries/N32_Std_Driver/n32g45x_std_periph_driver/src/n32g45x_gpio.o
                0x080184c0                GPIO_ResetBits
 .text.GPIO_ConfigEXTILine
                0x080184e0       0x84 ./Libraries/N32_Std_Driver/n32g45x_std_periph_driver/src/n32g45x_gpio.o
                0x080184e0                GPIO_ConfigEXTILine
 .text.RCC_ConfigTim18Clk
                0x08018564       0x38 ./Libraries/N32_Std_Driver/n32g45x_std_periph_driver/src/n32g45x_rcc.o
                0x08018564                RCC_ConfigTim18Clk
 .text.RCC_GetClocksFreqValue
                0x0801859c      0x1a0 ./Libraries/N32_Std_Driver/n32g45x_std_periph_driver/src/n32g45x_rcc.o
                0x0801859c                RCC_GetClocksFreqValue
 .text.RCC_EnableAHBPeriphClk
                0x0801873c       0x40 ./Libraries/N32_Std_Driver/n32g45x_std_periph_driver/src/n32g45x_rcc.o
                0x0801873c                RCC_EnableAHBPeriphClk
 .text.RCC_EnableAPB2PeriphClk
                0x0801877c       0x40 ./Libraries/N32_Std_Driver/n32g45x_std_periph_driver/src/n32g45x_rcc.o
                0x0801877c                RCC_EnableAPB2PeriphClk
 .text.RCC_EnableAPB1PeriphClk
                0x080187bc       0x40 ./Libraries/N32_Std_Driver/n32g45x_std_periph_driver/src/n32g45x_rcc.o
                0x080187bc                RCC_EnableAPB1PeriphClk
 .text.SPI_Init
                0x080187fc       0x88 ./Libraries/N32_Std_Driver/n32g45x_std_periph_driver/src/n32g45x_spi.o
                0x080187fc                SPI_Init
 .text.SPI_Enable
                0x08018884       0x40 ./Libraries/N32_Std_Driver/n32g45x_std_periph_driver/src/n32g45x_spi.o
                0x08018884                SPI_Enable
 .text.SPI_I2S_TransmitData
                0x080188c4       0x20 ./Libraries/N32_Std_Driver/n32g45x_std_periph_driver/src/n32g45x_spi.o
                0x080188c4                SPI_I2S_TransmitData
 .text.SPI_I2S_ReceiveData
                0x080188e4       0x1c ./Libraries/N32_Std_Driver/n32g45x_std_periph_driver/src/n32g45x_spi.o
                0x080188e4                SPI_I2S_ReceiveData
 .text.SPI_I2S_GetStatus
                0x08018900       0x38 ./Libraries/N32_Std_Driver/n32g45x_std_periph_driver/src/n32g45x_spi.o
                0x08018900                SPI_I2S_GetStatus
 .text.TIM_InitTimeBase
                0x08018938      0x230 ./Libraries/N32_Std_Driver/n32g45x_std_periph_driver/src/n32g45x_tim.o
                0x08018938                TIM_InitTimeBase
 .text.TIM_InitOc1
                0x08018b68       0xfc ./Libraries/N32_Std_Driver/n32g45x_std_periph_driver/src/n32g45x_tim.o
                0x08018b68                TIM_InitOc1
 .text.TIM_InitOc2
                0x08018c64      0x10c ./Libraries/N32_Std_Driver/n32g45x_std_periph_driver/src/n32g45x_tim.o
                0x08018c64                TIM_InitOc2
 .text.TIM_InitOc3
                0x08018d70      0x108 ./Libraries/N32_Std_Driver/n32g45x_std_periph_driver/src/n32g45x_tim.o
                0x08018d70                TIM_InitOc3
 .text.TIM_InitOc4
                0x08018e78       0xcc ./Libraries/N32_Std_Driver/n32g45x_std_periph_driver/src/n32g45x_tim.o
                0x08018e78                TIM_InitOc4
 .text.TIM_InitTimBaseStruct
                0x08018f44       0x58 ./Libraries/N32_Std_Driver/n32g45x_std_periph_driver/src/n32g45x_tim.o
                0x08018f44                TIM_InitTimBaseStruct
 .text.TIM_InitOcStruct
                0x08018f9c       0x44 ./Libraries/N32_Std_Driver/n32g45x_std_periph_driver/src/n32g45x_tim.o
                0x08018f9c                TIM_InitOcStruct
 .text.TIM_Enable
                0x08018fe0       0x38 ./Libraries/N32_Std_Driver/n32g45x_std_periph_driver/src/n32g45x_tim.o
                0x08018fe0                TIM_Enable
 .text.TIM_EnableCtrlPwmOutputs
                0x08019018       0x4c ./Libraries/N32_Std_Driver/n32g45x_std_periph_driver/src/n32g45x_tim.o
                0x08019018                TIM_EnableCtrlPwmOutputs
 .text.TIM_ConfigArPreload
                0x08019064       0x38 ./Libraries/N32_Std_Driver/n32g45x_std_periph_driver/src/n32g45x_tim.o
                0x08019064                TIM_ConfigArPreload
 .text.TIM_ConfigOc1Preload
                0x0801909c       0x38 ./Libraries/N32_Std_Driver/n32g45x_std_periph_driver/src/n32g45x_tim.o
                0x0801909c                TIM_ConfigOc1Preload
 .text.TIM_ConfigOc2Preload
                0x080190d4       0x3c ./Libraries/N32_Std_Driver/n32g45x_std_periph_driver/src/n32g45x_tim.o
                0x080190d4                TIM_ConfigOc2Preload
 .text.TIM_ConfigOc3Preload
                0x08019110       0x38 ./Libraries/N32_Std_Driver/n32g45x_std_periph_driver/src/n32g45x_tim.o
                0x08019110                TIM_ConfigOc3Preload
 .text.TIM_ConfigOc4Preload
                0x08019148       0x3c ./Libraries/N32_Std_Driver/n32g45x_std_periph_driver/src/n32g45x_tim.o
                0x08019148                TIM_ConfigOc4Preload
 .text.TIM_EnableCapCmpCh
                0x08019184       0x48 ./Libraries/N32_Std_Driver/n32g45x_std_periph_driver/src/n32g45x_tim.o
                0x08019184                TIM_EnableCapCmpCh
 .text.USART_Init
                0x080191cc      0x140 ./Libraries/N32_Std_Driver/n32g45x_std_periph_driver/src/n32g45x_usart.o
                0x080191cc                USART_Init
 .text.USART_Enable
                0x0801930c       0x40 ./Libraries/N32_Std_Driver/n32g45x_std_periph_driver/src/n32g45x_usart.o
                0x0801930c                USART_Enable
 .text.USART_ConfigInt
                0x0801934c       0x90 ./Libraries/N32_Std_Driver/n32g45x_std_periph_driver/src/n32g45x_usart.o
                0x0801934c                USART_ConfigInt
 .text.USART_EnableDMA
                0x080193dc       0x48 ./Libraries/N32_Std_Driver/n32g45x_std_periph_driver/src/n32g45x_usart.o
                0x080193dc                USART_EnableDMA
 .text.USART_ReceiveData
                0x08019424       0x20 ./Libraries/N32_Std_Driver/n32g45x_std_periph_driver/src/n32g45x_usart.o
                0x08019424                USART_ReceiveData
 .text.USART_GetFlagStatus
                0x08019444       0x38 ./Libraries/N32_Std_Driver/n32g45x_std_periph_driver/src/n32g45x_usart.o
                0x08019444                USART_GetFlagStatus
 .text.USART_ClrFlag
                0x0801947c       0x24 ./Libraries/N32_Std_Driver/n32g45x_std_periph_driver/src/n32g45x_usart.o
                0x0801947c                USART_ClrFlag
 .text.USART_GetIntStatus
                0x080194a0       0xb8 ./Libraries/N32_Std_Driver/n32g45x_std_periph_driver/src/n32g45x_usart.o
                0x080194a0                USART_GetIntStatus
 .text.USART_ClrIntPendingBit
                0x08019558       0x3c ./Libraries/N32_Std_Driver/n32g45x_std_periph_driver/src/n32g45x_usart.o
                0x08019558                USART_ClrIntPendingBit
 .text.Reset_Handler
                0x08019594       0x44 ./Libraries/N32_Std_Driver/CMSIS/device/startup/startup_n32g45x_gcc.o
                0x08019594                Reset_Handler
 .text.Default_Handler
                0x080195d8        0x2 ./Libraries/N32_Std_Driver/CMSIS/device/startup/startup_n32g45x_gcc.o
                0x080195d8                TIM8_TRG_COM_IRQHandler
                0x080195d8                TIM8_CC_IRQHandler
                0x080195d8                DebugMon_Handler
                0x080195d8                TIM1_CC_IRQHandler
                0x080195d8                TSC_IRQHandler
                0x080195d8                SAC_IRQHandler
                0x080195d8                TIM6_IRQHandler
                0x080195d8                PVD_IRQHandler
                0x080195d8                SDIO_IRQHandler
                0x080195d8                DMA2_Channel8_IRQHandler
                0x080195d8                NMI_Handler
                0x080195d8                CAN2_RX1_IRQHandler
                0x080195d8                I2C3_ER_IRQHandler
                0x080195d8                I2C2_EV_IRQHandler
                0x080195d8                UsageFault_Handler
                0x080195d8                CAN2_SCE_IRQHandler
                0x080195d8                ADC1_2_IRQHandler
                0x080195d8                SPI1_IRQHandler
                0x080195d8                TAMPER_IRQHandler
                0x080195d8                CAN2_RX0_IRQHandler
                0x080195d8                TIM8_UP_IRQHandler
                0x080195d8                DMA2_Channel2_IRQHandler
                0x080195d8                DMA1_Channel4_IRQHandler
                0x080195d8                USART3_IRQHandler
                0x080195d8                DMA1_Channel7_IRQHandler
                0x080195d8                CAN1_RX1_IRQHandler
                0x080195d8                DVP_IRQHandler
                0x080195d8                UART5_IRQHandler
                0x080195d8                TIM4_IRQHandler
                0x080195d8                DMA2_Channel1_IRQHandler
                0x080195d8                I2C1_EV_IRQHandler
                0x080195d8                DMA1_Channel6_IRQHandler
                0x080195d8                UART4_IRQHandler
                0x080195d8                DMA2_Channel4_IRQHandler
                0x080195d8                TIM3_IRQHandler
                0x080195d8                RCC_IRQHandler
                0x080195d8                TIM1_TRG_COM_IRQHandler
                0x080195d8                DMA1_Channel1_IRQHandler
                0x080195d8                Default_Handler
                0x080195d8                DMA2_Channel7_IRQHandler
                0x080195d8                DMA1_Channel8_IRQHandler
                0x080195d8                TIM7_IRQHandler
                0x080195d8                CAN2_TX_IRQHandler
                0x080195d8                TIM5_IRQHandler
                0x080195d8                I2C3_EV_IRQHandler
                0x080195d8                RTC_WKUP_IRQHandler
                0x080195d8                MMU_IRQHandler
                0x080195d8                ETH_WKUP_IRQHandler
                0x080195d8                SPI2_IRQHandler
                0x080195d8                MemManage_Handler
                0x080195d8                SVC_Handler
                0x080195d8                DMA2_Channel5_IRQHandler
                0x080195d8                USB_LP_CAN1_RX0_IRQHandler
                0x080195d8                USB_HP_CAN1_TX_IRQHandler
                0x080195d8                DMA1_Channel3_IRQHandler
                0x080195d8                ETH_IRQHandler
                0x080195d8                TIM1_UP_IRQHandler
                0x080195d8                WWDG_IRQHandler
                0x080195d8                I2C4_EV_IRQHandler
                0x080195d8                DMA2_Channel6_IRQHandler
                0x080195d8                TIM2_IRQHandler
                0x080195d8                TIM1_BRK_IRQHandler
                0x080195d8                ADC3_4_IRQHandler
                0x080195d8                RTCAlarm_IRQHandler
                0x080195d8                UART7_IRQHandler
                0x080195d8                USART2_IRQHandler
                0x080195d8                UART6_IRQHandler
                0x080195d8                XFMC_IRQHandler
                0x080195d8                I2C2_ER_IRQHandler
                0x080195d8                DMA1_Channel2_IRQHandler
                0x080195d8                TIM8_BRK_IRQHandler
                0x080195d8                CAN1_SCE_IRQHandler
                0x080195d8                FLASH_IRQHandler
                0x080195d8                BusFault_Handler
                0x080195d8                SPI3_IRQHandler
                0x080195d8                I2C1_ER_IRQHandler
                0x080195d8                QSPI_IRQHandler
                0x080195d8                I2C4_ER_IRQHandler
                0x080195d8                USBWakeUp_IRQHandler
                0x080195d8                DMA2_Channel3_IRQHandler
 *fill*         0x080195da        0x2 00000000
 .text.SystemInit
                0x080195dc       0xc0 ./Libraries/N32_Std_Driver/CMSIS/device/system_n32g45x.o
                0x080195dc                SystemInit
 .text.SetSysClock
                0x0801969c      0x134 ./Libraries/N32_Std_Driver/CMSIS/device/system_n32g45x.o
 .text.atoi     0x080197d0        0x8 d:/rt-threadstudio/repo/extract/toolchain_support_packages/arm/gnu_tools_for_arm_embedded_processors/5.4.1/bin/../lib/gcc/arm-none-eabi/5.4.1/../../../../arm-none-eabi/lib/armv7e-m/fpu\libc_nano.a(lib_a-atoi.o)
                0x080197d0                atoi
 .text._fclose_r
                0x080197d8       0xa4 d:/rt-threadstudio/repo/extract/toolchain_support_packages/arm/gnu_tools_for_arm_embedded_processors/5.4.1/bin/../lib/gcc/arm-none-eabi/5.4.1/../../../../arm-none-eabi/lib/armv7e-m/fpu\libc_nano.a(lib_a-fclose.o)
                0x080197d8                _fclose_r
 .text.fclose   0x0801987c       0x10 d:/rt-threadstudio/repo/extract/toolchain_support_packages/arm/gnu_tools_for_arm_embedded_processors/5.4.1/bin/../lib/gcc/arm-none-eabi/5.4.1/../../../../arm-none-eabi/lib/armv7e-m/fpu\libc_nano.a(lib_a-fclose.o)
                0x0801987c                fclose
 .text.__sflush_r
                0x0801988c      0x110 d:/rt-threadstudio/repo/extract/toolchain_support_packages/arm/gnu_tools_for_arm_embedded_processors/5.4.1/bin/../lib/gcc/arm-none-eabi/5.4.1/../../../../arm-none-eabi/lib/armv7e-m/fpu\libc_nano.a(lib_a-fflush.o)
                0x0801988c                __sflush_r
 .text._fflush_r
                0x0801999c       0x54 d:/rt-threadstudio/repo/extract/toolchain_support_packages/arm/gnu_tools_for_arm_embedded_processors/5.4.1/bin/../lib/gcc/arm-none-eabi/5.4.1/../../../../arm-none-eabi/lib/armv7e-m/fpu\libc_nano.a(lib_a-fflush.o)
                0x0801999c                _fflush_r
 .text.fflush   0x080199f0       0x24 d:/rt-threadstudio/repo/extract/toolchain_support_packages/arm/gnu_tools_for_arm_embedded_processors/5.4.1/bin/../lib/gcc/arm-none-eabi/5.4.1/../../../../arm-none-eabi/lib/armv7e-m/fpu\libc_nano.a(lib_a-fflush.o)
                0x080199f0                fflush
 .text.fileno   0x08019a14       0x5c d:/rt-threadstudio/repo/extract/toolchain_support_packages/arm/gnu_tools_for_arm_embedded_processors/5.4.1/bin/../lib/gcc/arm-none-eabi/5.4.1/../../../../arm-none-eabi/lib/armv7e-m/fpu\libc_nano.a(lib_a-fileno.o)
                0x08019a14                fileno
 .text._cleanup_r
                0x08019a70        0xc d:/rt-threadstudio/repo/extract/toolchain_support_packages/arm/gnu_tools_for_arm_embedded_processors/5.4.1/bin/../lib/gcc/arm-none-eabi/5.4.1/../../../../arm-none-eabi/lib/armv7e-m/fpu\libc_nano.a(lib_a-findfp.o)
                0x08019a70                _cleanup_r
 .text.std.isra.0
                0x08019a7c       0x48 d:/rt-threadstudio/repo/extract/toolchain_support_packages/arm/gnu_tools_for_arm_embedded_processors/5.4.1/bin/../lib/gcc/arm-none-eabi/5.4.1/../../../../arm-none-eabi/lib/armv7e-m/fpu\libc_nano.a(lib_a-findfp.o)
 .text.__sfmoreglue
                0x08019ac4       0x2c d:/rt-threadstudio/repo/extract/toolchain_support_packages/arm/gnu_tools_for_arm_embedded_processors/5.4.1/bin/../lib/gcc/arm-none-eabi/5.4.1/../../../../arm-none-eabi/lib/armv7e-m/fpu\libc_nano.a(lib_a-findfp.o)
                0x08019ac4                __sfmoreglue
 .text.__sinit  0x08019af0       0x60 d:/rt-threadstudio/repo/extract/toolchain_support_packages/arm/gnu_tools_for_arm_embedded_processors/5.4.1/bin/../lib/gcc/arm-none-eabi/5.4.1/../../../../arm-none-eabi/lib/armv7e-m/fpu\libc_nano.a(lib_a-findfp.o)
                0x08019af0                __sinit
 .text.__sfp    0x08019b50       0x78 d:/rt-threadstudio/repo/extract/toolchain_support_packages/arm/gnu_tools_for_arm_embedded_processors/5.4.1/bin/../lib/gcc/arm-none-eabi/5.4.1/../../../../arm-none-eabi/lib/armv7e-m/fpu\libc_nano.a(lib_a-findfp.o)
                0x08019b50                __sfp
 .text.__sfp_lock_acquire
                0x08019bc8        0x2 d:/rt-threadstudio/repo/extract/toolchain_support_packages/arm/gnu_tools_for_arm_embedded_processors/5.4.1/bin/../lib/gcc/arm-none-eabi/5.4.1/../../../../arm-none-eabi/lib/armv7e-m/fpu\libc_nano.a(lib_a-findfp.o)
                0x08019bc8                __sfp_lock_acquire
 .text.__sfp_lock_release
                0x08019bca        0x2 d:/rt-threadstudio/repo/extract/toolchain_support_packages/arm/gnu_tools_for_arm_embedded_processors/5.4.1/bin/../lib/gcc/arm-none-eabi/5.4.1/../../../../arm-none-eabi/lib/armv7e-m/fpu\libc_nano.a(lib_a-findfp.o)
                0x08019bca                __sfp_lock_release
 .text._fopen_r
                0x08019bcc       0x80 d:/rt-threadstudio/repo/extract/toolchain_support_packages/arm/gnu_tools_for_arm_embedded_processors/5.4.1/bin/../lib/gcc/arm-none-eabi/5.4.1/../../../../arm-none-eabi/lib/armv7e-m/fpu\libc_nano.a(lib_a-fopen.o)
                0x08019bcc                _fopen_r
 .text.fopen    0x08019c4c       0x10 d:/rt-threadstudio/repo/extract/toolchain_support_packages/arm/gnu_tools_for_arm_embedded_processors/5.4.1/bin/../lib/gcc/arm-none-eabi/5.4.1/../../../../arm-none-eabi/lib/armv7e-m/fpu\libc_nano.a(lib_a-fopen.o)
                0x08019c4c                fopen
 .text._fseek_r
                0x08019c5c        0x4 d:/rt-threadstudio/repo/extract/toolchain_support_packages/arm/gnu_tools_for_arm_embedded_processors/5.4.1/bin/../lib/gcc/arm-none-eabi/5.4.1/../../../../arm-none-eabi/lib/armv7e-m/fpu\libc_nano.a(lib_a-fseek.o)
                0x08019c5c                _fseek_r
 .text._fseeko_r
                0x08019c60      0x118 d:/rt-threadstudio/repo/extract/toolchain_support_packages/arm/gnu_tools_for_arm_embedded_processors/5.4.1/bin/../lib/gcc/arm-none-eabi/5.4.1/../../../../arm-none-eabi/lib/armv7e-m/fpu\libc_nano.a(lib_a-fseeko.o)
                0x08019c60                _fseeko_r
 .text._fwalk   0x08019d78       0x38 d:/rt-threadstudio/repo/extract/toolchain_support_packages/arm/gnu_tools_for_arm_embedded_processors/5.4.1/bin/../lib/gcc/arm-none-eabi/5.4.1/../../../../arm-none-eabi/lib/armv7e-m/fpu\libc_nano.a(lib_a-fwalk.o)
                0x08019d78                _fwalk
 .text._fwalk_reent
                0x08019db0       0x3c d:/rt-threadstudio/repo/extract/toolchain_support_packages/arm/gnu_tools_for_arm_embedded_processors/5.4.1/bin/../lib/gcc/arm-none-eabi/5.4.1/../../../../arm-none-eabi/lib/armv7e-m/fpu\libc_nano.a(lib_a-fwalk.o)
                0x08019db0                _fwalk_reent
 .text.getc     0x08019dec       0x60 d:/rt-threadstudio/repo/extract/toolchain_support_packages/arm/gnu_tools_for_arm_embedded_processors/5.4.1/bin/../lib/gcc/arm-none-eabi/5.4.1/../../../../arm-none-eabi/lib/armv7e-m/fpu\libc_nano.a(lib_a-getc.o)
                0x08019dec                getc
 .text.__swhatbuf_r
                0x08019e4c       0x46 d:/rt-threadstudio/repo/extract/toolchain_support_packages/arm/gnu_tools_for_arm_embedded_processors/5.4.1/bin/../lib/gcc/arm-none-eabi/5.4.1/../../../../arm-none-eabi/lib/armv7e-m/fpu\libc_nano.a(lib_a-makebuf.o)
                0x08019e4c                __swhatbuf_r
 *fill*         0x08019e92        0x2 00000000
 .text.__smakebuf_r
                0x08019e94       0x78 d:/rt-threadstudio/repo/extract/toolchain_support_packages/arm/gnu_tools_for_arm_embedded_processors/5.4.1/bin/../lib/gcc/arm-none-eabi/5.4.1/../../../../arm-none-eabi/lib/armv7e-m/fpu\libc_nano.a(lib_a-makebuf.o)
                0x08019e94                __smakebuf_r
 .text.memcmp   0x08019f0c       0x1e d:/rt-threadstudio/repo/extract/toolchain_support_packages/arm/gnu_tools_for_arm_embedded_processors/5.4.1/bin/../lib/gcc/arm-none-eabi/5.4.1/../../../../arm-none-eabi/lib/armv7e-m/fpu\libc_nano.a(lib_a-memcmp.o)
                0x08019f0c                memcmp
 .text.memcpy   0x08019f2a       0x16 d:/rt-threadstudio/repo/extract/toolchain_support_packages/arm/gnu_tools_for_arm_embedded_processors/5.4.1/bin/../lib/gcc/arm-none-eabi/5.4.1/../../../../arm-none-eabi/lib/armv7e-m/fpu\libc_nano.a(lib_a-memcpy-stub.o)
                0x08019f2a                memcpy
 .text.memset   0x08019f40       0x10 d:/rt-threadstudio/repo/extract/toolchain_support_packages/arm/gnu_tools_for_arm_embedded_processors/5.4.1/bin/../lib/gcc/arm-none-eabi/5.4.1/../../../../arm-none-eabi/lib/armv7e-m/fpu\libc_nano.a(lib_a-memset.o)
                0x08019f40                memset
 .text.putenv   0x08019f50       0x10 d:/rt-threadstudio/repo/extract/toolchain_support_packages/arm/gnu_tools_for_arm_embedded_processors/5.4.1/bin/../lib/gcc/arm-none-eabi/5.4.1/../../../../arm-none-eabi/lib/armv7e-m/fpu\libc_nano.a(lib_a-putenv.o)
                0x08019f50                putenv
 .text._putenv_r
                0x08019f60       0x42 d:/rt-threadstudio/repo/extract/toolchain_support_packages/arm/gnu_tools_for_arm_embedded_processors/5.4.1/bin/../lib/gcc/arm-none-eabi/5.4.1/../../../../arm-none-eabi/lib/armv7e-m/fpu\libc_nano.a(lib_a-putenv_r.o)
                0x08019f60                _putenv_r
 *fill*         0x08019fa2        0x2 00000000
 .text.__srget_r
                0x08019fa4       0x58 d:/rt-threadstudio/repo/extract/toolchain_support_packages/arm/gnu_tools_for_arm_embedded_processors/5.4.1/bin/../lib/gcc/arm-none-eabi/5.4.1/../../../../arm-none-eabi/lib/armv7e-m/fpu\libc_nano.a(lib_a-rget.o)
                0x08019fa4                __srget_r
 .text._setenv_r
                0x08019ffc      0x138 d:/rt-threadstudio/repo/extract/toolchain_support_packages/arm/gnu_tools_for_arm_embedded_processors/5.4.1/bin/../lib/gcc/arm-none-eabi/5.4.1/../../../../arm-none-eabi/lib/armv7e-m/fpu\libc_nano.a(lib_a-setenv_r.o)
                0x08019ffc                _setenv_r
 .text.setvbuf  0x0801a134      0x154 d:/rt-threadstudio/repo/extract/toolchain_support_packages/arm/gnu_tools_for_arm_embedded_processors/5.4.1/bin/../lib/gcc/arm-none-eabi/5.4.1/../../../../arm-none-eabi/lib/armv7e-m/fpu\libc_nano.a(lib_a-setvbuf.o)
                0x0801a134                setvbuf
 .text.snprintf
                0x0801a288       0x64 d:/rt-threadstudio/repo/extract/toolchain_support_packages/arm/gnu_tools_for_arm_embedded_processors/5.4.1/bin/../lib/gcc/arm-none-eabi/5.4.1/../../../../arm-none-eabi/lib/armv7e-m/fpu\libc_nano.a(lib_a-snprintf.o)
                0x0801a288                sniprintf
                0x0801a288                snprintf
 .text.__sread  0x0801a2ec       0x22 d:/rt-threadstudio/repo/extract/toolchain_support_packages/arm/gnu_tools_for_arm_embedded_processors/5.4.1/bin/../lib/gcc/arm-none-eabi/5.4.1/../../../../arm-none-eabi/lib/armv7e-m/fpu\libc_nano.a(lib_a-stdio.o)
                0x0801a2ec                __sread
 .text.__swrite
                0x0801a30e       0x38 d:/rt-threadstudio/repo/extract/toolchain_support_packages/arm/gnu_tools_for_arm_embedded_processors/5.4.1/bin/../lib/gcc/arm-none-eabi/5.4.1/../../../../arm-none-eabi/lib/armv7e-m/fpu\libc_nano.a(lib_a-stdio.o)
                0x0801a30e                __swrite
 .text.__sseek  0x0801a346       0x24 d:/rt-threadstudio/repo/extract/toolchain_support_packages/arm/gnu_tools_for_arm_embedded_processors/5.4.1/bin/../lib/gcc/arm-none-eabi/5.4.1/../../../../arm-none-eabi/lib/armv7e-m/fpu\libc_nano.a(lib_a-stdio.o)
                0x0801a346                __sseek
 .text.__sclose
                0x0801a36a        0x8 d:/rt-threadstudio/repo/extract/toolchain_support_packages/arm/gnu_tools_for_arm_embedded_processors/5.4.1/bin/../lib/gcc/arm-none-eabi/5.4.1/../../../../arm-none-eabi/lib/armv7e-m/fpu\libc_nano.a(lib_a-stdio.o)
                0x0801a36a                __sclose
 .text.strchr   0x0801a372       0x1c d:/rt-threadstudio/repo/extract/toolchain_support_packages/arm/gnu_tools_for_arm_embedded_processors/5.4.1/bin/../lib/gcc/arm-none-eabi/5.4.1/../../../../arm-none-eabi/lib/armv7e-m/fpu\libc_nano.a(lib_a-strchr.o)
                0x0801a372                strchr
 .text.strcpy   0x0801a38e       0x10 d:/rt-threadstudio/repo/extract/toolchain_support_packages/arm/gnu_tools_for_arm_embedded_processors/5.4.1/bin/../lib/gcc/arm-none-eabi/5.4.1/../../../../arm-none-eabi/lib/armv7e-m/fpu\libc_nano.a(lib_a-strcpy.o)
                0x0801a38e                strcpy
 .text._strdup_r
                0x0801a39e       0x26 d:/rt-threadstudio/repo/extract/toolchain_support_packages/arm/gnu_tools_for_arm_embedded_processors/5.4.1/bin/../lib/gcc/arm-none-eabi/5.4.1/../../../../arm-none-eabi/lib/armv7e-m/fpu\libc_nano.a(lib_a-strdup_r.o)
                0x0801a39e                _strdup_r
 .text.strncmp  0x0801a3c4       0x2a d:/rt-threadstudio/repo/extract/toolchain_support_packages/arm/gnu_tools_for_arm_embedded_processors/5.4.1/bin/../lib/gcc/arm-none-eabi/5.4.1/../../../../arm-none-eabi/lib/armv7e-m/fpu\libc_nano.a(lib_a-strncmp.o)
                0x0801a3c4                strncmp
 .text.strncpy  0x0801a3ee       0x26 d:/rt-threadstudio/repo/extract/toolchain_support_packages/arm/gnu_tools_for_arm_embedded_processors/5.4.1/bin/../lib/gcc/arm-none-eabi/5.4.1/../../../../arm-none-eabi/lib/armv7e-m/fpu\libc_nano.a(lib_a-strncpy.o)
                0x0801a3ee                strncpy
 .text.strrchr  0x0801a414       0x26 d:/rt-threadstudio/repo/extract/toolchain_support_packages/arm/gnu_tools_for_arm_embedded_processors/5.4.1/bin/../lib/gcc/arm-none-eabi/5.4.1/../../../../arm-none-eabi/lib/armv7e-m/fpu\libc_nano.a(lib_a-strrchr.o)
                0x0801a414                strrchr
 .text.strstr   0x0801a43a       0x34 d:/rt-threadstudio/repo/extract/toolchain_support_packages/arm/gnu_tools_for_arm_embedded_processors/5.4.1/bin/../lib/gcc/arm-none-eabi/5.4.1/../../../../arm-none-eabi/lib/armv7e-m/fpu\libc_nano.a(lib_a-strstr.o)
                0x0801a43a                strstr
 .text._strtol_l.isra.0
                0x0801a46e      0x110 d:/rt-threadstudio/repo/extract/toolchain_support_packages/arm/gnu_tools_for_arm_embedded_processors/5.4.1/bin/../lib/gcc/arm-none-eabi/5.4.1/../../../../arm-none-eabi/lib/armv7e-m/fpu\libc_nano.a(lib_a-strtol.o)
 *fill*         0x0801a57e        0x2 00000000
 .text.strtol   0x0801a580       0x2c d:/rt-threadstudio/repo/extract/toolchain_support_packages/arm/gnu_tools_for_arm_embedded_processors/5.4.1/bin/../lib/gcc/arm-none-eabi/5.4.1/../../../../arm-none-eabi/lib/armv7e-m/fpu\libc_nano.a(lib_a-strtol.o)
                0x0801a580                strtol
 .text._vsnprintf_r
                0x0801a5ac       0x56 d:/rt-threadstudio/repo/extract/toolchain_support_packages/arm/gnu_tools_for_arm_embedded_processors/5.4.1/bin/../lib/gcc/arm-none-eabi/5.4.1/../../../../arm-none-eabi/lib/armv7e-m/fpu\libc_nano.a(lib_a-vsnprintf.o)
                0x0801a5ac                _vsniprintf_r
                0x0801a5ac                _vsnprintf_r
 *fill*         0x0801a602        0x2 00000000
 .text.vsnprintf
                0x0801a604       0x1c d:/rt-threadstudio/repo/extract/toolchain_support_packages/arm/gnu_tools_for_arm_embedded_processors/5.4.1/bin/../lib/gcc/arm-none-eabi/5.4.1/../../../../arm-none-eabi/lib/armv7e-m/fpu\libc_nano.a(lib_a-vsnprintf.o)
                0x0801a604                vsniprintf
                0x0801a604                vsnprintf
 .text.__env_lock
                0x0801a620        0x2 d:/rt-threadstudio/repo/extract/toolchain_support_packages/arm/gnu_tools_for_arm_embedded_processors/5.4.1/bin/../lib/gcc/arm-none-eabi/5.4.1/../../../../arm-none-eabi/lib/armv7e-m/fpu\libc_nano.a(lib_a-envlock.o)
                0x0801a620                __env_lock
 .text.__env_unlock
                0x0801a622        0x2 d:/rt-threadstudio/repo/extract/toolchain_support_packages/arm/gnu_tools_for_arm_embedded_processors/5.4.1/bin/../lib/gcc/arm-none-eabi/5.4.1/../../../../arm-none-eabi/lib/armv7e-m/fpu\libc_nano.a(lib_a-envlock.o)
                0x0801a622                __env_unlock
 .text.__sflags
                0x0801a624       0x6e d:/rt-threadstudio/repo/extract/toolchain_support_packages/arm/gnu_tools_for_arm_embedded_processors/5.4.1/bin/../lib/gcc/arm-none-eabi/5.4.1/../../../../arm-none-eabi/lib/armv7e-m/fpu\libc_nano.a(lib_a-flags.o)
                0x0801a624                __sflags
 *fill*         0x0801a692        0x2 00000000
 .text._findenv_r
                0x0801a694       0x78 d:/rt-threadstudio/repo/extract/toolchain_support_packages/arm/gnu_tools_for_arm_embedded_processors/5.4.1/bin/../lib/gcc/arm-none-eabi/5.4.1/../../../../arm-none-eabi/lib/armv7e-m/fpu\libc_nano.a(lib_a-getenv_r.o)
                0x0801a694                _findenv_r
 .text.__locale_ctype_ptr_l
                0x0801a70c        0x6 d:/rt-threadstudio/repo/extract/toolchain_support_packages/arm/gnu_tools_for_arm_embedded_processors/5.4.1/bin/../lib/gcc/arm-none-eabi/5.4.1/../../../../arm-none-eabi/lib/armv7e-m/fpu\libc_nano.a(lib_a-locale.o)
                0x0801a70c                __locale_ctype_ptr_l
 *fill*         0x0801a712        0x2 00000000
 .text.malloc   0x0801a714       0x10 d:/rt-threadstudio/repo/extract/toolchain_support_packages/arm/gnu_tools_for_arm_embedded_processors/5.4.1/bin/../lib/gcc/arm-none-eabi/5.4.1/../../../../arm-none-eabi/lib/armv7e-m/fpu\libc_nano.a(lib_a-malloc.o)
                0x0801a714                malloc
 .text.__ascii_mbtowc
                0x0801a724       0x24 d:/rt-threadstudio/repo/extract/toolchain_support_packages/arm/gnu_tools_for_arm_embedded_processors/5.4.1/bin/../lib/gcc/arm-none-eabi/5.4.1/../../../../arm-none-eabi/lib/armv7e-m/fpu\libc_nano.a(lib_a-mbtowc_r.o)
                0x0801a724                __ascii_mbtowc
 .text.__ssputs_r
                0x0801a748       0xb2 d:/rt-threadstudio/repo/extract/toolchain_support_packages/arm/gnu_tools_for_arm_embedded_processors/5.4.1/bin/../lib/gcc/arm-none-eabi/5.4.1/../../../../arm-none-eabi/lib/armv7e-m/fpu\libc_nano.a(lib_a-nano-svfprintf.o)
                0x0801a748                __ssputs_r
 *fill*         0x0801a7fa        0x2 00000000
 .text._svfprintf_r
                0x0801a7fc      0x1e8 d:/rt-threadstudio/repo/extract/toolchain_support_packages/arm/gnu_tools_for_arm_embedded_processors/5.4.1/bin/../lib/gcc/arm-none-eabi/5.4.1/../../../../arm-none-eabi/lib/armv7e-m/fpu\libc_nano.a(lib_a-nano-svfprintf.o)
                0x0801a7fc                _svfiprintf_r
                0x0801a7fc                _svfprintf_r
 .text._printf_common
                0x0801a9e4       0xec d:/rt-threadstudio/repo/extract/toolchain_support_packages/arm/gnu_tools_for_arm_embedded_processors/5.4.1/bin/../lib/gcc/arm-none-eabi/5.4.1/../../../../arm-none-eabi/lib/armv7e-m/fpu\libc_nano.a(lib_a-nano-vfprintf_i.o)
                0x0801a9e4                _printf_common
 .text._printf_i
                0x0801aad0      0x24c d:/rt-threadstudio/repo/extract/toolchain_support_packages/arm/gnu_tools_for_arm_embedded_processors/5.4.1/bin/../lib/gcc/arm-none-eabi/5.4.1/../../../../arm-none-eabi/lib/armv7e-m/fpu\libc_nano.a(lib_a-nano-vfprintf_i.o)
                0x0801aad0                _printf_i
 .text.lflush   0x0801ad1c       0x12 d:/rt-threadstudio/repo/extract/toolchain_support_packages/arm/gnu_tools_for_arm_embedded_processors/5.4.1/bin/../lib/gcc/arm-none-eabi/5.4.1/../../../../arm-none-eabi/lib/armv7e-m/fpu\libc_nano.a(lib_a-refill.o)
 *fill*         0x0801ad2e        0x2 00000000
 .text.__srefill_r
                0x0801ad30      0x110 d:/rt-threadstudio/repo/extract/toolchain_support_packages/arm/gnu_tools_for_arm_embedded_processors/5.4.1/bin/../lib/gcc/arm-none-eabi/5.4.1/../../../../arm-none-eabi/lib/armv7e-m/fpu\libc_nano.a(lib_a-refill.o)
                0x0801ad30                __srefill_r
 .text.__ascii_wctomb
                0x0801ae40       0x1a d:/rt-threadstudio/repo/extract/toolchain_support_packages/arm/gnu_tools_for_arm_embedded_processors/5.4.1/bin/../lib/gcc/arm-none-eabi/5.4.1/../../../../arm-none-eabi/lib/armv7e-m/fpu\libc_nano.a(lib_a-wctomb_r.o)
                0x0801ae40                __ascii_wctomb
 .text.memmove  0x0801ae5a       0x36 d:/rt-threadstudio/repo/extract/toolchain_support_packages/arm/gnu_tools_for_arm_embedded_processors/5.4.1/bin/../lib/gcc/arm-none-eabi/5.4.1/../../../../arm-none-eabi/lib/armv7e-m/fpu\libc_nano.a(lib_a-memmove.o)
                0x0801ae5a                memmove
 *(.rodata)
 .rodata        0x0801ae90       0x17 ./rt-thread/src/components.o
 *fill*         0x0801aea7        0x1 00000000
 .rodata        0x0801aea8      0x108 ./rt-thread/src/device.o
 .rodata        0x0801afb0       0x34 ./rt-thread/src/idle.o
 .rodata        0x0801afe4      0x476 ./rt-thread/src/ipc.o
 *fill*         0x0801b45a        0x2 00000000
 .rodata        0x0801b45c       0xd7 ./rt-thread/src/kservice.o
 *fill*         0x0801b533        0x1 00000000
 .rodata        0x0801b534      0x2fa ./rt-thread/src/mem.o
 *fill*         0x0801b82e        0x2 00000000
 .rodata        0x0801b830       0x91 ./rt-thread/src/object.o
 *fill*         0x0801b8c1        0x3 00000000
 .rodata        0x0801b8c4       0x65 ./rt-thread/src/scheduler.o
 *fill*         0x0801b929        0x3 00000000
 .rodata        0x0801b92c      0x19e ./rt-thread/src/thread.o
 *fill*         0x0801baca        0x2 00000000
 .rodata        0x0801bacc       0xde ./rt-thread/src/timer.o
 *fill*         0x0801bbaa        0x2 00000000
 .rodata        0x0801bbac      0x2ce ./rt-thread/libcpu/arm/cortex-m4/cpuport.o
 *fill*         0x0801be7a        0x2 00000000
 .rodata        0x0801be7c      0x19c ./rt-thread/components/net/at/src/at_cli.o
 .rodata        0x0801c018      0x5cf ./rt-thread/components/net/at/src/at_client.o
 *fill*         0x0801c5e7        0x1 00000000
 .rodata        0x0801c5e8       0x37 ./rt-thread/components/net/at/src/at_utils.o
 *fill*         0x0801c61f        0x1 00000000
 .rodata        0x0801c620       0x17 ./rt-thread/components/libc/compilers/gcc/newlib/libc.o
 *fill*         0x0801c637        0x1 00000000
 .rodata        0x0801c638       0x13 ./rt-thread/components/libc/compilers/gcc/newlib/stdio.o
 *fill*         0x0801c64b        0x1 00000000
 .rodata        0x0801c64c       0x8b ./rt-thread/components/libc/compilers/gcc/newlib/syscalls.o
 *fill*         0x0801c6d7        0x1 00000000
 .rodata        0x0801c6d8      0x665 ./rt-thread/components/finsh/cmd.o
 *fill*         0x0801cd3d        0x3 00000000
 .rodata        0x0801cd40       0x7c ./rt-thread/components/finsh/msh.o
 .rodata        0x0801cdbc      0x496 ./rt-thread/components/finsh/msh_file.o
 *fill*         0x0801d252        0x2 00000000
 .rodata        0x0801d254       0x71 ./rt-thread/components/finsh/shell.o
 *fill*         0x0801d2c5        0x3 00000000
 .rodata        0x0801d2c8       0x72 ./rt-thread/components/drivers/src/completion.o
 *fill*         0x0801d33a        0x2 00000000
 .rodata        0x0801d33c       0x90 ./rt-thread/components/drivers/src/dataqueue.o
 .rodata        0x0801d3cc       0x19 ./rt-thread/components/drivers/src/ringbuffer.o
 *fill*         0x0801d3e5        0x3 00000000
 .rodata        0x0801d3e8       0x2a ./rt-thread/components/drivers/src/waitqueue.o
 *fill*         0x0801d412        0x2 00000000
 .rodata        0x0801d414       0x49 ./rt-thread/components/drivers/spi/spi_core.o
 *fill*         0x0801d45d        0x3 00000000
 .rodata        0x0801d460       0x63 ./rt-thread/components/drivers/spi/spi_dev.o
 *fill*         0x0801d4c3        0x1 00000000
 .rodata        0x0801d4c4      0x1f6 ./rt-thread/components/drivers/serial/serial.o
 *fill*         0x0801d6ba        0x2 00000000
 .rodata        0x0801d6bc      0x901 ./rt-thread/components/drivers/sensors/sensor_cmd.o
 *fill*         0x0801dfbd        0x3 00000000
 .rodata        0x0801dfc0      0x113 ./rt-thread/components/drivers/sdio/block_dev.o
 *fill*         0x0801e0d3        0x1 00000000
 .rodata        0x0801e0d4      0x15e ./rt-thread/components/drivers/sdio/mmc.o
 *fill*         0x0801e232        0x2 00000000
 .rodata        0x0801e234       0xe9 ./rt-thread/components/drivers/sdio/mmcsd_core.o
 *fill*         0x0801e31d        0x3 00000000
 .rodata        0x0801e320      0x10f ./rt-thread/components/drivers/sdio/sd.o
 *fill*         0x0801e42f        0x1 00000000
 .rodata        0x0801e430      0x2a8 ./rt-thread/components/drivers/sdio/sdio.o
 .rodata        0x0801e6d8       0x37 ./rt-thread/components/drivers/misc/pin.o
 *fill*         0x0801e70f        0x1 00000000
 .rodata        0x0801e710      0x1ab ./rt-thread/components/drivers/misc/rt_drv_pwm.o
 *fill*         0x0801e8bb        0x1 00000000
 .rodata        0x0801e8bc       0xb4 ./rt-thread/components/drivers/i2c/i2c-bit-ops.o
 .rodata        0x0801e970       0x8b ./rt-thread/components/drivers/i2c/i2c_core.o
 *fill*         0x0801e9fb        0x1 00000000
 .rodata        0x0801e9fc       0x22 ./rt-thread/components/drivers/i2c/i2c_dev.o
 *fill*         0x0801ea1e        0x2 00000000
 .rodata        0x0801ea20      0x138 ./rt-thread/components/dfs/src/dfs.o
 .rodata        0x0801eb58      0x1cc ./rt-thread/components/dfs/src/dfs_file.o
 .rodata        0x0801ed24      0x1c4 ./rt-thread/components/dfs/src/dfs_fs.o
 .rodata        0x0801eee8        0x4 ./rt-thread/components/dfs/src/dfs_posix.o
 .rodata        0x0801eeec       0x5a ./rt-thread/components/dfs/filesystems/devfs/devfs.o
 *fill*         0x0801ef46        0x2 00000000
 .rodata        0x0801ef48       0x5d ./board/msp/n32_msp.o
 *fill*         0x0801efa5        0x3 00000000
 .rodata        0x0801efa8        0x6 ./board/board.o
 *fill*         0x0801efae        0x2 00000000
 .rodata        0x0801efb0      0x143 ./applications/main.o
 *fill*         0x0801f0f3        0x1 00000000
 .rodata        0x0801f0f4       0x18 ./applications/motor.o
 .rodata        0x0801f10c       0x10 ./applications/oled.o
 .rodata        0x0801f11c        0x4 ./Libraries/rt_drivers/drv_gpio.o
 .rodata        0x0801f120       0x6b ./Libraries/rt_drivers/drv_pwm.o
 *fill*         0x0801f18b        0x1 00000000
 .rodata        0x0801f18c       0x19 ./Libraries/rt_drivers/drv_soft_i2c.o
 *fill*         0x0801f1a5        0x3 00000000
 .rodata        0x0801f1a8       0x55 ./Libraries/rt_drivers/drv_spi.o
 *fill*         0x0801f1fd        0x3 00000000
 .rodata        0x0801f200       0x64 ./Libraries/rt_drivers/drv_usart.o
 *(.rodata*)
 .rodata.__FUNCTION__.5169
                0x0801f264       0x14 ./rt-thread/src/components.o
 .rodata.__FUNCTION__.5218
                0x0801f278        0xf ./rt-thread/src/device.o
 *fill*         0x0801f287        0x1 00000000
 .rodata.__FUNCTION__.6773
                0x0801f288       0x15 ./rt-thread/src/device.o
 *fill*         0x0801f29d        0x3 00000000
 .rodata.__FUNCTION__.6797
                0x0801f2a0        0xf ./rt-thread/src/device.o
 *fill*         0x0801f2af        0x1 00000000
 .rodata.__FUNCTION__.6802
                0x0801f2b0       0x10 ./rt-thread/src/device.o
 .rodata.__FUNCTION__.6809
                0x0801f2c0        0xf ./rt-thread/src/device.o
 *fill*         0x0801f2cf        0x1 00000000
 .rodata.__FUNCTION__.6816
                0x0801f2d0       0x10 ./rt-thread/src/device.o
 .rodata.__FUNCTION__.6822
                0x0801f2e0       0x12 ./rt-thread/src/device.o
 *fill*         0x0801f2f2        0x2 00000000
 .rodata.__FUNCTION__.6829
                0x0801f2f4       0x1a ./rt-thread/src/device.o
 *fill*         0x0801f30e        0x2 00000000
 .rodata.__FUNCTION__.5161
                0x0801f310       0x13 ./rt-thread/src/idle.o
 *fill*         0x0801f323        0x1 00000000
 .rodata.__FUNCTION__.5162
                0x0801f324        0xc ./rt-thread/src/ipc.o
 .rodata.__FUNCTION__.5166
                0x0801f330        0xe ./rt-thread/src/ipc.o
 *fill*         0x0801f33e        0x2 00000000
 .rodata.__FUNCTION__.5174
                0x0801f340        0xe ./rt-thread/src/ipc.o
 *fill*         0x0801f34e        0x2 00000000
 .rodata.__FUNCTION__.5179
                0x0801f350        0xe ./rt-thread/src/ipc.o
 *fill*         0x0801f35e        0x2 00000000
 .rodata.__FUNCTION__.5186
                0x0801f360        0xc ./rt-thread/src/ipc.o
 .rodata.__FUNCTION__.5143
                0x0801f36c       0x12 ./rt-thread/src/ipc.o
 *fill*         0x0801f37e        0x2 00000000
 .rodata.__FUNCTION__.5197
                0x0801f380        0xf ./rt-thread/src/ipc.o
 *fill*         0x0801f38f        0x1 00000000
 .rodata.__FUNCTION__.5204
                0x0801f390        0xf ./rt-thread/src/ipc.o
 *fill*         0x0801f39f        0x1 00000000
 .rodata.__FUNCTION__.5211
                0x0801f3a0        0xe ./rt-thread/src/ipc.o
 *fill*         0x0801f3ae        0x2 00000000
 .rodata.__FUNCTION__.5235
                0x0801f3b0        0xe ./rt-thread/src/ipc.o
 *fill*         0x0801f3be        0x2 00000000
 .rodata.__FUNCTION__.5246
                0x0801f3c0       0x11 ./rt-thread/src/ipc.o
 *fill*         0x0801f3d1        0x3 00000000
 .rodata.__FUNCTION__.5317
                0x0801f3d4        0xb ./rt-thread/src/ipc.o
 *fill*         0x0801f3df        0x1 00000000
 .rodata.__FUNCTION__.5343
                0x0801f3e0       0x10 ./rt-thread/src/ipc.o
 .rodata.__FUNCTION__.5367
                0x0801f3f0        0xb ./rt-thread/src/ipc.o
 *fill*         0x0801f3fb        0x1 00000000
 .rodata.__lowest_bit_bitmap
                0x0801f3fc      0x100 ./rt-thread/src/kservice.o
                0x0801f3fc                __lowest_bit_bitmap
 .rodata.large_digits.5294
                0x0801f4fc       0x11 ./rt-thread/src/kservice.o
 *fill*         0x0801f50d        0x3 00000000
 .rodata.small_digits.5293
                0x0801f510       0x11 ./rt-thread/src/kservice.o
 *fill*         0x0801f521        0x3 00000000
 .rodata.__FUNCTION__.5151
                0x0801f524        0xb ./rt-thread/src/mem.o
 *fill*         0x0801f52f        0x1 00000000
 .rodata.__FUNCTION__.5160
                0x0801f530       0x14 ./rt-thread/src/mem.o
 .rodata.__FUNCTION__.5169
                0x0801f544        0xa ./rt-thread/src/mem.o
 *fill*         0x0801f54e        0x2 00000000
 .rodata.__FUNCTION__.5187
                0x0801f550        0xb ./rt-thread/src/mem.o
 *fill*         0x0801f55b        0x1 00000000
 .rodata.__FUNCTION__.5198
                0x0801f55c        0x8 ./rt-thread/src/mem.o
 .rodata.__FUNCTION__.5200
                0x0801f564        0xf ./rt-thread/src/object.o
 *fill*         0x0801f573        0x1 00000000
 .rodata.__FUNCTION__.5209
                0x0801f574       0x11 ./rt-thread/src/object.o
 *fill*         0x0801f585        0x3 00000000
 .rodata.__FUNCTION__.5218
                0x0801f588       0x13 ./rt-thread/src/object.o
 *fill*         0x0801f59b        0x1 00000000
 .rodata.__FUNCTION__.5223
                0x0801f59c       0x11 ./rt-thread/src/object.o
 *fill*         0x0801f5ad        0x3 00000000
 .rodata.__FUNCTION__.5227
                0x0801f5b0       0x1a ./rt-thread/src/object.o
 *fill*         0x0801f5ca        0x2 00000000
 .rodata.__FUNCTION__.5231
                0x0801f5cc       0x13 ./rt-thread/src/object.o
 *fill*         0x0801f5df        0x1 00000000
 .rodata.__FUNCTION__.5240
                0x0801f5e0        0xf ./rt-thread/src/object.o
 *fill*         0x0801f5ef        0x1 00000000
 .rodata.__FUNCTION__.5143
                0x0801f5f0       0x1a ./rt-thread/src/scheduler.o
 *fill*         0x0801f60a        0x2 00000000
 .rodata.__FUNCTION__.5181
                0x0801f60c       0x1a ./rt-thread/src/scheduler.o
 *fill*         0x0801f626        0x2 00000000
 .rodata.__FUNCTION__.5187
                0x0801f628       0x1a ./rt-thread/src/scheduler.o
 *fill*         0x0801f642        0x2 00000000
 .rodata.__FUNCTION__.5158
                0x0801f644        0xd ./rt-thread/src/thread.o
 *fill*         0x0801f651        0x3 00000000
 .rodata.__FUNCTION__.5170
                0x0801f654        0xf ./rt-thread/src/thread.o
 *fill*         0x0801f663        0x1 00000000
 .rodata.__FUNCTION__.5179
                0x0801f664       0x12 ./rt-thread/src/thread.o
 *fill*         0x0801f676        0x2 00000000
 .rodata.__FUNCTION__.5184
                0x0801f678       0x11 ./rt-thread/src/thread.o
 *fill*         0x0801f689        0x3 00000000
 .rodata.__FUNCTION__.5200
                0x0801f68c       0x11 ./rt-thread/src/thread.o
 *fill*         0x0801f69d        0x3 00000000
 .rodata.__FUNCTION__.5211
                0x0801f6a0       0x10 ./rt-thread/src/thread.o
 .rodata.__FUNCTION__.5238
                0x0801f6b0       0x12 ./rt-thread/src/thread.o
 *fill*         0x0801f6c2        0x2 00000000
 .rodata.__FUNCTION__.5250
                0x0801f6c4       0x12 ./rt-thread/src/thread.o
 *fill*         0x0801f6d6        0x2 00000000
 .rodata.__FUNCTION__.5255
                0x0801f6d8       0x11 ./rt-thread/src/thread.o
 *fill*         0x0801f6e9        0x3 00000000
 .rodata.__FUNCTION__.5261
                0x0801f6ec       0x12 ./rt-thread/src/thread.o
 *fill*         0x0801f6fe        0x2 00000000
 .rodata.__FUNCTION__.5175
                0x0801f700        0xe ./rt-thread/src/timer.o
 *fill*         0x0801f70e        0x2 00000000
 .rodata.__FUNCTION__.5180
                0x0801f710       0x10 ./rt-thread/src/timer.o
 .rodata.__FUNCTION__.5205
                0x0801f720        0xf ./rt-thread/src/timer.o
 *fill*         0x0801f72f        0x1 00000000
 .rodata.__FUNCTION__.5222
                0x0801f730        0xe ./rt-thread/src/timer.o
 *fill*         0x0801f73e        0x2 00000000
 .rodata.__FUNCTION__.5229
                0x0801f740       0x11 ./rt-thread/src/timer.o
 *fill*         0x0801f751        0x3 00000000
 .rodata.name   0x0801f754       0x3e ./rt-thread/components/net/at/src/at_cli.o
                0x0801f754                __fsym_at_name
                0x0801f758                __fsym_at_desc
 *fill*         0x0801f792        0x2 00000000
 .rodata.__FUNCTION__.7952
                0x0801f794        0xc ./rt-thread/components/net/at/src/at_cli.o
 .rodata.__FUNCTION__.6819
                0x0801f7a0       0x10 ./rt-thread/components/net/at/src/at_client.o
 .rodata.__FUNCTION__.6879
                0x0801f7b0        0xe ./rt-thread/components/net/at/src/at_client.o
 *fill*         0x0801f7be        0x2 00000000
 .rodata.name   0x0801f7c0      0x1e4 ./rt-thread/components/finsh/cmd.o
                0x0801f7c0                __fsym_hello_name
                0x0801f7c8                __fsym_hello_desc
                0x0801f7d8                __fsym_clear_name
                0x0801f7e0                __fsym_clear_desc
                0x0801f7fc                __fsym_version_name
                0x0801f804                __fsym_version_desc
                0x0801f82c                __fsym_list_thread_name
                0x0801f838                __fsym_list_thread_desc
                0x0801f844                __fsym_list_sem_name
                0x0801f850                __fsym_list_sem_desc
                0x0801f86c                __fsym_list_event_name
                0x0801f878                __fsym_list_event_desc
                0x0801f890                __fsym_list_mutex_name
                0x0801f89c                __fsym_list_mutex_desc
                0x0801f8b4                __fsym_list_mailbox_name
                0x0801f8c4                __fsym_list_mailbox_desc
                0x0801f8dc                __fsym_list_msgqueue_name
                0x0801f8ec                __fsym_list_msgqueue_desc
                0x0801f90c                __fsym_list_mempool_name
                0x0801f91c                __fsym_list_mempool_desc
                0x0801f938                __fsym_list_timer_name
                0x0801f944                __fsym_list_timer_desc
                0x0801f95c                __fsym_list_device_name
                0x0801f968                __fsym_list_device_desc
                0x0801f980                __fsym_list_name
                0x0801f988                __fsym_list_desc
 .rodata.device_type_str
                0x0801f9a4       0x64 ./rt-thread/components/finsh/cmd.o
 .rodata.name   0x0801fa08       0x6d ./rt-thread/components/finsh/msh.o
                0x0801fa08                __fsym_help_name
                0x0801fa10                __fsym_help_desc
                0x0801fa28                __fsym_ps_name
                0x0801fa2c                __fsym_ps_desc
                0x0801fa48                __fsym_free_name
                0x0801fa50                __fsym_free_desc
 *fill*         0x0801fa75        0x3 00000000
 .rodata.__FUNCTION__.8579
                0x0801fa78        0xe ./rt-thread/components/finsh/msh.o
 *fill*         0x0801fa86        0x2 00000000
 .rodata.name   0x0801fa88      0x1fc ./rt-thread/components/finsh/msh_file.o
                0x0801fa88                __fsym_ls_name
                0x0801fa8c                __fsym_ls_desc
                0x0801fab0                __fsym_cp_name
                0x0801fab4                __fsym_cp_desc
                0x0801facc                __fsym_mv_name
                0x0801fad0                __fsym_mv_desc
                0x0801fae8                __fsym_cat_name
                0x0801faec                __fsym_cat_desc
                0x0801fb00                __fsym_rm_name
                0x0801fb04                __fsym_rm_desc
                0x0801fb20                __fsym_cd_name
                0x0801fb24                __fsym_cd_desc
                0x0801fb48                __fsym_pwd_name
                0x0801fb4c                __fsym_pwd_desc
                0x0801fb80                __fsym_mkdir_name
                0x0801fb88                __fsym_mkdir_desc
                0x0801fba0                __fsym_mkfs_name
                0x0801fba8                __fsym_mkfs_desc
                0x0801fbc8                __fsym_mount_name
                0x0801fbd0                __fsym_mount_desc
                0x0801fbf8                __fsym_umount_name
                0x0801fc00                __fsym_umount_desc
                0x0801fc20                __fsym_df_name
                0x0801fc24                __fsym_df_desc
                0x0801fc30                __fsym_echo_name
                0x0801fc38                __fsym_echo_desc
                0x0801fc4c                __fsym_tail_name
                0x0801fc54                __fsym_tail_desc
 .rodata.__FUNCTION__.8589
                0x0801fc84       0x16 ./rt-thread/components/finsh/shell.o
 *fill*         0x0801fc9a        0x2 00000000
 .rodata.__FUNCTION__.6843
                0x0801fc9c       0x13 ./rt-thread/components/drivers/src/completion.o
 *fill*         0x0801fcaf        0x1 00000000
 .rodata.__FUNCTION__.6851
                0x0801fcb0       0x13 ./rt-thread/components/drivers/src/completion.o
 *fill*         0x0801fcc3        0x1 00000000
 .rodata.__FUNCTION__.6858
                0x0801fcc4       0x13 ./rt-thread/components/drivers/src/completion.o
 *fill*         0x0801fcd7        0x1 00000000
 .rodata.__FUNCTION__.6849
                0x0801fcd8       0x13 ./rt-thread/components/drivers/src/dataqueue.o
 *fill*         0x0801fceb        0x1 00000000
 .rodata.__FUNCTION__.6859
                0x0801fcec       0x13 ./rt-thread/components/drivers/src/dataqueue.o
 *fill*         0x0801fcff        0x1 00000000
 .rodata.__FUNCTION__.6874
                0x0801fd00       0x12 ./rt-thread/components/drivers/src/dataqueue.o
 *fill*         0x0801fd12        0x2 00000000
 .rodata.__FUNCTION__.6886
                0x0801fd14       0x13 ./rt-thread/components/drivers/src/dataqueue.o
 *fill*         0x0801fd27        0x1 00000000
 .rodata.__FUNCTION__.6892
                0x0801fd28       0x14 ./rt-thread/components/drivers/src/dataqueue.o
 .rodata.__FUNCTION__.6903
                0x0801fd3c       0x15 ./rt-thread/components/drivers/src/dataqueue.o
 *fill*         0x0801fd51        0x3 00000000
 .rodata.__FUNCTION__.6909
                0x0801fd54       0x12 ./rt-thread/components/drivers/src/dataqueue.o
 *fill*         0x0801fd66        0x2 00000000
 .rodata.__FUNCTION__.6953
                0x0801fd68       0x13 ./rt-thread/components/drivers/src/ringbuffer.o
 *fill*         0x0801fd7b        0x1 00000000
 .rodata.__FUNCTION__.6967
                0x0801fd7c       0x18 ./rt-thread/components/drivers/src/ringbuffer.o
 .rodata.__FUNCTION__.6996
                0x0801fd94       0x16 ./rt-thread/components/drivers/src/ringbuffer.o
 *fill*         0x0801fdaa        0x2 00000000
 .rodata.__FUNCTION__.7015
                0x0801fdac       0x15 ./rt-thread/components/drivers/src/ringbuffer.o
 *fill*         0x0801fdc1        0x3 00000000
 .rodata.__FUNCTION__.7020
                0x0801fdc4       0x16 ./rt-thread/components/drivers/src/ringbuffer.o
 *fill*         0x0801fdda        0x2 00000000
 .rodata.__FUNCTION__.6903
                0x0801fddc        0xf ./rt-thread/components/drivers/src/waitqueue.o
 *fill*         0x0801fdeb        0x1 00000000
 .rodata.__FUNCTION__.5868
                0x0801fdec       0x10 ./rt-thread/components/drivers/spi/spi_core.o
 .rodata.__FUNCTION__.5819
                0x0801fdfc       0x15 ./rt-thread/components/drivers/spi/spi_dev.o
 *fill*         0x0801fe11        0x3 00000000
 .rodata.__FUNCTION__.5827
                0x0801fe14       0x16 ./rt-thread/components/drivers/spi/spi_dev.o
 *fill*         0x0801fe2a        0x2 00000000
 .rodata.__FUNCTION__.5841
                0x0801fe2c       0x17 ./rt-thread/components/drivers/spi/spi_dev.o
 *fill*         0x0801fe43        0x1 00000000
 .rodata._serial_fops
                0x0801fe44       0x24 ./rt-thread/components/drivers/serial/serial.o
 .rodata.__FUNCTION__.8551
                0x0801fe68       0x11 ./rt-thread/components/drivers/serial/serial.o
 *fill*         0x0801fe79        0x3 00000000
 .rodata.__FUNCTION__.8593
                0x0801fe7c       0x11 ./rt-thread/components/drivers/serial/serial.o
 *fill*         0x0801fe8d        0x3 00000000
 .rodata.__FUNCTION__.8650
                0x0801fe90       0x1d ./rt-thread/components/drivers/serial/serial.o
 *fill*         0x0801fead        0x3 00000000
 .rodata.__FUNCTION__.8659
                0x0801feb0       0x1d ./rt-thread/components/drivers/serial/serial.o
 *fill*         0x0801fecd        0x3 00000000
 .rodata.__FUNCTION__.8665
                0x0801fed0       0x1d ./rt-thread/components/drivers/serial/serial.o
 *fill*         0x0801feed        0x3 00000000
 .rodata.__FUNCTION__.8691
                0x0801fef0        0xf ./rt-thread/components/drivers/serial/serial.o
 *fill*         0x0801feff        0x1 00000000
 .rodata.__FUNCTION__.8698
                0x0801ff00        0xf ./rt-thread/components/drivers/serial/serial.o
 *fill*         0x0801ff0f        0x1 00000000
 .rodata.__FUNCTION__.8708
                0x0801ff10       0x10 ./rt-thread/components/drivers/serial/serial.o
 .rodata.__FUNCTION__.8721
                0x0801ff20        0xf ./rt-thread/components/drivers/serial/serial.o
 *fill*         0x0801ff2f        0x1 00000000
 .rodata.__FUNCTION__.8625
                0x0801ff30        0xf ./rt-thread/components/drivers/serial/serial.o
 *fill*         0x0801ff3f        0x1 00000000
 .rodata.__FUNCTION__.8672
                0x0801ff40        0xf ./rt-thread/components/drivers/serial/serial.o
 *fill*         0x0801ff4f        0x1 00000000
 .rodata.__FUNCTION__.8604
                0x0801ff50       0x10 ./rt-thread/components/drivers/serial/serial.o
 .rodata.__FUNCTION__.8729
                0x0801ff60       0x10 ./rt-thread/components/drivers/serial/serial.o
 .rodata.__FUNCTION__.8638
                0x0801ff70        0xf ./rt-thread/components/drivers/serial/serial.o
 *fill*         0x0801ff7f        0x1 00000000
 .rodata.__FUNCTION__.8614
                0x0801ff80       0x10 ./rt-thread/components/drivers/serial/serial.o
 .rodata.__FUNCTION__.8737
                0x0801ff90       0x12 ./rt-thread/components/drivers/serial/serial.o
 *fill*         0x0801ffa2        0x2 00000000
 .rodata.__FUNCTION__.8782
                0x0801ffa4       0x16 ./rt-thread/components/drivers/serial/serial.o
 *fill*         0x0801ffba        0x2 00000000
 .rodata.__FUNCTION__.8791
                0x0801ffbc       0x11 ./rt-thread/components/drivers/serial/serial.o
 *fill*         0x0801ffcd        0x3 00000000
 .rodata.name   0x0801ffd0       0xad ./rt-thread/components/drivers/sensors/sensor_cmd.o
                0x0801ffd0                __fsym_sensor_fifo_name
                0x0801ffdc                __fsym_sensor_fifo_desc
                0x0801fffc                __fsym_sensor_int_name
                0x08020008                __fsym_sensor_int_desc
                0x0802002c                __fsym_sensor_polling_name
                0x0802003c                __fsym_sensor_polling_desc
                0x08020060                __fsym_sensor_name
                0x08020068                __fsym_sensor_desc
 *fill*         0x0802007d        0x3 00000000
 .rodata.tran_unit
                0x08020080       0x20 ./rt-thread/components/drivers/sdio/mmc.o
 .rodata.tran_value
                0x080200a0       0x10 ./rt-thread/components/drivers/sdio/mmc.o
 .rodata.tacc_uint
                0x080200b0       0x20 ./rt-thread/components/drivers/sdio/mmc.o
 .rodata.tacc_value
                0x080200d0       0x10 ./rt-thread/components/drivers/sdio/mmc.o
 .rodata.__FUNCTION__.5565
                0x080200e0       0x13 ./rt-thread/components/drivers/sdio/mmcsd_core.o
 *fill*         0x080200f3        0x1 00000000
 .rodata.tran_unit
                0x080200f4       0x20 ./rt-thread/components/drivers/sdio/sd.o
 .rodata.tran_value
                0x08020114       0x10 ./rt-thread/components/drivers/sdio/sd.o
 .rodata.tacc_uint
                0x08020124       0x20 ./rt-thread/components/drivers/sdio/sd.o
 .rodata.tacc_value
                0x08020144       0x10 ./rt-thread/components/drivers/sdio/sd.o
 .rodata.speed_value
                0x08020154       0x10 ./rt-thread/components/drivers/sdio/sdio.o
 .rodata.speed_unit
                0x08020164       0x20 ./rt-thread/components/drivers/sdio/sdio.o
 .rodata.__FUNCTION__.5422
                0x08020184       0x15 ./rt-thread/components/drivers/sdio/sdio.o
 *fill*         0x08020199        0x3 00000000
 .rodata.__FUNCTION__.5436
                0x0802019c       0x12 ./rt-thread/components/drivers/sdio/sdio.o
 *fill*         0x080201ae        0x2 00000000
 .rodata.__FUNCTION__.5568
                0x080201b0        0xe ./rt-thread/components/drivers/sdio/sdio.o
 *fill*         0x080201be        0x2 00000000
 .rodata.__FUNCTION__.5605
                0x080201c0       0x19 ./rt-thread/components/drivers/sdio/sdio.o
 *fill*         0x080201d9        0x3 00000000
 .rodata.__FUNCTION__.5653
                0x080201dc        0xa ./rt-thread/components/drivers/sdio/sdio.o
 *fill*         0x080201e6        0x2 00000000
 .rodata.__FUNCTION__.5123
                0x080201e8        0xa ./rt-thread/components/drivers/misc/pin.o
 *fill*         0x080201f2        0x2 00000000
 .rodata.__FUNCTION__.5132
                0x080201f4        0xb ./rt-thread/components/drivers/misc/pin.o
 *fill*         0x080201ff        0x1 00000000
 .rodata.__FUNCTION__.5140
                0x08020200        0xd ./rt-thread/components/drivers/misc/pin.o
 *fill*         0x0802020d        0x3 00000000
 .rodata.__FUNCTION__.5167
                0x08020210        0xc ./rt-thread/components/drivers/misc/pin.o
 .rodata.__FUNCTION__.5172
                0x0802021c        0xd ./rt-thread/components/drivers/misc/pin.o
 *fill*         0x08020229        0x3 00000000
 .rodata.__FUNCTION__.5176
                0x0802022c        0xc ./rt-thread/components/drivers/misc/pin.o
 .rodata.name   0x08020238       0xc8 ./rt-thread/components/drivers/misc/rt_drv_pwm.o
                0x08020238                __fsym_pwm_enable_name
                0x08020244                __fsym_pwm_enable_desc
                0x0802026c                __fsym_pwm_disable_name
                0x08020278                __fsym_pwm_disable_desc
                0x080202a4                __fsym_pwm_set_name
                0x080202ac                __fsym_pwm_set_desc
                0x080202dc                __fsym_pwm_get_name
                0x080202e4                __fsym_pwm_get_desc
 .rodata.i2c_bit_bus_ops
                0x08020300        0xc ./rt-thread/components/drivers/i2c/i2c-bit-ops.o
 .rodata.__FUNCTION__.6805
                0x0802030c       0x13 ./rt-thread/components/drivers/i2c/i2c_core.o
 *fill*         0x0802031f        0x1 00000000
 .rodata.__FUNCTION__.6774
                0x08020320       0x14 ./rt-thread/components/drivers/i2c/i2c_dev.o
 .rodata.__FUNCTION__.6784
                0x08020334       0x15 ./rt-thread/components/drivers/i2c/i2c_dev.o
 *fill*         0x08020349        0x3 00000000
 .rodata.__FUNCTION__.6794
                0x0802034c       0x17 ./rt-thread/components/drivers/i2c/i2c_dev.o
 *fill*         0x08020363        0x1 00000000
 .rodata.__FUNCTION__.6807
                0x08020364       0x1e ./rt-thread/components/drivers/i2c/i2c_dev.o
 *fill*         0x08020382        0x2 00000000
 .rodata.name   0x08020384       0x1d ./rt-thread/components/dfs/src/dfs.o
                0x08020384                __fsym_list_fd_name
                0x0802038c                __fsym_list_fd_desc
 *fill*         0x080203a1        0x3 00000000
 .rodata.__FUNCTION__.8180
                0x080203a4        0x9 ./rt-thread/components/dfs/src/dfs.o
 *fill*         0x080203ad        0x3 00000000
 .rodata.__FUNCTION__.8214
                0x080203b0        0x7 ./rt-thread/components/dfs/src/dfs.o
 *fill*         0x080203b7        0x1 00000000
 .rodata.__FUNCTION__.8246
                0x080203b8       0x13 ./rt-thread/components/dfs/src/dfs.o
 *fill*         0x080203cb        0x1 00000000
 .rodata.__FUNCTION__.8166
                0x080203cc       0x16 ./rt-thread/components/dfs/src/dfs_fs.o
 *fill*         0x080203e2        0x2 00000000
 .rodata.__FUNCTION__.8187
                0x080203e4       0x1d ./rt-thread/components/dfs/src/dfs_fs.o
 *fill*         0x08020401        0x3 00000000
 .rodata._device_fops
                0x08020404       0x24 ./rt-thread/components/dfs/filesystems/devfs/devfs.o
 .rodata._device_fs
                0x08020428       0x28 ./rt-thread/components/dfs/filesystems/devfs/devfs.o
 .rodata.__FUNCTION__.8164
                0x08020450       0x14 ./rt-thread/components/dfs/filesystems/devfs/devfs.o
 .rodata.__FUNCTION__.8172
                0x08020464       0x13 ./rt-thread/components/dfs/filesystems/devfs/devfs.o
 *fill*         0x08020477        0x1 00000000
 .rodata.__FUNCTION__.8180
                0x08020478       0x14 ./rt-thread/components/dfs/filesystems/devfs/devfs.o
 .rodata.__FUNCTION__.8186
                0x0802048c       0x14 ./rt-thread/components/dfs/filesystems/devfs/devfs.o
 .rodata.__FUNCTION__.8198
                0x080204a0       0x13 ./rt-thread/components/dfs/filesystems/devfs/devfs.o
 *fill*         0x080204b3        0x1 00000000
 .rodata.__FUNCTION__.8220
                0x080204b4       0x17 ./rt-thread/components/dfs/filesystems/devfs/devfs.o
 *fill*         0x080204cb        0x1 00000000
 .rodata.name   0x080204cc       0x3f ./board/msp/n32_msp.o
                0x080204cc                __fsym_pwm_led_sample_name
                0x080204dc                __fsym_pwm_led_sample_desc
                0x080204e8                __fsym_pwm_led_sample_off_name
                0x080204fc                __fsym_pwm_led_sample_off_desc
 *fill*         0x0802050b        0x1 00000000
 .rodata.F6x8   0x0802050c      0x228 ./applications/oled.o
                0x0802050c                F6x8
 .rodata.F8X16  0x08020734      0x5f0 ./applications/oled.o
                0x08020734                F8X16
 .rodata.name   0x08020d24       0x16 ./Libraries/rt_drivers/drv_common.o
                0x08020d24                __fsym_reboot_name
                0x08020d2c                __fsym_reboot_desc
 *fill*         0x08020d3a        0x2 00000000
 .rodata.pins   0x08020d3c      0x7e4 ./Libraries/rt_drivers/drv_gpio.o
 .rodata.pin_irq_map
                0x08021520       0xc0 ./Libraries/rt_drivers/drv_gpio.o
 .rodata._n32_pin_ops
                0x080215e0       0x1c ./Libraries/rt_drivers/drv_gpio.o
 .rodata.soft_i2c_config
                0x080215fc        0x8 ./Libraries/rt_drivers/drv_soft_i2c.o
 .rodata.n32_bit_ops_default
                0x08021604       0x20 ./Libraries/rt_drivers/drv_soft_i2c.o
 .rodata.__FUNCTION__.11161
                0x08021624        0xf ./Libraries/rt_drivers/drv_soft_i2c.o
 *fill*         0x08021633        0x1 00000000
 .rodata.__FUNCTION__.11041
                0x08021634        0xa ./Libraries/rt_drivers/drv_spi.o
 *fill*         0x0802163e        0x2 00000000
 .rodata.__FUNCTION__.11056
                0x08021640        0x5 ./Libraries/rt_drivers/drv_spi.o
 *fill*         0x08021645        0x3 00000000
 .rodata.n32_uart_ops
                0x08021648       0x14 ./Libraries/rt_drivers/drv_usart.o
 .rodata.__FUNCTION__.11123
                0x0802165c       0x13 ./Libraries/rt_drivers/drv_usart.o
 *fill*         0x0802166f        0x1 00000000
 .rodata.__FUNCTION__.11131
                0x08021670       0x11 ./Libraries/rt_drivers/drv_usart.o
 *fill*         0x08021681        0x3 00000000
 .rodata.__FUNCTION__.11141
                0x08021684        0xe ./Libraries/rt_drivers/drv_usart.o
 *fill*         0x08021692        0x2 00000000
 .rodata.__FUNCTION__.11150
                0x08021694        0xe ./Libraries/rt_drivers/drv_usart.o
 *fill*         0x080216a2        0x2 00000000
 .rodata.__FUNCTION__.11168
                0x080216a4        0x9 ./Libraries/rt_drivers/drv_usart.o
 *fill*         0x080216ad        0x3 00000000
 .rodata.s_ApbAhbPresTable
                0x080216b0       0x10 ./Libraries/N32_Std_Driver/n32g45x_std_periph_driver/src/n32g45x_rcc.o
 .rodata.s_AdcHclkPresTable
                0x080216c0       0x10 ./Libraries/N32_Std_Driver/n32g45x_std_periph_driver/src/n32g45x_rcc.o
 .rodata.s_AdcPllClkPresTable
                0x080216d0       0x20 ./Libraries/N32_Std_Driver/n32g45x_std_periph_driver/src/n32g45x_rcc.o
 .rodata.__sf_fake_stdin
                0x080216f0       0x20 d:/rt-threadstudio/repo/extract/toolchain_support_packages/arm/gnu_tools_for_arm_embedded_processors/5.4.1/bin/../lib/gcc/arm-none-eabi/5.4.1/../../../../arm-none-eabi/lib/armv7e-m/fpu\libc_nano.a(lib_a-findfp.o)
                0x080216f0                __sf_fake_stdin
 .rodata.__sf_fake_stdout
                0x08021710       0x20 d:/rt-threadstudio/repo/extract/toolchain_support_packages/arm/gnu_tools_for_arm_embedded_processors/5.4.1/bin/../lib/gcc/arm-none-eabi/5.4.1/../../../../arm-none-eabi/lib/armv7e-m/fpu\libc_nano.a(lib_a-findfp.o)
                0x08021710                __sf_fake_stdout
 .rodata.__sf_fake_stderr
                0x08021730       0x20 d:/rt-threadstudio/repo/extract/toolchain_support_packages/arm/gnu_tools_for_arm_embedded_processors/5.4.1/bin/../lib/gcc/arm-none-eabi/5.4.1/../../../../arm-none-eabi/lib/armv7e-m/fpu\libc_nano.a(lib_a-findfp.o)
                0x08021730                __sf_fake_stderr
 .rodata._global_impure_ptr
                0x08021750        0x4 d:/rt-threadstudio/repo/extract/toolchain_support_packages/arm/gnu_tools_for_arm_embedded_processors/5.4.1/bin/../lib/gcc/arm-none-eabi/5.4.1/../../../../arm-none-eabi/lib/armv7e-m/fpu\libc_nano.a(lib_a-impure.o)
                0x08021750                _global_impure_ptr
 .rodata.str1.1
                0x08021754        0xa d:/rt-threadstudio/repo/extract/toolchain_support_packages/arm/gnu_tools_for_arm_embedded_processors/5.4.1/bin/../lib/gcc/arm-none-eabi/5.4.1/../../../../arm-none-eabi/lib/armv7e-m/fpu\libc_nano.a(lib_a-locale.o)
                                  0xb (size before relaxing)
 .rodata.str1.1
                0x0802175e       0x11 d:/rt-threadstudio/repo/extract/toolchain_support_packages/arm/gnu_tools_for_arm_embedded_processors/5.4.1/bin/../lib/gcc/arm-none-eabi/5.4.1/../../../../arm-none-eabi/lib/armv7e-m/fpu\libc_nano.a(lib_a-nano-svfprintf.o)
 .rodata.str1.1
                0x0802176f       0x22 d:/rt-threadstudio/repo/extract/toolchain_support_packages/arm/gnu_tools_for_arm_embedded_processors/5.4.1/bin/../lib/gcc/arm-none-eabi/5.4.1/../../../../arm-none-eabi/lib/armv7e-m/fpu\libc_nano.a(lib_a-nano-vfprintf_i.o)
 .rodata._ctype_
